S012000062616D62695F68665F76322E733337B3
S11300000000022009020000350200003502000051
S11300103502000035020000350200003502000000
S113002035020000350200003502000035020000F0
S1130030350200003502000035020000B51E000044
S113004035020000A91F000035020000350200003F
S113005035020000350200003502000035020000C0
S1130060350200003502000035020000D91F0000EF
S113007035020000350200003502000035020000A0
S11300803502000035020000350200003502000090
S11300903502000035020000350200003502000080
S11300A03502000035020000350200003502000070
S11300B03502000035020000350200003502000060
S11300C03502000035020000350200003502000050
S11300D035020000350200003502000010B5054C61
S11300E0237833B9044B13B10448AFF300800123E0
S11300F0237010BD9C00002000000000343E00006E
S1130100084B10B51BB108480849AFF300800848F4
S1130110036803B910BD074B002BFBD0BDE81040AA
S1130120184700BF00000000343E0000A00000207B
S11301309800002000000000154B002B08BF134B53
S11301409D46A3F5803A00218B460F461348144A76
S1130150121A03F030F80F4B002B00D098470E4BC7
S1130160002B00D098470020002104000D000D480A
S1130170002802D00C48AFF3008002F0EBFF20000F
S1130180290002F0C1FB02F0D1FF00BF000008000B
S11301900000022000000000000000009C0000207D
S11301A054010020000000000000000080B582B06F
S11301B000AF1248012100F0B9FC1148012100F000
S11301C0B5FC00237B6011E00E4A7B6812F8331003
S11301D00C4A7B68DB0013445B680846194604221A
S11301E0002301F0CBF97B6801337B607B68012B32
S11301F0EADD002318460837BD4680BD408104006F
S113020000D20400C43A0000064880470649074A61
S1130210074B9A42BEBF51F8040B42F8040BF8E7AF
S1130220FFF78AFFB5030000403E000000000020F5
S11302309C000020FEE700BF80B400AF044BDB6CE1
S11302401B0EDBB21846BD465DF8047B704700BF49
S1130250B081E00F80B582B000AF00F01FF8786085
S1130260074B5B6803F00F031A467B68D3407B603F
S1130270044A7B6813607B6818460837BD4680BD16
S113028000800C400800002080B400AF024B1846E8
S1130290BD465DF8047B7047006CDC0280B582B01B
S11302A000AF334BDB6A03F47053B3F5805F0AD0BD
S11302B0B3F5005F03D0B3F5006F08D00BE02D4B0E
S11302C01B687B6047E04FF400437B6043E02A4BAC
S11302D01B687B603FE0264BDB6803F4E063B3F507
S11302E0007F1BD0B3F5007F05D8002B24D0B3F5D5
S11302F0807F16D02BE0B3F5806F09D0B3F5A06FE3
S113030003D0B3F5407F06D021E01C4B7B6021E095
S11303101B4B7B601EE01B4B7B601BE01A4B7B601E
S113032018E0FFF789FF0346122B02D9174B7B60B5
S113033010E0174B7B600DE0FFF77EFF0346122BA6
S113034002D9144B7B6005E0134B7B6002E0002371
S11303507B6000BF00BF064B1B6803F4E0339B0BBC
S113036001337A68B2FBF3F318460837BD4680BD03
S113037000800C400400002000000020003FAB017E
S1130380406F4001809FD500C0D8A70040B56400ED
S1130390C0CF6A00804F120040420F0080B400AF0B
S11303A0034B1B681846BD465DF8047B704700BFCD
S11303B00000002080B400AFBD465DF8047B7047A8
S11303C080B400AF4FF400431846BD465DF8047B8B
S11303D0704700BF80B400AF4FF47A731846BD462F
S11303E05DF8047B704700BF80B400AF034B1B680B
S11303F01846BD465DF8047B704700BF040000202A
S113040080B487B000AFF860B9607A60FB6803F12C
S11304100473DA00BB6813449B007B617B697A68D0
S11304201A601C37BD465DF8047B704780B485B004
S113043000AF786039607B6803F10473DA003B68CD
S113044013449B00FB60FB681B6818461437BD46C9
S11304505DF8047B704700BF80B485B000AF78605E
S11304607B68002B04D07B68B3F5004F00D800BF35
S11304707B68B3FA83F3C3F11F03FB60FB68184680
S11304801437BD465DF8047B704700BF80B400AFED
S1130490044BDB6C1B0EDBB21846BD465DF8047BD7
S11304A0704700BFB081E00F80B400AF054BDB6C38
S11304B003F47F031B0CDBB21846BD465DF8047BD6
S11304C0704700BFB081E00F80B582B000AFFFF786
S11304D0EBFF03464A2B04D0792B02D0482B21D0C2
S11304E022E0144B1B699BB203F03F039BB21B0237
S11304F0FB80104B9B6903F0F0039AB2FB88134313
S1130500FB800C4BDB6903F0F0031B099AB2FB88F8
S11305101343FB80FB88B3F5017F01D3064B04E052
S1130520064B02E0054B00E0002318460837BD46A1
S113053080BD00BFD0FF0FE000366E010048E80127
S113054080B584B000AF78600123FB60FFF7BCFF87
S113055002467B689A4204D30023FB600023BB60FD
S11305600BE0FFF7B1FF03465A007B689A4202D3BF
S11305700123BB6001E00223BB6008481E21FA6826
S1130580FFF73EFF0549054B5B6823F48072BB68A7
S11305901B0213434B601037BD4680BD00800C40E6
S11305A080B582B000AF05481E21FFF73FFF786099
S11305B07B6818460837BD4680BD00BF00800C40EC
S11305C080B582B000AF214B5B6903F4E063B3F5FF
S11305D0007F1CD0B3F5007F05D8002B25D0B3F5E0
S11305E0807F1FD02AE0B3F5C06F24D0B3F5E06F4D
S11305F01ED0B3F5407F21D1FFF748FF0346122BED
S113060002D9134B7B601CE0124B7B6019E0FFF7AF
S11306103DFF0346122B02D90F4B7B6011E00F4BB9
S11306207B600EE00E4B7B600BE00E4B7B6008E0C2
S11306300D4B7B6005E00D4B7B6002E000237B608B
S113064000BF7B6818460837BD4680BD00800C405B
S1130650804F120040420F0040B56400C0CF6A00D2
S1130660C0D8A700809FD500406F4001003FAB0178
S113067080B582B000AF0D4800F0ACFB0346FB70C0
S1130680FB78072B05D0092B07D1FFF707FE78600D
S113069006E0FFF795FF786002E000237B6000BF6F
S11306A07B6818460837BD4680BD00BF06000C00B5
S11306B080B485B000AF78603960284BDB6B002BC9
S11306C014BF01230023BB72244B41F67132DA6359
S11306D0224B5B6803F00703FB60FB68012B01D925
S11306E0042B02D10023FB7202E00123FB7200BF42
S11306F07B681B4A934207D9FB7A002B01D0052360
S113070000E00423FB6016E07B68154A93420BD893
S11307107B68144A934207D9FB7A002B01D0032348
S113072000E00123FB6006E0FB7A002B01D00223EA
S113073000E00023FB600949084B5B6823F00702D3
S1130740FB6813434B60BB7A002B02D0034B00229F
S1130750DA631437BD465DF8047B704700000C4033
S11307600048E8010024F40080B500AFFFF78CFDD9
S1130770034618460021FFF79BFF80BD80B582B079
S113078000AF7860396078683968FFF791FF0837FF
S1130790BD4680BD90B585B000AF78600023BB60D6
S11307A07B68344A934203D0334A934200D000E03A
S11307B000BF786800F00EFB0346FB607B682D4A9F
S11307C0934203D02C4A934206D00CE02B4B9B6AF5
S11307D003F00303FB6006E0284B9B6A03F00C0361
S11307E09B08FB6000BFFB68032B3AD801A252F8B8
S11307F023F000BF2B080000050800000D080000CE
S113080015080000FFF7DCFDB8602DE0FFF7ECFDF4
S1130810B86029E0FFF71EFD0446FFF7C1FE03465A
S1130820013324FA03F3BB601EE00023BB607B6842
S1130830104A934203D07B680F4A934210D10F4B66
S11308409A6A7B680B498B4201D1102300E0142380
S113085022FA03F3002B03D0FFF7BCFDB86003E0DA
S113086002E00023BB6000BFBB6818461437BD46D6
S113087090BD00BF02001A0003001C0000800C4061
S113088080B483B000AF7860094B5B6D03F0010363
S1130890002B00D006E000BF054B1A6D7B681340A7
S11308A0002BF9D10C37BD465DF8047B704700BFBF
S11308B000800C4080B582B000AF104800F08AFA86
S11308C00346FB70FB78032B07D0092B09D0022BBE
S11308D00BD1FFF789FD78600AE0FFF771FD7860BE
S11308E006E0FFF7DBFC786002E000237B6000BFDA
S11308F07B6818460837BD4680BD00BF0723220029
S1130900B0B584B000AF786039607B681B0903F030
S11309100F03FB60FB68013B062B00F2F48001A28D
S113092052F823F041090000070B0000070B0000F8
S113093077090000A1090000EF090000B30A0000D4
S11309403B68002B03D03B68082B00D800BFFFF79F
S11309500BFF6F496E4B1B6823F4E0323B68013B8D
S11309609B0313430B60FFF775FCB860B868002164
S1130970FFF704FFC8E03B68002B04D03B68B3F5E5
S1130980007F00D800BF3868FFF766FD3860604913
S11309905F4B9B6823F00F023B6813438B60B3E00B
S11309A03B68002B04D03B68B3F5007F00D800BF40
S11309B0FFF7DAFEFFF772FC02463B68B2FBF3F383
S11309C01846FFF7BDFD3868FFF746FD386050490B
S11309D04F4B5B6823F00F023B6813434B60FFF7F8
S11309E039FCB860B8680021FFF7C8FE8CE07B686A
S11309F0484A93421ED0474A934203D8464A9342F8
S1130A0007D055E0454A934225D0454A93423FD00A
S1130A104EE00420FFF734FF3868FFF71DFD38600F
S1130A203B493B4B9B6E23F0F0023B681B01134395
S1130A308B663DE00420FFF723FF3868FFF70CFDC9
S1130A4038603349324B9B6E23F470623B681B025F
S1130A5013438B662CE03B680F2B03D93B68802B38
S1130A6000D800BF0420FFF70BFF3868FFF7F4FC41
S1130A703860274D264B9B6E23F440541020FFF71B
S1130A80EBFC02463B689B1A1B032343AB660FE057
S1130A900420FFF7F5FE3868FFF7DEFC38601C49D8
S1130AA01B4B9B6E23F003023B6813438B6600BF12
S1130AB02AE07B681B4A934203D01B4A934210D01E
S1130AC020E04020FFF7DCFE3868FFF7C5FC386003
S1130AD00F490F4B1B6F23F003023B6813430B6753
S1130AE010E04020FFF7CCFE3868FFF7B5FC386013
S1130AF00749074B1B6F23F030023B681B0113436C
S1130B000B6700BF00E000BF1037BD46B0BD00BF9B
S1130B1000800C406026140060161000600026005F
S1130B2060062A00700716007017180080B586B09A
S1130B3000AF78600B46FB7000233B617B681B0AA7
S1130B4003F00F03013B092B45D801A252F823F00F
S1130B508D0B0000930B0000790B0000D70B0000F5
S1130B60D70B0000990B0000A30B0000D70B00006B
S1130B70D70B0000AD0B0000194B7B61194800F046
S1130B803DF803461846FFF7DBFC12E0164B7B6189
S1130B900FE0164B7B610CE0154B7B6101233B613D
S1130BA007E0144B7B6110233B6102E0124B7B6135
S1130BB000BF7B681B0B03F01F03FB603B69002B2A
S1130BC002D03869FFF75CFEFB787869F9681A4649
S1130BD0FFF716FC00E000BF1837BD4680BD00BF1C
S1130BE040800C400043020008800C4044800C40CC
S1130BF058800C4060800C4078800C4090B585B0E3
S1130C0000AF78607B6803F47813B3F5B01F00F08D
S1130C10AB80B3F5B01F1AD8B3F5402F00F0BF80F6
S1130C20B3F5402F08D8B3F5003F3CD0B3F5802F7F
S1130C302DD0002B27D0BEE0B3F5801F3CD0B3F5F8
S1130C40A01F47D0B3F5602F00F0AD80B3E0B3F53B
S1130C50081F00F0AC80B3F5081F0AD8B3F5D01F05
S1130C6025D0B3F5E01F7AD0B3F5C01F00F089801A
S1130C70A1E0B3F5201F4ED0B3F5281F62D0B3F521
S1130C80181F35D097E0FFF709FBF86096E0FFF7EF
S1130C9005FBF8604C4B9B6803F00F031A46FB6896
S1130CA0D340FB608AE0FFF7D5FAF86086E0474856
S1130CB0FFF770FDF86081E04448FFF76BFDF860D2
S1130CC0414B9B6E03F0F0031B091A46FB68D340AB
S1130CD0FB6073E03D48FFF75DFDF8603A4B9B6EA7
S1130CE003F470631B0A1A46FB68D340FB6065E09B
S1130CF03648FFF74FFDF860334B9B6E03F44053C7
S1130D001C0B1020FFF7A8FB034623441A46FB687C
S1130D10D340FB6052E02D48FFF73CFDF8602A4BBE
S1130D209B6E03F440531B0B1A46FB68D340FB60D5
S1130D30254BDB6F03F007030133FA68B2FBF3F3CF
S1130D40FB603BE02148FFF725FDF8601E4B9B6EDE
S1130D5003F003031A46FB68D340FB602EE01C48F3
S1130D60FFF718FDF86029E01948FFF713FDF86054
S1130D70154B1B6F03F003031A46FB68D340FB605B
S1130D801CE01348FFF706FDF8600F4B1B6F03F0E0
S1130D9030031B091A46FB68D340FB600EE0FFF7E3
S1130DA067FCF8600AE0FFF70BFCF86006E0FFF769
S1130DB081FDF86002E00023FB6000BFFB68184679
S1130DC01437BD4690BD00BF00800C4002001A00DD
S1130DD003001C0080B485B000AF78600123FB736E
S1130DE07B6803F00F03BB60BB68013B062B00F27A
S1130DF0938001A252F823F0150E00004B0E000060
S1130E00870E0000190F0000190F0000C30E000028
S1130E10E50E0000454BDB6A03F47053B3F5805FC5
S1130E2009D0B3F5005F03D0B3F5006F06D008E036
S1130E300223FB7308E00323FB7305E00423FB7325
S1130E4002E00523FB7300BF69E0384B9B6A03F0A3
S1130E500303022B06D0032B07D0012B08D1032355
S1130E60FB730FE00223FB730CE00623FB7309E022
S1130E702E4B9B6A03F48033002B02D00A23FB73AE
S1130E8000E000BF4BE0294B9B6A03F00C03082BE6
S1130E9006D00C2B07D0042B08D10323FB730FE0DF
S1130EA00223FB730CE00623FB7309E01F4B9B6AD0
S1130EB003F48013002B02D00A23FB7300E000BF6D
S1130EC02DE01A4B1B6803F08053002B03D0B3F1C1
S1130ED0805F03D023E00723FB7302E00923FB7345
S1130EE000BF1CE0114BDB6A03F46033B3F5803FB1
S1130EF008D0B3F5003F08D0B3F5004F08D109235B
S1130F00FB7308E00223FB7305E00323FB7302E099
S1130F100123FB7300BF02E00023FB7300BFFB7BD4
S1130F2018461437BD465DF8047B704700800C40BA
S1130F3080B588B000AF78600B46FB700323FB617B
S1130F400323FB7600233B617B6803F00F03FB6004
S1130F50FB68013B062B00F2288101A252F823F022
S1130F607D0F00005310000053100000AB1100006F
S1130F70AB1100001911000043110000FB78023B83
S1130F80082B00F2148101A252F823F0B10F0000E3
S1130F90BB0F0000C50F000007100000AF110000D8
S1130FA0AF110000AF110000AF110000AF1100003D
S1130FB00423FB610023FB7631E00323FB6101235F
S1130FC0FB762CE00223FB610223FB76FFF77CFA1D
S1130FD0034601331846FFF7B3FAFFF7DFF9024679
S1130FE0764B9A4206D9764A754B1B6843F06003E8
S1130FF0136014E0724A724B1B6823F0600343F0E1
S1131000200313600BE00123FB610323FB76FFF74E
S11310105BFA034601331846FFF792FA00BFFB7EE2
S113102018460121012200F05FF9FFF79DFB644A95
S1131030FB6953626348FFF7E1FD03461846FFF777
S11310407FFAFFF707F9B860B8680021FFF796FB4D
S1131050B0E0FB78013B092B00F2AB8001A252F80F
S113106023F000BF8D10000093100000A3100000B7
S1131070B3110000B3110000B3100000B31100005D
S1131080B3110000B3110000CF10000000237B61F6
S113109022E000200121012200F026F902237B61D5
S11310A01AE001200121012200F01EF901237B61D5
S11310B012E0FFF7CFF8B860B868FFF741FA42488A
S11310C004210122FFF79CF903237B6104E0002340
S11310D07B6101233B6100BFFB68022B0DD13849C2
S11310E0374B9B6A23F4803323F003037A691A4352
S11310F03B691B0413438B625CE03149304B9B6AB0
S113110023F4801323F00C037A6992001A433B6999
S11311101B0513438B624DE0FB78072B02D0092B90
S113112007D047E0264A264B1B6823F08053136000
S113113006E0234A224B1B6843F08053136000BF30
S113114038E0FB78032B14D0092B22D0022B00D0DB
S113115030E000200121012200F0C6F8184B4022A3
S11311605A6200BF164BDB6A03F48033002BF9D0BC
S11311701AE001200121012200F0B6F8104B602290
S11311805A6200BF0E4BDB6A03F40033002BF9D024
S11311900AE00B4B20225A6200BF094BDB6A03F4BE
S11311A00043002BF9D000BF04E000BF02E000BF01
S11311B000E000BF2037BD4680BD00BF0048E80105
S11311C000800C400043020040800C4080B586B093
S11311D000AF0346FB71FB79052B5CD801A252F8E2
S11311E023F000BFFD1100000712000015120000DB
S11311F0231200002D12000037120000284BDB6A76
S1131200DBB27B611EE0264BDB6A03F47F431B0ADF
S11312107B6117E0224BDB6A03F47F031B0C7B61C9
S113122010E01F4BDB6A1B0E7B610BE01C4B1B6B3E
S1131230DBB27B6106E01A4B1B6B03F47F431B0A92
S11312407B6100BF1120FFF7C5FD0346FB74FB7CE7
S1131250052B01D1FFF788FA1249124BDB6823F4FE
S1131260FF6323F00703FA7912021A437B691343DD
S1131270CB60FB7C052B06D1FEF7ECFFF860F86829
S11312800021FFF77BFA0848FFF7B8FC034618462D
S1131290FFF756F900E000BF1837BD4680BD00BF18
S11312A0B081E00F00800C400043020080B483B0A2
S11312B000AF78600B4B9B6D03F00803002B00D04C
S11312C00BE07B6803F007037B600649054BDB6F8B
S11312D023F007027B681343CB670C37BD465DF8E8
S11312E0047B704700800C4080B586B000AF034695
S11312F0FB710B46BB7113467B71FB79042B48D8F9
S113130001A252F823F000BF551300004713000058
S11313102B1300001D1300003913000001233B614F
S11313200223FB6001237B611DE004233B6108234E
S1131330FB6003237B6116E010233B612023FB60E9
S113134005237B610FE040233B618023FB6007237F
S11313507B6108E04FF480733B614FF40073FB60E2
S113136009237B6100BFBB79002B0ED00B4A3B697C
S113137013627B79002B0DD000BF09487969FFF710
S113138055F80346002BF8D004E0044AFB681362C6
S113139000E000BF1837BD4680BD00BF00800C4090
S11313A02C800C4080B487B000AFF860B9607A60DC
S11313B0FB6803F10473DA00BB6813449B007B6190
S11313C07B697A681A601C37BD465DF8047B7047F8
S11313D080B485B000AFF860B9607A60FB681A68C1
S11313E0BB68DB431A407B681A43FB681A601437F6
S11313F0BD465DF8047B704780B483B000AF0346FC
S11314003960FB71FB79002B0DD0FB79012B0AD0DD
S1131410FB79022B07D0FB79032B04D0FB79042B37
S113142001D0FB79052B0949FA793B68012000FAC0
S113143003F318461346DB0013449B000B4410339C
S113144058600C37BD465DF8047B7047006000406F
S113145080B483B000AF03463960FB71FB79002B85
S11314600DD0FB79012B0AD0FB79022B07D0FB7935
S1131470032B04D0FB79042B01D0FB79052B0949FC
S1131480FA793B68012000FA03F318461346DB009F
S113149013449B000B44103318600C37BD465DF8B1
S11314A0047B70470060004080B586B000AFB9602F
S11314B07A601A460346FB731346BB7300237B61B1
S11314C0FB7B002B0DD0FB7B012B0AD0FB7B022B7B
S11314D007D0FB7B032B04D0FB7B042B01D0FB7BCD
S11314E0052B7B68072B0ED87B689B001A460723C5
S11314F003FA02F1FB7B7A689200934019481A467A
S1131500FFF766FF10E07B68083B7B617B699B000B
S11315101A46072303FA02F1FB7B7A69920093408F
S113152011481A46FFF754FFBB7B104879681A46E6
S1131530FFF738FF97F820300D4879681A46FFF70F
S113154031FF0C4A7B68012101FA03F3C2F81C3114
S113155097F82430084879681A46FFF723FF1837AC
S1131560BD4680BD00610040046100400861004048
S11315700C610040006000401061004090B585B0EF
S113158000AFB9607B600346FB731346BB73FB7B00
S1131590002B0DD0FB7B012B0AD0FB7B022B07D049
S11315A0FB7B032B04D0FB7B042B01D0FB7B052BA3
S11315B0BB7B002B0DD07B68002B05D0FB7B184632
S11315C0B968FFF745FF04E0FB7B1846B968FFF7ED
S11315D013FFBB68072B1CD82A4CFA7B2948F97BDC
S11315E00B46DB000B449B0003445968BB689B001B
S11315F018460F238340DB430B40B97BB868800057
S1131600814019431346DB0013449B002344596073
S113161024E01C4CFA7B1B48F97B0B46DB000B4493
S11316209B00034408331968BB6803F18043083BFB
S11316309B0018460F238340DB431940B87BBB68EB
S113164003F18043083B9B0000FA03F3194313465C
S1131650DB0013449B00234408331960BB7B002B3D
S11316600DD17B68002B05D0FB7B1846B968FFF7CA
S1131670EFFE04E0FB7B1846B968FFF7BDFE1437A4
S1131680BD4690BD0060004080B483B000AF034607
S1131690FB71FB79002B06D0084A084B1B6843F00A
S11316A00103136005E0054A044B1B6823F00103A2
S11316B013600C37BD465DF8047B704700A00840FA
S11316C080B487B000AFF860B9607A60FB6803F15A
S11316D00473DA00BB6813449B007B617B697A68FE
S11316E01A601C37BD465DF8047B704780B584B032
S11316F000AF78601A4B5B68FB600020FFF7C4FF03
S1131700FB6823F4830323F01F03FB607B685B689F
S1131710FA681343FB607B681B7A1A46FB68134321
S1131720FB607B685B7A1A46FB681343FB607B684B
S1131730DB68FA681343FB607B681B8A1A46FB6804
S11317401343FB60064AFB6853607B681B78002BDD
S113175002D00120FFF798FF1037BD4680BD00BFBF
S113176000A0084080B485B000AF78600D4B5B6882
S1131770FB60FB6823F48033FB607B68002B08D09C
S1131780B3F5803F00D005E0FB6843F48033FB6091
S113179000E000BF034AFB6853601437BD465DF8A0
S11317A0047B704700A0084080B483B000AF0346B8
S11317B00A46FB8013467B717B79002B06D00949CE
S11317C0084B9A68FB8813438B6006E00549054B78
S11317D09A68FB88DB4313408B600C37BD465DF889
S11317E0047B704700A0084080B584B000AFF86067
S11317F0B9601346FB71FB68072B00F2C38001A29A
S113180052F823F025180000511800007D1800003C
S1131810A9180000D5180000011900002D190000B6
S113182059190000BB681F2B07DCBA68FB795748BD
S113183011461A46FFF744FFA5E0BB68203BBB6096
S1131840BA68FB79524811461A46FFF739FF9AE005
S1131850BB681F2B07DCBA68FB794E4811461A4651
S1131860FFF72EFF8FE0BB68203BBB60BA68FB79B3
S1131870494811461A46FFF723FF84E0BB681F2B33
S113188007DCBA68FB79454811461A46FFF718FF8A
S113189079E0BB68203BBB60BA68FB7940481146DD
S11318A01A46FFF70DFF6EE0BB681F2B07DCBA6812
S11318B0FB793C4811461A46FFF702FF63E0BB6818
S11318C0203BBB60BA68FB79374811461A46FFF7DC
S11318D0F7FE58E0BB681F2B07DCBA68FB79334876
S11318E011461A46FFF7ECFE4DE0BB68203BBB6097
S11318F0BA68FB792E4811461A46FFF7E1FE42E02A
S1131900BB681F2B07DCBA68FB792A4811461A46C4
S1131910FFF7D6FE37E0BB68203BBB60BA68FB79B3
S1131920254811461A46FFF7CBFE2CE0BB681F2B57
S113193007DCBA68FB79214811461A46FFF7C0FE56
S113194021E0BB68203BBB60BA68FB791C481146A8
S11319501A46FFF7B5FE16E0BB681F2B07DCBA6812
S1131960FB79184811461A46FFF7AAFE0BE0BB683C
S1131970203BBB60BA68FB79134811461A46FFF74F
S11319809FFE00E000BF1037BD4680BD40A0084068
S113199050A0084044A0084054A0084048A0084073
S11319A058A008404CA008405CA00840CCA00840C7
S11319B0B4A00840D0A00840B8A00840D4A0084073
S11319C0BCA00840D8A00840C0A0084080B487B09C
S11319D000AFF860B9607A60FB68072B00F2AC8056
S11319E001A252F823F000BF091A00002D1A0000CA
S11319F0511A0000751A0000991A0000C11A00005B
S1131A00E91A0000111B00004E4B1B6C7B61BB6884
S1131A10DB437A6913407B61BA687B6813407A6957
S1131A2013437B61474A7B69136486E0454B5B6CD7
S1131A307B61BB68DB437A6913407B61BA687B686E
S1131A4013407A6913437B613E4A7B69536474E0B3
S1131A503C4B9B6C7B61BB68DB437A6913407B61C5
S1131A60BA687B6813407A6913437B61354A7B69A2
S1131A70936462E0334BDB6C7B61BB68DB437A6964
S1131A8013407B61BA687B6813407A6913437B61B6
S1131A902C4A7B69D36450E02A4BD3F8CC307B6169
S1131AA0BB68DB437A6913407B61BA687B68134087
S1131AB07A6913437B61234A7B69C2F8CC303CE0EA
S1131AC0204BD3F8D0307B61BB68DB437A69134089
S1131AD07B61BA687B6813407A6913437B61194A56
S1131AE07B69C2F8D03028E0164BD3F8D4307B6140
S1131AF0BB68DB437A6913407B61BA687B68134037
S1131B007A6913437B610F4A7B69C2F8D43014E0CD
S1131B100C4BD3F8D8307B61BB68DB437A69134044
S1131B207B61BA687B6813407A6913437B61054A19
S1131B307B69C2F8D83000E000BF1C37BD465DF8B1
S1131B40047B704700A0084080B487B000AFF86001
S1131B50B9607A60FB68072B00F2AC8001A252F8EE
S1131B6023F000BF851B0000A91B0000CD1B000053
S1131B70F11B0000151C00003D1C0000651C00004A
S1131B808D1C00004E4B1B6D7B61BB68DB437A6987
S1131B9013407B61BA687B6813407A6913437B61A5
S1131BA0474A7B69136586E0454B5B6D7B61BB6887
S1131BB0DB437A6913407B61BA687B6813407A69B6
S1131BC013437B613E4A7B69536574E03C4B9B6DD8
S1131BD07B61BB68DB437A6913407B61BA687B68CD
S1131BE013407A6913437B61354A7B69936562E0EC
S1131BF0334BDB6D7B61BB68DB437A6913407B61EC
S1131C00BA687B6813407A6913437B612C4A7B6909
S1131C10D36550E02A4BD3F8B4307B61BB68DB4317
S1131C207A6913407B61BA687B6813407A6913430D
S1131C307B61234A7B69C2F8B4303CE0204BD3F883
S1131C40B8307B61BB68DB437A6913407B61BA6857
S1131C507B6813407A6913437B61194A7B69C2F834
S1131C60B83028E0164BD3F8BC307B61BB68DB434B
S1131C707A6913407B61BA687B6813407A691343BD
S1131C807B610F4A7B69C2F8BC3014E00C4BD3F87B
S1131C90C0307B61BB68DB437A6913407B61BA68FF
S1131CA07B6813407A6913437B61054A7B69C2F8F8
S1131CB0C03000E000BF1C37BD465DF8047B7047B0
S1131CC000A0084080B483B000AF78600649064B9A
S1131CD05B6823F4E0127B6813434B600C37BD460A
S1131CE05DF8047B704700BF00A0084080B485B055
S1131CF000AF7860194B5B69DBB203F00F03DBB212
S1131D009B00FB73154B1B6903F0C0039B09DAB2FC
S1131D10FB7B1343FB737B68FA7B9A700F4B1B6945
S1131D20DBB203F03F03DAB27B685A700B4B9B695A
S1131D30DBB223F00F03FB73084BDB6903F0F00302
S1131D401B09DAB2FB7B1343FB737B68FA7B1A70C3
S1131D501437BD465DF8047B704700BFD0FF0FE029
S1131D6080B483B000AF0346FB71084997F907308C
S1131D705B09FA7902F01F02012000FA02F241F82D
S1131D8023200C37BD465DF8047B704700E100E07A
S1131D9080B483B000AF0346FB71094997F907305B
S1131DA05B09FA7902F01F02012000FA02F22033E3
S1131DB041F823200C37BD465DF8047B704700BF13
S1131DC000E100E080B483B000AF03463960FB71EA
S1131DD097F90730002B0BDA0D49FB7903F00F0359
S1131DE0043B3A68D2B25201D2B20B441A7609E0EB
S1131DF0084997F907303A68D2B25201D2B20B447B
S1131E0083F800230C37BD465DF8047B704700BFA0
S1131E1000ED00E000E100E080B582B000AF786042
S1131E207B68013BB3F1807F01D301230FE00A4AB1
S1131E307B68013B53604FF0FF300721FFF7C2FF7F
S1131E40054B00229A60044B07221A6000231846AF
S1131E500837BD4680BD00BF10E000E080B400AF8D
S1131E60044BDB6C1B0EDBB21846BD465DF8047BED
S1131E70704700BFB081E00F80B582B000AFFFF7BC
S1131E80EDFF0346FB713B1D1846FFF72FFFFB795F
S1131E900F2B0AD93B79022B07D9054A044B1B683F
S1131EA023F0500343F0100313600837BD4680BD90
S1131EB0C0800C4080B400AF044B1B680133034A5C
S1131EC01360BD465DF8047B704700BF3C010020F1
S1131ED080B400AF0A4B1B78DBB2002B04D1094B52
S1131EE01B78DBB2002B01D0012300E0002303F0B8
S1131EF00103DBB21846BD465DF8047B704700BFA2
S1131F004E0100203001002080B400AF044B0022B9
S1131F101A70044B00221A70BD465DF8047B7047AA
S1131F204E0100203001002080B582B000AF0120B6
S1131F30FFF72EFF0B20FFF72BFF0E4B1B78DBB2B6
S1131F403B700D4B1B78DBB27B70FFF7DDFF01208C
S1131F50FFF706FF0B20FFF703FF3B88BB8000233E
S1131F603A7962F307037A7962F30F231846083744
S1131F70BD4680BD4E0100203001002080B483B0F6
S1131F8000AFB8803B79002B01D0002305E07B79BA
S1131F90002B01D0012300E0022318460C37BD4674
S1131FA05DF8047B704700BF80B400AF074A074B5D
S1131FB0D3F81431C2F81C31054B00221A70054BBA
S1131FC001221A70BD465DF8047B70470060004032
S1131FD04E0100203001002080B400AF074A074BB7
S1131FE0D3F81431C2F81C31054B01221A70054B89
S1131FF000221A70BD465DF8047B70470060004003
S11320004E0100203001002080B485B000AF78601C
S1132010074B1B68FB6000BF054B1A68FB68D21AAC
S11320207B689A42F8D31437BD465DF8047B704749
S11320303C01002080B586B000AF78603960002391
S1132040FB6000237B6100233B617A683B689A4212
S113205005DA7B687B613B6801333B6104E03B68E4
S113206001337B617B683B6101F0AEF8024639695C
S11320707B69CB1A92FBF3F103FB01F3D21A7B6960
S11320801344FB60FB6818461837BD4680BD00BF8B
S113209080B483B000AF114B00221A700F4B0122A1
S11320A05A700E4B02229A7000237B600DE00C4A9A
S11320B07B68FF2102F81310094A7B685B00134414
S11320C005225A707B6801337B607B68022BEEDD4E
S11320D00C37BD465DF8047B704700BF0C00002040
S11320E03401002080B483B000AF0E4B00221A707C
S11320F000237B600DE00C4A7B68FF2102F813107B
S1132100094A7B685B00134405225A707B680133DB
S11321107B607B68022BEEDD0C37BD465DF8047BEB
S1132120704700BF0C0000203401002080B500AFD0
S1132130044B00229A80034B9B88184600F0E2FD72
S113214080BD00BF0C00002080B58EB000AF012020
S11321500621FFF76FFF034687F83730002004217C
S1132160FFF768FF034687F83630934A97F837300D
S11321701370914A97F83630537007F10803002220
S11321801A60043300221A60043300221A600433F4
S113219000221A60043300221A60043300221A60F9
S11321A0043300221A60043397F93720930007F1AF
S11321B038010B4453F8303C591C930007F13802A2
S11321C0134443F8301C01233B63EEE00120062155
S11321D0FFF730FF034687F8373000200421FFF76C
S11321E029FF034687F8363006E001200621FFF771
S11321F021FF034687F8373097F937309B0007F102
S11322003802134453F8303C032BEED097F937309F
S11322109B0007F13802134453F8303C002B1CD1C7
S113222065493B6B97F8372001F81320624A3B6BF2
S11322305B00134497F836205A7097F937209300BF
S113224007F138010B4453F8303C591C930007F153
S11322503802134443F8301CA4E097F937309B004C
S113226007F13802134453F8303C012B3DD10023CD
S1132270FB6202E0FB6A0133FB624F4AFB6A12F81D
S1132280133097F937205BB29A42F3D106E000206D
S11322900421FFF7CFFE034687F83630464AFB6A2F
S11322A05B0013445B7897F936205BB29A42EED018
S11322B041493B6B97F8372001F813203E4A3B6BAA
S11322C05B00134497F836205A7097F9372093002F
S11322D007F138010B4453F8303C591C930007F1C3
S11322E03802134443F8301C5CE097F937309B0004
S11322F007F13802134453F8303C022B52D1002327
S1132300BB6200237B621BE02B4A7B6A12F813300A
S113231097F937205BB29A420FD1274A7B6A5B0058
S113232013445B785AB2BB6A9B0007F138010B4433
S113233043F8382CBB6A0133BB627B6A01337B628E
S11323407A6A3B6B9A42DFDB06E000200421FFF748
S113235071FE034687F8363097F936203B689A4277
S1132360F3D097F936207B689A42EED012493B6B42
S113237097F8372001F813200F4A3B6B5B00134496
S113238097F836205A7097F93720930007F13801EF
S11323900B4453F8303C591C930007F138021344A2
S11323A043F8301C3B6B01333B633B6B022B7FF7E1
S11323B00DAF3837BD4680BD3401002080B485B0F0
S11323C000AFB8803B795BB2FB607B795BB2BB60EA
S11323D0BB68042B41D801A252F823F0F12300007A
S11323E003240000252400003724000049240000B1
S11323F01C49FA6811F8123043F0010301F8123055
S11324002BE01849FA6811F8123043F0400301F840
S11324101230144AFB685B0013445A7842F00402F9
S11324205A701AE00F49FA6811F8123043F00803A1
S113243001F8123011E00B49FA6811F8123043F038
S1132440200301F8123008E00649FA6811F8123046
S113245043F0100301F8123000BF1437BD465DF895
S1132460047B70474001002080B582B000AF002398
S11324707B6007E0164A7B68002122F813107B6812
S113248001337B607B68062BF4DD124B1868FFF781
S113249095FF00233B6012E00F4A3B6812F81310CB
S11324A05B0013445B781B0243EA0102002362F3DE
S11324B00F031846FFF782FF3B6801333B603B681C
S11324C0022BE9DD024800F0DBFD0837BD4680BD84
S11324D0400100200C0000203401002080B483B0AF
S11324E000AF0346FB71FB79012B14D0022B25D0DE
S11324F0002B24D1144B9B78012B07D0022B01D045
S1132500002B07E0104B00229A7003E00E4B0222CE
S11325109A7000BF13E00C4B9B78012B0CD0022B5C
S113252006D0002B00D00AE0074B02229A7004E088
S1132530054B01229A7000E000BF00E000BF0C3799
S1132540BD465DF8047B70470C00002080B483B066
S113255000AF0346FB71644B9B78012B3BD0022BED
S11325606FD0002B40F0BB805F4B5B785BB2042BD9
S113257000F2B08001A252F823F000BF91250000C0
S1132580AB25000091250000C5250000CD250000E5
S1132590554B04225A70544B1B78DBB2DBB2013327
S11325A0DBB2DAB2504B1A7014E04F4B03225A706C
S11325B04D4B1B78DBB2DBB20133DBB2DAB24A4BF0
S11325C01A7007E0484B04225A7003E0464B03227A
S11325D05A7000BF7EE0444B5B785BB2042B7BD81F
S11325E001A252F823F000BFFD25000017260000C9
S11325F0FD25000031260000392600003A4B032255
S11326005A70394B1B78DBB2DBB20133DBB2DAB27E
S1132610354B1A7014E0344B04225A70324B1B7839
S1132620DBB2DBB20133DBB2DAB22F4B1A7007E054
S11326302D4B04225A7003E02B4B03225A7000BF27
S11326404AE0294B5B785BB2042B47D801A252F8CD
S113265023F000BF692600006926000069260000F7
S11326607D260000A72600001F4B1B78DBB2DBB2DF
S11326700133DBB2DAB21C4B1A7029E0FB79012B6F
S113268008D0022B0AD0002B00D021E0164B0122E7
S11326905A7007E0144B00225A7003E0124B0422D4
S11326A05A7000BF14E0FB79012B08D0022B0AD02A
S11326B0002B00D00BE00C4B02225A7007E00A4BAF
S11326C001225A7003E0084B03225A7000BF00BF76
S11326D000BF03E000BF02E000BF00E000BF0C3712
S11326E0BD465DF8047B70470C00002080B483B0C5
S11326F000AF00237B6019E0114B1978114A7B6805
S113270012F813304AB25BB29A420CD10C4B59788E
S11327100C4A7B685B0013445B784AB25BB29A4212
S113272001D1012306E07B6801337B607B68022BC7
S1132730E2DD002318460C37BD465DF8047B704784
S11327400C0000203401002080B584B000AF0346A3
S1132750FB710023FB600CE00A4AFB6852F823304B
S1132760DAB2FB791046194600F086FBFB680133A8
S1132770FB60044AFB6852F82330002BECD110377D
S1132780BD4680BD1400002080B588B002AF7860DB
S11327900B46FB70786800F083FD38617B6800931A
S11327A023486421234A7B6800F048FD224800F056
S11327B077FD02463B691344FB60FFF7A5FB00234A
S11327C07B6129E07B69FA68B3FBF2F2F96801FBEB
S11327D002F29B1A164A1344184808211A4600F0BC
S11327E02DFD164800F0E0FBFB78002B06D07B693A
S11327F003F00103002B01D1012300E0002303F0C7
S11328000103DBB21846FFF79FFF4FF47A70FFF71E
S1132810FBFB7B6901337B61FFF75AFB034683F0C3
S11328200103DBB2002BCDD11837BD4680BD00BFFC
S1132830B8000020D43A0000E03A00001C01002057
S113284080B582B000AF00237B6006E07868012188
S113285000F0D2F97B6801337B607B68072BF5DDE0
S113286007233B600AE04FF4C870FFF7CDFB3868DC
S1132870002100F0C1F93B68013B3B603B68002B41
S1132880F1DA0837BD4680BD80B400AF064B1B7833
S11328905BB2072B0CBF01230023DBB21846BD46F5
S11328A05DF8047B704700BF0C00002080B500AFCA
S11328B0054B9B8801339AB2034B9A80024B9B8849
S11328C0184600F01FFA80BD0C00002080B483B0CD
S11328D000AF0C4B9B881A466FF0130303FB02F303
S11328E003F5FA637B607B68B3F57A7F02D24FF419
S11328F07A737B607B6818460C37BD465DF8047BB1
S1132900704700BF0C00002080B584B002AFFFF711
S1132910B3FA002000F09AF94048FEF76FF9024636
S11329203F4BA3FB02239B091846FFF775FA0346A6
S1132930002B00D0FEE70520FEF748FC39480121B2
S1132940FEF7F4F80120092101220023FEF716FE08
S113295001200A2101220023FEF710FEFDF726FCC8
S1132960002300930123019301200921092201235B
S1132970FEF79AFD002300930123019301200A210D
S11329800A220123FEF790FD0120FFF7E9F90B204D
S1132990FFF7E6F924480021FFF7F6FEFFF7C6FB30
S11329A0FFF7A0FBFFF7C0FAFFF7CEFBFFF75CFDD4
S11329B0FFF746FFFFF78AFF03461846FFF724FB9D
S11329C0FFF7B2FA0346BB807868FFF7D7FA0346ED
S11329D0FB71FB791846FFF781FDFB791846FFF779
S11329E0B5FDFFF741FDFFF74FFF0346002B02D073
S11329F0FFF75CFFD4E7FFF779FE034683F001039A
S1132A00DBB2002BD6D1FFF743FB08480121FFF7C7
S1132A10BBFE0020FFF798FEC0E700BF5000020095
S1132A20D34D621000D20400E43A0000FC3A0000E6
S1132A3080B483B000AF0346FB71FB79002B03D055
S1132A40054B01221A6602E0034B00221A660C377A
S1132A50BD465DF8047B704700A0084080B483B095
S1132A6000AF786000BF054B5A6E7B681340002BA3
S1132A70F9D10C37BD465DF8047B704700A00840CF
S1132A8080B483B000AF78600549054B9A6A7B68CF
S1132A90DB4313408B620C37BD465DF8047B704703
S1132AA000A0084080B500AF002028490022FEF7AE
S1132AB08DFF012025490022FEF788FF02202349CB
S1132AC00022FEF783FF032020490022FEF77EFF49
S1132AD004201E490022FEF779FF05201B4900222D
S1132AE0FEF774FF062019490022FEF76FFF072046
S1132AF016490022FEF76AFF0020FF210022FFF79B
S1132B0023F80120FF210022FFF71EF80220FF21F5
S1132B100022FFF719F80320FF210022FFF714F821
S1132B200420FF210022FFF70FF80520FF210022D7
S1132B30FFF70AF80620FF210022FFF705F8072017
S1132B40FF210022FFF700F880BD00BF00F00FF066
S1132B5080B500AF072026490022FEF737FF062084
S1132B6024490022FEF732FF052022490022FEF705
S1132B702DFF04201F490022FEF728FF03201D49D2
S1132B800022FEF723FF02201A490022FEF71EFF4F
S1132B90012018490022FEF719FF00204FF02041C0
S1132BA00022FEF713FF072007210022FEF7CCFFC7
S1132BB0062007210022FEF7C7FF05200721002277
S1132BC0FEF7C2FF042007210022FEF7BDFF032009
S1132BD007210022FEF7B8FF022007210022FEF79A
S1132BE0B3FF012007210022FEF7AEFF00BF80BD26
S1132BF000E00F5000E00FF080B584B000AF7860C3
S1132C003960114A7B68134403F580739B79FB6038
S1132C100D4A7B68134403F584739B79BB603B685E
S1132C20002B07D0FA68BB68104619460122FEF74C
S1132C30DBFD06E0FA68BB68104619460022FEF781
S1132C40D3FD1037BD4680BD083B000080B582B07F
S1132C5000AF0346FB7125480121FDF767FF2448B7
S1132C600321FEF765F923484021FDF749FE0120C1
S1132C70FEF71CFB20480121FDF758FF4FF0FF3001
S1132C80FFF7FEFE1D48FEF731FD08200121FEF787
S1132C908BFD10200121FEF787FD80200121FEF726
S1132CA083FD4FF480700121FEF77EFD4FF4007028
S1132CB00121FEF779FDFB79002B0DD04FF4402064
S1132CC0FFF700F84FF48030FEF74CFD0C4A0C4B34
S1132CD0DB6F43F00803D367FFF7E4FE4FF0FF30E8
S1132CE0FFF7BCFE0837BD4680BD00BF00430200AD
S1132CF002001A006000260000362800E43D0000AF
S1132D0000800C4080B58AB000AF78607B6842F2E6
S1132D100E72934202DD42F20F737B607B6813F5FF
S1132D207A7F01DC3C4B7B607B68002B06DA786899
S1132D3000F0F8F978600123BB6101E00023BB6176
S1132D404FF0FF30FFF78AFE0120FFF771FE00F01D
S1132D506BF80123FB6100233B6254E07A68FB6952
S1132D6092FBF3F22D4B83FB02139910D317C91A6C
S1132D700B469B000B445B00D11A0B46FB82BB69DC
S1132D80012B04D13B6A032B01D11023FB82FB8A64
S1132D90234A32F81330BB8200237B6227E02149A7
S1132DA03A6A1346DB009B1A5B00CA187B6A134419
S1132DB0C033DB7A3B611B493A6A1346DB009B1A3A
S1132DC05B00CA187B6A1344C0331B79FB60BA8A60
S1132DD07B6A42FA03F303F00103002B04D0F86882
S1132DE039690122FEF700FD7B6A01337B627B6A4D
S1132DF0062BD4DDFA6913469B0013445B00FB6188
S1132E003B6A01333B623B6A032BA7DD0020FFF7DB
S1132E100FFE2837BD4680BD19FCFFFF6766666656
S1132E20C03D0000083B000080B500AF01207821C0
S1132E300022FEF789FE022078210022FEF784FE9C
S1132E40032078210022FEF77FFE0420782100224F
S1132E50FEF77AFE052078210022FEF775FE062093
S1132E6078210022FEF770FE072078210022FEF769
S1132E706BFE00BF80BD00BF80B584B000AF0346C9
S1132E803960FB710023FB600023BB60FB79102BCE
S1132E9079D801A252F823F0DD2E0000E72E0000BD
S1132EA0F12E0000FB2E0000052F00000F2F000064
S1132EB0192F0000232F00002D2F0000372F0000B2
S1132EC0412F00004B2F0000552F00005F2F000002
S1132ED0692F0000732F00007D2F00000123FB6089
S1132EE00C23BB604FE00023FB602023BB604AE05F
S1132EF00323FB602723BB6045E00223FB600C2314
S1132F00BB6040E00023FB601C23BB603BE0032369
S1132F10FB600C23BB6036E00423FB600C23BB6026
S1132F2031E00023FB601E23BB602CE00523FB6023
S1132F302723BB6027E00023FB602223BB6022E041
S1132F400023FB602323BB601DE00723FB600C23ED
S1132F50BB6018E00523FB600C23BB6013E0062371
S1132F60FB600C23BB600EE00723FB601D23BB60EA
S1132F7009E00723FB601F23BB6004E00423FB601C
S1132F802723BB6000BF3B68002B05D0F868B968F5
S1132F900122FEF729FC04E0F868B9680022FEF774
S1132FA023FC1037BD4680BD80B58AB000AF786081
S1132FB0786800F075F90346BB6100233B624FF06B
S1132FC0FF30FFF74BFD0120FFF732FDFFF7C0FD97
S1132FD000233B6246E03A6ABB699A4203DA7B68A3
S1132FE01B787B6201E020237B627B6A203B7B624F
S1132FF0214A7B6A32F81330FB820023FB6128E00C
S11330001E493A6A1346DB009B1A9B00CA18FB69E7
S1133010134408339B793B6118493A6A1346DB0031
S11330209B1A9B00FA6913440B441B78FB60FA8AD1
S1133030FB6942FA03F303F00103002B06D0FA689C
S11330403B69104619460122FEF7CEFBFB690133AA
S1133050FB61FB690D2BD3DD7B6801337B603B6A2D
S113306001333B623B6A062BB5DD0020FFF7E0FC31
S11330702837BD4680BD00BF083D0000083B000066
S113308080B586B000AF78604FF0FF30FFF7E6FC04
S11330900120FFF7CDFCFFF75BFD0023BB7536E095
S11330A00023FB752DE0BA7DF97D1D481346DB0036
S11330B09B1A9B0003440B4408339B793B61BA7D04
S11330C0F97D17481346DB009B1A9B000B4403440D
S11330D01B78FB60BB7D5B007A6813441B881A462F
S11330E0FB7D42FA03F303F00103002B06D0FA68D8
S11330F03B69104619460122FEF776FBFB7D01333E
S1133100FB75FB7D0D2BCED9BB7D0133BB75BB7D20
S1133110062BC5D90020FFF78BFC1837BD4680BDB0
S1133120083B00000028B8BF4042704708B5074B71
S1133130044613B10021AFF30080054B1868836A7D
S113314003B19847204600F0AFFC00BF0000000028
S1133150FC3D00000E4B70B51E460E4C0025E41AD3
S1133160A410A54204D056F8253098470135F8E755
S113317000F09CFC084B094C1E46E41AA4100025E0
S1133180A54204D056F8253098470135F8E770BDBC
S11331909000002090000020900000209400002067
S11331A010B5431E0A44914204D011F8014B03F8B0
S11331B0014FF8E710BD03460244934202D003F8DE
S11331C0011BFAE770470000194B10B51C68A36B8C
S11331D0D3B9182000F06CF843F20E33A0630380D7
S11331E04AF6CD33438041F2342383804EF26D633B
S11331F0C3804DF6EC630381052343810B23838154
S113320001220023C0E90423A16B0A4C0B6948691D
S11332105C43094A02FB0040A3FB0223013203443E
S113322043F10003C1E9042323F0004010BD00BFB3
S11332308C0000202DF451582D7F954C0CB430B5E2
S1133240164B0C1E9DB01D6804DA8B232B604FF0C7
S1133250FF301EE04FF40273ADF814300CBF234668
S113326004F1FF33049307934FF6FF730290069023
S1133270ADF81630284621AB02A9209A019300F03C
S113328013F9431CBCBF8B232B6014B1029B002297
S11332901A701DB0BDE8304002B070478C000020A9
S11332A0034613F8012B002AFBD1181A0138704782
S11332B0024B0146186800F047B800BF8C0000209C
S11332C030B500293CD051F8042C0B1F1D49002AAD
S11332D0B8BF9B180A680C4612B95A600B6030BD1F
S11332E093420DD219685818904201BF5A58521887
S11332F01A60426823605A6030BD994203D80A4676
S113330051680029F9D1146815199D420AD11B6826
S11333102344D0188842136012D108680344136010
S11333204B680CE002D90C23036030BD1C681819EB
S1133330884201BF086849680019186059605360E1
S113334030BD00BF2801002070B5CC1C24F003045C
S113335008340C2C38BF0C24002C064603DA0C234A
S11333603360002070BD8C42F9D3204A13681046A4
S11333701946A1B10A68121B0ED40B2A03D90A609C
S11333808B188C501FE08B420BBF5A684A6802604E
S11333905A6018BF0B4616E00B464968E9E7144D1E
S11333A02B681BB9304600F007FB286030462146E5
S11333B000F002FB421C0346D1D0C51C25F00305D6
S11333C085420AD11C6003F10B001A1D20F007008E
S11333D0821A0AD05142995070BD3046E91A00F061
S11333E0EBFA0130BBD02B46ECE770BD280100207E
S11333F0240100202DE9F0478E688246B3420C4632
S11334009046994640D38A8912F4906F3AD0256841
S1133410096902236F1A656905EB450595FBF3F508
S11334207B1C4B449D4238BF1D4653050FD529468E
S1133430FFF78AFF064698B121693A46FFF7B0FEC6
S1133440A38923F4906343F08003A38113E02A4605
S113345000F0EBFA064670B950462169FFF730FFD9
S11334600C23CAF80030A3894FF0FF3043F0400327
S1133470A381BDE8F08726613E4426604E4665611F
S1133480ED1BA560B14500D24E4632462068414648
S113349000F0B0FAA36800209B1BA36023681E44BD
S11334A02660BDE8F08700002DE9F0439DB003934A
S11334B08B8906461C060D4690460CD50B6953B9FC
S11334C04021FFF741FF2860286110B90C233360C5
S11334D0CCE040236B610023099320238DF829302D
S11334E030238DF82A3043461C4613F8012B1AB9B1
S11334F0B4EB08090FD002E0252AF5D1F8E73046ED
S1133500294642464B46FFF775FF013000F0A9807B
S1133510099B4B4409932378002B00F0A2800023DD
S11335204FF0FF3204930793059206938DF85330BE
S11335301A9304F101084446DFF84891217848467B
S1133540052200F049FA08F10108049B30B1C9EBE7
S113355000000122824013430493ECE7D80644BFE1
S113356020228DF85320190744BF2B228DF85320B5
S113357022782A2A02D0079923460EE0039A0134BE
S1133580111D12680391002ABBBF524243F002038B
S113359007920792B8BF04930AE01C4622780133CD
S11335A0303A092A03D80A2000FB0121F5E70791E4
S11335B023782E2B1AD163782A2B0AD1039B023449
S11335C01A1D1B680392002BB8BF4FF0FF330593FD
S11335D00CE0611C00220C4623780131303B092B9E
S11335E003D80A2000FB0232F5E70592DFF8988041
S11335F021784046032200F0EFF938B1049AC8EB71
S113360000004023834013430493013421781A4873
S1133610062204F101088DF8281000F0DDF988B1C4
S1133620164B33B9039B073323F007030833039383
S113363013E003AB0093304604A92A46104BAFF3C2
S1133640008007E003AB0093304604A92A460C4BE4
S113365000F092F8421C074603D0099B3B440993AF
S113366041E7AB895B0601D4099801E04FF0FF30D4
S11336701DB0BDE8F08300BF0A3E0000000000005A
S1133680F5330000003E0000063E00002DE9F8433B
S113369091461F468A680B6906469342B8BF134693
S11336A0C9F8003091F843200C46DDF8208012B1AF
S11336B00133C9F800302368990642BFD9F80030B5
S11336C00233C9F80030256815F006051CD094F8BB
S11336D043302268003318BF012392061FD5E11836
S11336E0302081F843005A1C94F8451022440233D8
S11336F082F8431013E03046394604F119020123DD
S1133700C047013007D00135E368D9F800209B1A7F
S11337109D42F0DBDBE74FF0FF30BDE8F883304635
S1133720394604F14302C0470130F4D02268D9F885
S11337300050E36802F00602042A08BF5D1B2269F8
S1133740A3680CBF25EAE57500259342C4BF9B1A04
S1133750ED184FF00009A9450ADA3046394604F15C
S11337601A020123C0470130D5D009F10109F2E75B
S11337700020BDE8F88300002DE9FF410C46174600
S1133780227E98466E2A06460A9B01F1430100F008
S1133790B08012D8632A23D00AD8002A00F0BD8052
S11337A0582A40F0CC8084F84520DFF804E257E042
S11337B0642A1ED0692A1CD0C1E0732A00F0B180AB
S11337C009D86F2A2ED0702A40F0B980226842F0BE
S11337D0200222603FE0752A24D0782A3BD0AEE054
S11337E01A6804F14205111D1960136884F8423007
S11337F0A9E020681A6810F0800F02D0101D18602C
S113380008E010F0400F02F10400186002D0B2F991
S1133810003000E01368002B3EDA2D225B4284F86E
S1133820432039E020681A6810F0800F02D0101D80
S1133830186007E010F0400F02F10400186001D096
S1133840138800E01368227EDFF864E16F2A0CBF5E
S113385008220A221CE07822DFF858E184F8452087
S11338602268186812F0800F00F104051D6003D16E
S1133870550601D5038800E00368D00744BF42F031
S1133880200222601BB9226822F02002226010224A
S1133890002084F8430002E0DFF814E10A2265689E
S11338A0002DA8BF2068A560A4BF20F004002060FC
S11338B003B965B10D46B3FBF2F002FB10331EF8F9
S11338C0033005F8013D03460028F4D100E00D461D
S11338D0082A0BD12368DA0708D5236962689A425B
S11338E0DEBF302305F8013C05F1FF35491B21619A
S11338F02EE025681A6815F0800F606903D0151D45
S11339001D60136808E015F0400F02F104051D6006
S1133910136801D0188000E01860002323610D466D
S113392016E01A68111D196015680021284662689E
S113393000F052F808B1401B6060636804E004F1D1
S1133940420584F8422001232361002384F8433094
S1133950CDF800803046214603AA3B46FFF796FE89
S1133960013002D14FF0FF301FE0304639462A467D
S11339702369C0470130F5D023689B0705D4E0686C
S1133980039B9842B8BF18460FE00025E368039AEA
S11339909B1A9D42F3DA3046394604F11902012399
S11339A0C0470130DED00135F0E704B0BDE8F08156
S11339B0113E0000223E000038B5064C00230546A7
S11339C00846236000F062F8431C02D1236803B167
S11339D02B6038BD5001002010B5C9B2024490429A
S11339E0034605D01C7801308C42F8D1184610BD2E
S11339F0002010BD814210B501EB020301D3421E29
S1133A000BE09842FBD28118D21AD34204D013F8A7
S1133A10014D01F8014DF8E710BD994204D011F8A9
S1133A20014B02F8014FF8E710BDF8B507461546FB
S1133A300E4621B91146BDE8F840FFF785BC1AB916
S1133A40FFF73EFC2846F8BD00F015F8A8420ED258
S1133A5038462946FFF778FC044650B131462A46D9
S1133A60FFF79EFB38463146FFF72AFC01E030465B
S1133A70F8BD2046F8BD51F8040C0028BEBF091853
S1133A8051F8043CC018043870470000044A054942
S1133A901368002B08BF0B46184410601846704783
S1133AA02C01002058010020FEE700BFF8B500BF3C
S1133AB0F8BC08BC9E467047F8B500BFF8BC08BC0B
S1133AC09E4670470400000002000000040000004D
S1133AD003000000202020257320202025730000EF
S1133AE02020200057454C434F4D4520205052453F
S1133AF0535320414E59204B4559000047414D45F1
S1133B00204F564552000000010105070703040237
S1133B100302040605060D0E0E0E0D0D0D0D0E0E00
S1133B200E0E0D0D0101050707030402030204062E
S1133B3005060F1010100F0F0F0F101010100F0F9D
S1133B400101050707030402030204060506111216
S1133B501212111111111212121211110101050781
S1133B6007030402030204060506131C1C1C13139A
S1133B7013131C1C1C1C131300010507060203016C
S1133B800302040604051D1E1E1E1D1D1D1D1E1EF2
S1133B901E1E1D1D00010507060203010302040683
S1133BA004051F2020201F1F1F1F202020201F1F4F
S1133BB00101050707030402030204060506212286
S1133BC02222212121212222222221210705020150
S1133BD003060423232323232323070502010306C7
S1133BE00424242424242424070502010306042590
S1133BF02525252525250705020103060426262655
S1133C002626262600010702062727272727000045
S1133C10000000000000131211100F0E0D0C000024
S1133C2000002125242601010304040203020D0ED1
S1133C300D0D0E0D0E0E01010304040203020F10FC
S1133C400F0F100F101001010304040203021112DC
S1133C501111121112120101030404020302131CB4
S1133C6013131C131C1C00010203040103021D1E78
S1133C701D1D1E1D1E1E00010203040103021F2040
S1133C801F1F201F2020010103040402030221221C
S1133C9021212221222205070704040605060E0E0F
S1133CA00D0D0E0E0D0D0507070404060506101074
S1133CB00F0F10100F0F0507070404060506121254
S1133CC011111212111105070704040605061C1C24
S1133CD013131C1C131305070603040604051E1EF8
S1133CE01D1D1E1E1D1D05070603040604052020B8
S1133CF01F1F20201F1F0507070404060506222294
S1133D002121222221210000000000118002000054
S1133D10000002060000200039000F0000004015DA
S1133D2000204004001000223F0006005B044F0402
S1133D3066046D047D0407007F046F040000000026
S1133D40000A000080200000FFFF7704790A390090
S1133D50B020790071007D04760406000E00700A1C
S1133D603800B602B6083F0073043F08730C6D04B4
S1133D7001113E0030223628802A6E0409223900BF
S1133D8080080F0001000800000158107C0458004E
S1133D905E04582071040C0C740404000E00700CB2
S1133DA03800541454045C04730467045004080C6D
S1133DB078001C0010201428802A0C0848200000D9
S1133DC03F0006005B004F0066006D007D000700A9
S1133DD07F006F0077007C0039005E00790071007D
S1133DE04000000001000000030040000C0000003F
S1133DF00000000000000000430000002C00002030
S1133E00232D302B2000686C4C00656667454647BF
S1133E100030313233343536373839414243444542
S1133E2046003031323334353637383961626364B1
S10B3E306566000000000000BB
S10B3E3800C3FF7F010000003C
S1133E40006CDC0200800000809FD50000010200AD
S1133E50000000000B0000000C0000000D0000003A
S1133E600E0000000F000000000000000000000031
S1133E70000000000000000000000000000000003E
S1133E80000000000000000000000000F83D0000F9
S1133E90000000000000000000000000000000001E
S1133EA0000000000000000000000000000000000E
S1133EB000000000000000000000000000000000FE
S1133EC00000000000000000000000002C000020A2
S10F3ED001010000DD0000000000000003
S9030209F1
