S012000062616D62695F68665F76322E733337B3
S113000000000220AD040000D9040000D90400005F
S1130010D9040000D9040000D9040000D904000068
S1130020D9040000D9040000D9040000D904000058
S1130030D9040000D9040000D9040000CD1F000039
S1130040D9040000D9040000D9040000D904000038
S1130050D9040000D9040000D9040000D904000028
S1130060D9040000D9040000D9040000D904000018
S1130070D9040000D9040000D9040000D904000008
S1130080D9040000D9040000D9040000D9040000F8
S1130090D9040000D9040000D9040000D9040000E8
S11300A0D9040000D9040000D9040000D9040000D8
S11300B0D9040000D9040000D9040000D9040000C8
S11300C0D9040000D9040000D9040000D9040000B8
S11300D0D9040000D9040000D904000010B5054C6F
S11300E0237833B9044B13B10448AFF300800123E0
S11300F0237010BD7800002000000000E8280000F4
S1130100084B10B51BB108480849AFF300800848F4
S1130110036803B910BD074B002BFBD0BDE81040AA
S1130120184700BF00000000E82800007C00002001
S11301307400002000000000154B002B08BF134B77
S11301409D46A3F5803A00218B460F461348144A76
S1130150121A02F09DFA0F4B002B00D098470E4B59
S1130160002B00D098470020002104000D000D480A
S1130170002802D00C48AFF3008002F063FA20009C
S1130180290002F085F802F049FA00BF00000800D7
S113019000000220000000000000000078000020A1
S11301A0A4000020000000000000000080B483B020
S11301B000AF03463960FB71FB79002B0DD0FB794E
S11301C0012B0AD0FB79022B07D0FB79032B04D037
S11301D0FB79042B01D0FB79052B0949FA793B689B
S11301E0012000FA03F318461346DB0013449B0076
S11301F00B44103358600C37BD465DF8047B7047E0
S11302000060004080B483B000AF03463960FB71E6
S1130210FB79002B0DD0FB79012B0AD0FB79022B43
S113022007D0FB79032B04D0FB79042B01D0FB7995
S1130230052B0949FA793B68012000FA03F31846B3
S11302401346DB0013449B000B44103318600C3737
S1130250BD465DF8047B70470060004080B582B005
S113026000AF1248012100F0B3FD1148012100F054
S1130270AFFD00237B6011E00E4A7B6812F8331057
S11302800C4A7B68DB0013445B6808461946042269
S1130290002301F031FA7B6801337B607B68012B1A
S11302A0EADD002318460837BD4680BD40810400BE
S11302B000D20400BC26000080B584B000AF786092
S11302C00023FB600123BB6025E07A68BB68134010
S11302D0002B0DD0144AFB6812F83310124AFB6845
S11302E0DB0013445B6808461946FFF78BFF0CE0FC
S11302F00D4AFB6812F833100B4AFB68DB00134409
S11303005B6808461946FFF751FFFB680133FB6041
S1130310BB685B00BB60FB68012BD6DD002318467D
S11303201037BD4680BD00BFBC26000080B582B03A
S113033000AF78607B68002B11DB7B68012B0EDC3F
S11303400A4A7B6812F83310084A7B68DB001344BE
S11303505B6808461946FFF755FF002301E04FF09C
S1130360FF3318460837BD4680BD00BFBC260000D9
S113037080B582B000AF394A384B5B6C43F400530C
S11303805364374A364BD3F8203143F00403C2F8A0
S11303902031334A324BD3F8203123F44073C2F86E
S11303A020312F4A2E4BD3F8B83023F47063C2F8AF
S11303B0B8302B4A2A4BD3F8B83043F48063C2F8E0
S11303C0B830264B10221A6200BF244BDB6A03F0BC
S11303D02003002BF9D0234A224B1B6843F001036E
S11303E01360204A1F4BDB6843F08073D3601E4BBD
S11303F01E4A1A601E4800F053FD034603F5D52338
S113040003F2FC437B607B68DB081A4AA2FB0323EC
S11304109B0A3B60184A3B68013B1361164B02225E
S1130420C3F8F020144B4FF48072C3F804234FF048
S11304306043124AC3F8B02F4FF06043104AC3F828
S1130440802E4FF060424FF06043D3F8003E43F0FB
S11304500103C2F8003E0837BD4680BD00800C4051
S113046000600040F0ED00E0001000E0FF130140E8
S113047006000C0017916502000004E055CEACC5DF
S11304800900010080B582B000AF4FF07E637B604D
S11304907B681B68002B01D1002302E0FFF768FF93
S11304A0012318460837BD4680BD00BF0648804773
S11304B00649074A074B9A42BEBF51F8040B42F85B
S11304C0040BF8E7FFF738FE59060000F428000093
S11304D00000002078000020FEE700BF80B400AFD9
S11304E0044BDB6C1B0EDBB21846BD465DF8047B87
S11304F0704700BFB081E00F80B582B000AF00F05C
S11305001FF87860074B5B6803F00F031A467B689B
S1130510D3407B60044A7B6813607B6818460837C5
S1130520BD4680BD00800C400800002080B400AFB0
S1130530024B1846BD465DF8047B7047006CDC0234
S113054080B582B000AF334BDB6A03F47053B3F56C
S1130550805F0AD0B3F5005F03D0B3F5006F08D015
S11305600BE02D4B1B687B6047E04FF400437B603E
S113057043E02A4B1B687B603FE0264BDB6803F4B7
S1130580E063B3F5007F1BD0B3F5007F05D8002BE3
S113059024D0B3F5807F16D02BE0B3F5806F09D05B
S11305A0B3F5A06F03D0B3F5407F06D021E01C4B18
S11305B07B6021E01B4B7B601EE01B4B7B601BE0E0
S11305C01A4B7B6018E0FFF789FF0346122B02D910
S11305D0174B7B6010E0174B7B600DE0FFF77EFF4D
S11305E00346122B02D9144B7B6005E0134B7B604E
S11305F002E000237B6000BF00BF064B1B6803F4CE
S1130600E0339B0B01337A68B2FBF3F318460837E7
S1130610BD4680BD00800C40040000200000002086
S1130620003FAB01406F4001809FD500C0D8A700B8
S113063040B56400C0CF6A00804F120040420F00F2
S113064080B400AF034B1B681846BD465DF8047BBD
S1130650704700BF0000002080B400AFBD465DF8C5
S1130660047B704780B400AF4FF400431846BD4686
S11306705DF8047B704700BF80B400AF4FF47A7319
S11306801846BD465DF8047B704700BF80B400AFD8
S1130690034B1B681846BD465DF8047B704700BFDA
S11306A00400002080B487B000AFF860B9607A60BD
S11306B0FB6803F10473DA00BB6813449B007B619D
S11306C07B697A681A601C37BD465DF8047B704705
S11306D080B485B000AF786039607B6803F104733F
S11306E0DA003B6813449B00FB60FB681B681846F8
S11306F01437BD465DF8047B704700BF80B485B0F5
S113070000AF78607B68002B04D07B68B3F5004FA2
S113071000D800BF7B68B3FA83F3C3F11F03FB6007
S1130720FB6818461437BD465DF8047B704700BF6C
S113073080B400AF044BDB6C1B0EDBB21846BD4625
S11307405DF8047B704700BFB081E00F80B400AF58
S1130750054BDB6C03F47F031B0CDBB21846BD4670
S11307605DF8047B704700BFB081E00F80B582B0B4
S113077000AFFFF7EBFF03464A2B04D0792B02D0DE
S1130780482B21D022E0144B1B699BB203F03F039A
S11307909BB21B02FB80104B9B6903F0F0039AB2DF
S11307A0FB881343FB800C4BDB6903F0F0031B094C
S11307B09AB2FB881343FB80FB88B3F5017F01D316
S11307C0064B04E0064B02E0054B00E0002318460C
S11307D00837BD4680BD00BFD0FF0FE000366E0174
S11307E00048E80180B584B000AF78600123FB6065
S11307F0FFF7BCFF02467B689A4204D30023FB60E8
S11308000023BB600BE0FFF7B1FF03465A007B688F
S11308109A4202D30123BB6001E00223BB60084873
S11308201E21FA68FFF73EFF0549054B5B6823F478
S11308308072BB681B0213434B601037BD4680BDFA
S113084000800C4080B582B000AF05481E21FFF740
S11308503FFF78607B6818460837BD4680BD00BFFF
S113086000800C4080B582B000AF214B5B6903F47B
S1130870E063B3F5007F1CD0B3F5007F05D8002BEF
S113088025D0B3F5807F1FD02AE0B3F5C06F24D004
S1130890B3F5E06F1ED0B3F5407F21D1FFF748FFD9
S11308A00346122B02D9134B7B601CE0124B7B6076
S11308B019E0FFF73DFF0346122B02D90F4B7B6073
S11308C011E00F4B7B600EE00E4B7B600BE00E4B98
S11308D07B6008E00D4B7B6005E00D4B7B6002E024
S11308E000237B6000BF7B6818460837BD4680BD87
S11308F000800C40804F120040420F0040B564005D
S1130900C0CF6A00C0D8A700809FD500406F4001C7
S1130910003FAB0180B582B000AF0D4800F0ACFBE6
S11309200346FB70FB78072B05D0092B07D1FFF793
S113093007FE786006E0FFF795FF786002E0002389
S11309407B6000BF7B6818460837BD4680BD00BF8A
S113095006000C0080B485B000AF78603960284B85
S1130960DB6B002B14BF01230023BB72244B41F625
S11309707132DA63224B5B6803F00703FB60FB68A8
S1130980012B01D9042B02D10023FB7202E00123C5
S1130990FB7200BF7B681B4A934207D9FB7A002B8A
S11309A001D0052300E00423FB6016E07B68154AB0
S11309B093420BD87B68144A934207D9FB7A002BE5
S11309C001D0032300E00123FB6006E0FB7A002B47
S11309D001D0022300E00023FB600949084B5B6857
S11309E023F00702FB6813434B60BB7A002B02D051
S11309F0034B0022DA631437BD465DF8047B70476D
S1130A0000000C400048E8010024F40080B500AF69
S1130A10FFF78CFD034618460021FFF79BFF80BDBE
S1130A2080B582B000AF7860396078683968FFF7C4
S1130A3091FF0837BD4680BD90B585B000AF7860A2
S1130A400023BB607B68344A934203D0334A934209
S1130A5000D000E000BF786800F00EFB0346FB60A6
S1130A607B682D4A934203D02C4A934206D00CE073
S1130A702B4B9B6A03F00303FB6006E0284B9B6A45
S1130A8003F00C039B08FB6000BFFB68032B3AD800
S1130A9001A252F823F000BFCF0A0000A90A000007
S1130AA0B10A0000B90A0000FFF7DCFDB8602DE0D0
S1130AB0FFF7ECFDB86029E0FFF71EFD0446FFF7E1
S1130AC0C1FE0346013324FA03F3BB601EE0002396
S1130AD0BB607B68104A934203D07B680F4A934201
S1130AE010D10F4B9A6A7B680B498B4201D11023BA
S1130AF000E0142322FA03F3002B03D0FFF7BCFD1C
S1130B00B86003E002E00023BB6000BFBB68184686
S1130B101437BD4690BD00BF02001A0003001C003C
S1130B2000800C4080B483B000AF7860094B5B6DEB
S1130B3003F00103002B00D006E000BF054B1A6D43
S1130B407B681340002BF9D10C37BD465DF8047B5C
S1130B50704700BF00800C4080B582B000AF1048E1
S1130B6000F08AFA0346FB70FB78032B07D0092BAD
S1130B7009D0022B0BD1FFF789FD78600AE0FFF75B
S1130B8071FD786006E0FFF7DBFC786002E000238B
S1130B907B6000BF7B6818460837BD4680BD00BF38
S1130BA007232200B0B584B000AF786039607B6859
S1130BB01B0903F00F03FB60FB68013B062B00F2EB
S1130BC0F48001A252F823F0E50B0000AB0D000005
S1130BD0AB0D00001B0C0000450C0000930C000042
S1130BE0570D00003B68002B03D03B68082B00D84E
S1130BF000BFFFF70BFF6F496E4B1B6823F4E03215
S1130C003B68013B9B0313430B60FFF775FCB86023
S1130C10B8680021FFF704FFC8E03B68002B04D04C
S1130C203B68B3F5007F00D800BF3868FFF766FD66
S1130C30386060495F4B9B6823F00F023B681343A5
S1130C408B60B3E03B68002B04D03B68B3F5007FB6
S1130C5000D800BFFFF7DAFEFFF772FC02463B68DC
S1130C60B2FBF3F31846FFF7BDFD3868FFF746FD06
S1130C70386050494F4B5B6823F00F023B681343C5
S1130C804B60FFF739FCB860B8680021FFF7C8FE75
S1130C908CE07B68484A93421ED0474A934203D86B
S1130CA0464A934207D055E0454A934225D0454AE7
S1130CB093423FD04EE00420FFF734FF3868FFF73B
S1130CC01DFD38603B493B4B9B6E23F0F0023B68B3
S1130CD01B0113438B663DE00420FFF723FF3868B4
S1130CE0FFF70CFD38603349324B9B6E23F470627E
S1130CF03B681B0213438B662CE03B680F2B03D924
S1130D003B68802B00D800BF0420FFF70BFF386836
S1130D10FFF7F4FC3860274D264B9B6E23F44054B8
S1130D201020FFF7EBFC02463B689B1A1B0323438E
S1130D30AB660FE00420FFF7F5FE3868FFF7DEFC32
S1130D4038601C491B4B9B6E23F003023B68134322
S1130D508B6600BF2AE07B681B4A934203D01B4A80
S1130D60934210D020E04020FFF7DCFE3868FFF704
S1130D70C5FC38600F490F4B1B6F23F003023B681F
S1130D8013430B6710E04020FFF7CCFE3868FFF7F1
S1130D90B5FC38600749074B1B6F23F030023B68F2
S1130DA01B0113430B6700BF00E000BF1037BD46B3
S1130DB0B0BD00BF00800C40602614006016100017
S1130DC06000260060062A007007160070171800DD
S1130DD080B586B000AF78600B46FB7000233B61A2
S1130DE07B681B0A03F00F03013B092B45D801A2C2
S1130DF052F823F0310E0000370E00001D0E0000E3
S1130E007B0E00007B0E00003D0E0000470E00002C
S1130E107B0E00007B0E0000510E0000194B7B611D
S1130E20194800F03DF803461846FFF7DBFC12E0D2
S1130E30164B7B610FE0164B7B610CE0154B7B611D
S1130E4001233B6107E0144B7B6110233B6102E00B
S1130E50124B7B6100BF7B681B0B03F01F03FB601D
S1130E603B69002B02D03869FFF75CFEFB78786998
S1130E70F9681A46FFF716FC00E000BF1837BD46B4
S1130E8080BD00BF40800C400043020008800C403D
S1130E9044800C4058800C4060800C4078800C40AA
S1130EA090B585B000AF78607B6803F47813B3F530
S1130EB0B01F00F0AB80B3F5B01F1AD8B3F5402FC4
S1130EC000F0BF80B3F5402F08D8B3F5003F3CD005
S1130ED0B3F5802F2DD0002B27D0BEE0B3F5801FB3
S1130EE03CD0B3F5A01F47D0B3F5602F00F0AD8020
S1130EF0B3E0B3F5081F00F0AC80B3F5081F0AD8BF
S1130F00B3F5D01F25D0B3F5E01F7AD0B3F5C01FD9
S1130F1000F08980A1E0B3F5201F4ED0B3F5281F5F
S1130F2062D0B3F5181F35D097E0FFF709FBF860DE
S1130F3096E0FFF705FBF8604C4B9B6803F00F034A
S1130F401A46FB68D340FB608AE0FFF7D5FAF860E5
S1130F5086E04748FFF770FDF86081E04448FFF7FA
S1130F606BFDF860414B9B6E03F0F0031B091A46BE
S1130F70FB68D340FB6073E03D48FFF75DFDF8601C
S1130F803A4B9B6E03F470631B0A1A46FB68D3400A
S1130F90FB6065E03648FFF74FFDF860334B9B6E0E
S1130FA003F440531C0B1020FFF7A8FB0346234413
S1130FB01A46FB68D340FB6052E02D48FFF73CFD26
S1130FC0F8602A4B9B6E03F440531B0B1A46FB68D4
S1130FD0D340FB60254BDB6F03F007030133FA6852
S1130FE0B2FBF3F3FB603BE02148FFF725FDF8601B
S1130FF01E4B9B6E03F003031A46FB68D340FB6051
S11310002EE01C48FFF718FDF86029E01948FFF7A7
S113101013FDF860154B1B6F03F003031A46FB68BE
S1131020D340FB601CE01348FFF706FDF8600F4B4C
S11310301B6F03F030031B091A46FB68D340FB60A7
S11310400EE0FFF767FCF8600AE0FFF70BFCF860BE
S113105006E0FFF781FDF86002E00023FB6000BFBB
S1131060FB6818461437BD4690BD00BF00800C4095
S113107002001A0003001C0080B485B000AF786041
S11310800123FB737B6803F00F03BB60BB68013B68
S1131090062B00F2938001A252F823F0B91000004D
S11310A0EF1000002B110000BD110000BD11000065
S11310B06711000089110000454BDB6A03F470538B
S11310C0B3F5805F09D0B3F5005F03D0B3F5006FCB
S11310D006D008E00223FB7308E00323FB7305E05A
S11310E00423FB7302E00523FB7300BF69E0384B64
S11310F09B6A03F00303022B06D0032B07D0012BBA
S113110008D10323FB730FE00223FB730CE00623D7
S1131110FB7309E02E4B9B6A03F48033002B02D04F
S11311200A23FB7300E000BF4BE0294B9B6A03F0EA
S11311300C03082B06D00C2B07D0042B08D1032357
S1131140FB730FE00223FB730CE00623FB7309E03F
S11311501F4B9B6A03F48013002B02D00A23FB73FA
S113116000E000BF2DE01A4B1B6803F08053002BF6
S113117003D0B3F1805F03D023E00723FB7302E0C5
S11311800923FB7300BF1CE0114BDB6A03F46033DB
S1131190B3F5803F08D0B3F5003F08D0B3F5004F56
S11311A008D10923FB7308E00223FB7305E0032342
S11311B0FB7302E00123FB7300BF02E00023FB7317
S11311C000BFFB7B18461437BD465DF8047B7047AF
S11311D000800C4080B588B000AF78600B46FB708F
S11311E00323FB610323FB7600233B617B6803F04D
S11311F00F03FB60FB68013B062B00F2288101A270
S113120052F823F021120000F7120000F712000038
S11312104F1400004F140000BD130000E71300003A
S1131220FB78023B082B00F2148101A252F823F050
S1131230551200005F12000069120000AB1200009A
S113124053140000531400005314000053140000FE
S1131250531400000423FB610023FB7631E00323D5
S1131260FB610123FB762CE00223FB610223FB7666
S1131270FFF77CFA034601331846FFF7B3FAFFF78A
S1131280DFF90246764B9A4206D9764A754B1B68BB
S113129043F06003136014E0724A724B1B6823F03E
S11312A0600343F0200313600BE00123FB6103237D
S11312B0FB76FFF75BFA034601331846FFF792FA11
S11312C000BFFB7E18460121012200F05FF9FFF701
S11312D09DFB644AFB6953626348FFF7E1FD0346E3
S11312E01846FFF77FFAFFF707F9B860B8680021DE
S11312F0FFF796FBB0E0FB78013B092B00F2AB80D3
S113130001A252F823F000BF31130000371300008C
S1131310471300005714000057140000571300002F
S113132057140000571400005714000073130000F2
S113133000237B6122E000200121012200F026F934
S113134002237B611AE001200121012200F01EF931
S113135001237B6112E0FFF7CFF8B860B868FFF7AC
S113136041FA424804210122FFF79CF903237B61DF
S113137004E000237B6101233B6100BFFB68022B77
S11313800DD13849374B9B6A23F4803323F0030390
S11313907A691A433B691B0413438B625CE031494D
S11313A0304B9B6A23F4801323F00C037A69920078
S11313B01A433B691B0513438B624DE0FB78072BF3
S11313C002D0092B07D047E0264A264B1B6823F09E
S11313D08053136006E0234A224B1B6843F080537A
S11313E0136000BF38E0FB78032B14D0092B22D004
S11313F0022B00D030E000200121012200F0C6F8C9
S1131400184B40225A6200BF164BDB6A03F4803348
S1131410002BF9D01AE001200121012200F0B6F8D6
S1131420104B60225A6200BF0E4BDB6A03F4003398
S1131430002BF9D00AE00B4B20225A6200BF094B63
S1131440DB6A03F40043002BF9D000BF04E000BFC3
S113145002E000BF00E000BF2037BD4680BD00BFF2
S11314600048E80100800C400043020040800C402A
S113147080B586B000AF0346FB71FB79052B5CD8C1
S113148001A252F823F000BFA1140000AB14000025
S1131490B9140000C7140000D1140000DB140000CC
S11314A0284BDB6ADBB27B611EE0264BDB6A03F46C
S11314B07F431B0A7B6117E0224BDB6A03F47F0343
S11314C01B0C7B6110E01F4BDB6A1B0E7B610BE086
S11314D01C4B1B6BDBB27B6106E01A4B1B6B03F4EA
S11314E07F431B0A7B6100BF1120FFF7C5FD034644
S11314F0FB74FB7C052B01D1FFF788FA1249124BD0
S1131500DB6823F4FF6323F00703FA7912021A431A
S11315107B691343CB60FB7C052B06D1FEF7ECFF04
S1131520F860F8680021FFF77BFA0848FFF7B8FC79
S113153003461846FFF756F900E000BF1837BD46CA
S113154080BD00BFB081E00F00800C40004302006A
S113155080B483B000AF78600B4B9B6D03F008033D
S1131560002B00D00BE07B6803F007037B60064987
S1131570054BDB6F23F007027B681343CB670C3703
S1131580BD465DF8047B704700800C4080B586B092
S113159000AF0346FB710B46BB7113467B71FB79AD
S11315A0042B48D801A252F823F000BFF91500001B
S11315B0EB150000CF150000C1150000DD1500007B
S11315C001233B610223FB6001237B611DE00423B3
S11315D03B610823FB6003237B6116E010233B611E
S11315E02023FB6005237B610FE040233B618023C4
S11315F0FB6007237B6108E04FF480733B614FF489
S11316000073FB6009237B6100BFBB79002B0ED004
S11316100B4A3B6913627B79002B0DD000BF09484C
S11316207969FFF755F80346002BF8D004E0044A23
S1131630FB68136200E000BF1837BD4680BD00BFE1
S113164000800C402C800C4080B483B000AF034673
S11316503960FB71FB79002B0DD0FB79012B0AD08B
S1131660FB79022B07D0FB79032B04D0FB79042BE5
S113167001D0FB79052B0949FA793B68012000FA6E
S113168003F318461346DB0013449B000B4410334A
S113169058600C37BD465DF8047B7047006000401D
S11316A080B483B000AF03463960FB71FB79002B33
S11316B00DD0FB79012B0AD0FB79022B07D0FB79E3
S11316C0032B04D0FB79042B01D0FB79052B0949AA
S11316D0FA793B68012000FA03F318461346DB004D
S11316E013449B000B44103318600C37BD465DF85F
S11316F0047B70470060004090B585B000AFB960CE
S11317007B600346FB731346BB73FB7B002B0DD03E
S1131710FB7B012B0AD0FB7B022B07D0FB7B032B2B
S113172004D0FB7B042B01D0FB7B052BBB7B002B64
S11317300DD07B68002B05D0FB7B1846B968FFF7FA
S1131740AFFF04E0FB7B1846B968FFF77DFFBB6879
S1131750072B1CD82A4CFA7B2948F97B0B46DB0063
S11317600B449B0003445968BB689B0018460F2335
S11317708340DB430B40B97BB86880008140194348
S11317801346DB0013449B002344596024E01C4CA3
S1131790FA7B1B48F97B0B46DB000B449B0003449C
S11317A008331968BB6803F18043083B9B00184663
S11317B00F238340DB431940B87BBB6803F18043AC
S11317C0083B9B0000FA03F319431346DB00134460
S11317D09B00234408331960BB7B002B0DD17B682D
S11317E0002B05D0FB7B1846B968FFF759FF04E0CE
S11317F0FB7B1846B968FFF727FF1437BD4690BD39
S11318000060004080B483B000AF0346FB71FB79F5
S1131810002B06D0084A084B1B6843F001031360F1
S113182005E0054A044B1B6823F0010313600C37E1
S1131830BD465DF8047B704700A0084080B487B0C3
S113184000AFF860B9607A60FB6803F10473DA00F2
S1131850BB6813449B007B617B697A681A601C3700
S1131860BD465DF8047B704780B584B000AF7860F6
S11318701A4B5B68FB600020FFF7C4FFFB6823F48E
S1131880830323F01F03FB607B685B68FA681343E0
S1131890FB607B681B7A1A46FB681343FB607B681A
S11318A05B7A1A46FB681343FB607B68DB68FA6863
S11318B01343FB607B681B8A1A46FB681343FB6077
S11318C0064AFB6853607B681B78002B02D001201A
S11318D0FFF798FF1037BD4680BD00BF00A0084049
S11318E080B485B000AF78600D4B5B68FB60FB682B
S11318F023F48033FB607B68002B08D0B3F5803F72
S113190000D005E0FB6843F48033FB6000E000BFD7
S1131910034AFB6853601437BD465DF8047B704787
S113192000A0084080B483B000AF03460A46FB80A1
S113193013467B717B79002B06D00949084B9A68C2
S1131940FB8813438B6006E00549054B9A68FB88C6
S1131950DB4313408B600C37BD465DF8047B704756
S113196000A0084080B584B000AFF860B9601346A9
S1131970FB71FB68072B00F2C38001A252F823F02D
S1131980A1190000CD190000F9190000251A000062
S1131990511A00007D1A0000A91A0000D51A00008F
S11319A0BB681F2B07DCBA68FB79574811461A46F7
S11319B0FFF744FFA5E0BB68203BBB60BA68FB7936
S11319C0524811461A46FFF739FF9AE0BB681F2BAD
S11319D007DCBA68FB794E4811461A46FFF72EFF1A
S11319E08FE0BB68203BBB60BA68FB79494811466D
S11319F01A46FFF723FF84E0BB681F2B07DCBA6895
S1131A00FB79454811461A46FFF718FF79E0BB6891
S1131A10203BBB60BA68FB79404811461A46FFF781
S1131A200DFF6EE0BB681F2B07DCBA68FB793C48EE
S1131A3011461A46FFF702FF63E0BB68203BBB6018
S1131A40BA68FB79374811461A46FFF7F7FE58E0A3
S1131A50BB681F2B07DCBA68FB79334811461A466A
S1131A60FFF7ECFE4DE0BB68203BBB60BA68FB7936
S1131A702E4811461A46FFF7E1FE42E0BB681F2BD1
S1131A8007DCBA68FB792A4811461A46FFF7D6FEE6
S1131A9037E0BB68203BBB60BA68FB792548114638
S1131AA01A46FFF7CBFE2CE0BB681F2B07DCBA6895
S1131AB0FB79214811461A46FFF7C0FE21E0BB68B6
S1131AC0203BBB60BA68FB791C4811461A46FFF7F5
S1131AD0B5FE16E0BB681F2B07DCBA68FB79184813
S1131AE011461A46FFF7AAFE0BE0BB68203BBB6019
S1131AF0BA68FB79134811461A46FFF79FFE00E0C7
S1131B0000BF1037BD4680BD40A0084050A008402B
S1131B1044A0084054A0084048A0084058A00840E9
S1131B204CA008405CA00840CCA00840B4A00840E9
S1131B30D0A00840B8A00840D4A00840BCA00840E9
S1131B40D8A00840C0A0084080B487B000AFF860B7
S1131B50B9607A60FB68072B00F2AC8001A252F8EE
S1131B6023F000BF851B0000A91B0000CD1B000053
S1131B70F11B0000151C00003D1C0000651C00004A
S1131B808D1C00004E4B1B6C7B61BB68DB437A6988
S1131B9013407B61BA687B6813407A6913437B61A5
S1131BA0474A7B69136486E0454B5B6C7B61BB6889
S1131BB0DB437A6913407B61BA687B6813407A69B6
S1131BC013437B613E4A7B69536474E03C4B9B6CDA
S1131BD07B61BB68DB437A6913407B61BA687B68CD
S1131BE013407A6913437B61354A7B69936462E0ED
S1131BF0334BDB6C7B61BB68DB437A6913407B61ED
S1131C00BA687B6813407A6913437B612C4A7B6909
S1131C10D36450E02A4BD3F8CC307B61BB68DB4300
S1131C207A6913407B61BA687B6813407A6913430D
S1131C307B61234A7B69C2F8CC303CE0204BD3F86B
S1131C40D0307B61BB68DB437A6913407B61BA683F
S1131C507B6813407A6913437B61194A7B69C2F834
S1131C60D03028E0164BD3F8D4307B61BB68DB431B
S1131C707A6913407B61BA687B6813407A691343BD
S1131C807B610F4A7B69C2F8D43014E00C4BD3F863
S1131C90D8307B61BB68DB437A6913407B61BA68E7
S1131CA07B6813407A6913437B61054A7B69C2F8F8
S1131CB0D83000E000BF1C37BD465DF8047B704798
S1131CC000A0084080B487B000AFF860B9607A60C3
S1131CD0FB68072B00F2AC8001A252F823F000BF8E
S1131CE0011D0000251D0000491D00006D1D0000A0
S1131CF0911D0000B91D0000E11D0000091E000037
S1131D004E4B1B6D7B61BB68DB437A6913407B617F
S1131D10BA687B6813407A6913437B61474A7B69DD
S1131D20136586E0454B5B6D7B61BB68DB437A6979
S1131D3013407B61BA687B6813407A6913437B6103
S1131D403E4A7B69536574E03C4B9B6D7B61BB6889
S1131D50DB437A6913407B61BA687B6813407A6914
S1131D6013437B61354A7B69936562E0334BDB6DDA
S1131D707B61BB68DB437A6913407B61BA687B682B
S1131D8013407A6913437B612C4A7B69D36550E025
S1131D902A4BD3F8B4307B61BB68DB437A691340C8
S1131DA07B61BA687B6813407A6913437B61234A79
S1131DB07B69C2F8B4303CE0204BD3F8B8307B6187
S1131DC0BB68DB437A6913407B61BA687B68134064
S1131DD07A6913437B61194A7B69C2F8B83028E0F9
S1131DE0164BD3F8BC307B61BB68DB437A69134084
S1131DF07B61BA687B6813407A6913437B610F4A3D
S1131E007B69C2F8BC3014E00C4BD3F8C0307B6162
S1131E10BB68DB437A6913407B61BA687B68134013
S1131E207A6913437B61054A7B69C2F8C03000E0DC
S1131E3000BF1C37BD465DF8047B704700A0084016
S1131E4080B483B000AF78600649064B5B6823F426
S1131E50E0127B6813434B600C37BD465DF8047B8E
S1131E60704700BF00A0084080B485B000AF786020
S1131E70194B5B69DBB203F00F03DBB29B00FB730E
S1131E80154B1B6903F0C0039B09DAB2FB7B1343B8
S1131E90FB737B68FA7B9A700F4B1B69DBB203F010
S1131EA03F03DAB27B685A700B4B9B69DBB223F0B9
S1131EB00F03FB73084BDB6903F0F0031B09DAB271
S1131EC0FB7B1343FB737B68FA7B1A701437BD46A4
S1131ED05DF8047B704700BFD0FF0FE080B483B08F
S1131EE000AF03463960FB7197F90730002B0BDA1A
S1131EF00D49FB7903F00F03043B3A68D2B2520157
S1131F00D2B20B441A7609E0084997F907303A68C7
S1131F10D2B25201D2B20B4483F800230C37BD462F
S1131F205DF8047B704700BF00ED00E000E100E0D5
S1131F3080B582B000AF78607B68013BB3F1807FED
S1131F4001D301230FE00A4A7B68013B53604FF041
S1131F50FF300721FFF7C2FF054B00229A60044BB4
S1131F6007221A60002318460837BD4680BD00BF0B
S1131F7010E000E080B400AF044BDB6C1B0EDBB25E
S1131F801846BD465DF8047B704700BFB081E00F82
S1131F9080B582B000AFFFF7EDFF0346FB713B1D38
S1131FA01846FFF761FFFB790F2B0AD93B79022B07
S1131FB007D9054A044B1B6823F0500343F0100370
S1131FC013600837BD4680BDC0800C4080B400AFAC
S1131FD0044B1B680133034A1360BD465DF8047B60
S1131FE0704700BFA000002080B485B000AF7860C7
S1131FF0074B1B68FB6000BF054B1A68FB68D21ACD
S11320007B689A42F8D31437BD465DF8047B704769
S1132010A000002080B500AF6420FFF7E5FF80BD7D
S113202080B586B000AF002000F04AFA0023FB75AB
S11320300EE0FB7D5B0007F118021344002223F835
S1132040142C3B1D184600F097FAFB7D0133FB75F9
S1132050FB7D062BEDD90023BB751DE000237B75AA
S113206014E0BB7D7A7D012101FA02F292B25B0099
S113207007F118010B4423F8142C3B1D184600F0FB
S11320807BFAFFF7C7FF7B7D01337B757B7D0E2BCE
S1132090E7D9BB7D0133BB75BB7D062BDED900239D
S11320A03B75F0E03B7D5B0007F11802134413F825
S11320B0142C42F0010203F8142C3B1D184600F0C6
S11320C05BFAFFF7A7FF3B7D5B0007F1180213449F
S11320D013F8142C42F0020203F8142C3B1D18468A
S11320E000F04AFAFFF796FF3B7D5B0007F1180208
S11320F0134413F8142C42F0040203F8142C3B1D6F
S1132100184600F039FAFFF785FF3B7D5B0007F1C5
S11321101802134413F8142C42F0080203F8142C88
S11321203B1D184600F028FAFFF774FF3B7D5B0067
S113213007F11802134413F8142C42F0100203F8A8
S1132140142C3B1D184600F017FAFFF763FF3B7D84
S11321505B0007F11802134413F8142C42F0200218
S113216003F8142C3B1D184600F006FAFFF752FF43
S11321703B7D5B0007F11802134413F8142C42F062
S1132180400203F8142C3B1D184600F0F5F9FFF744
S113219041FF3B7D5B0007F11802134413F8142C34
S11321A042F0800203F8142C3B1D184600F0E4F9B9
S11321B0FFF730FF3B7D5B0007F11802134413F86F
S11321C0132C42F0010203F8132C3B1D184600F0B7
S11321D0D3F9FFF71FFF3B7D5B0007F1180213449F
S11321E013F8132C42F0020203F8132C3B1D18467B
S11321F000F0C2F9FFF70EFF3B7D5B0007F1180208
S1132200134413F8132C42F0040203F8132C3B1D5F
S1132210184600F0B1F9FFF7FDFE3B7D5B0007F1C6
S11322201802134413F8132C42F0080203F8132C79
S11322303B1D184600F0A0F9FFF7ECFE3B7D5B0068
S113224007F11802134413F8132C42F0100203F898
S1132250132C3B1D184600F08FF9FFF7DBFE3B7D86
S11322605B0007F11802134413F8132C42F0200208
S113227003F8132C3B1D184600F07EF9FFF7CAFE45
S11322803B7D01333B753B7D062B7FF60BAFCDE6E3
S113229080B582B000AFFFF77BFEFEF7F3F8144879
S11322A0FEF7FEFD0246134BA3FB02239B091846CF
S11322B0FFF73EFE0346002B00D0FEE70520FFF7A4
S11322C0D7F8FDF7CBFF0020FEF730F8FFF7A8FEA4
S11322D00023FB71FB7903F003031846FDF7ECFFC1
S11322E04FF47A70FFF780FEFB790133FB71F1E75D
S11322F050000200D34D621080B483B000AF034697
S1132300FB71FB79002B03D0054B01221A6602E016
S1132310034B00221A660C37BD465DF8047B7047F8
S113232000A0084080B483B000AF786000BF054BC4
S11323305A6E7B681340002BF9D10C37BD465DF80B
S1132340047B704700A0084080B483B000AF78607D
S11323500549054B9A6A7B68DB4313408B620C3753
S1132360BD465DF8047B704700A0084080B500AF0F
S1132370002028490022FFF7E7FB0120254900221D
S1132380FFF7E2FB022023490022FFF7DDFB0320D5
S113239020490022FFF7D8FB04201E490022FFF742
S11323A0D3FB05201B490022FFF7CEFB0620194969
S11323B00022FFF7C9FB072016490022FFF7C4FBE0
S11323C00020FF210022FFF77DFC0120FF210022D5
S11323D0FFF778FC0220FF210022FFF773FC0320A3
S11323E0FF210022FFF76EFC0420FF210022FFF7EB
S11323F069FC0520FF210022FFF764FC0620FF2171
S11324000022FFF75FFC0720FF210022FFF75AFCA0
S113241080BD00BF00F00FF080B500AF0720264953
S11324200022FFF791FB062024490022FFF78CFBD2
S1132430052022490022FFF787FB04201F490022C0
S1132440FFF782FB03201D490022FFF77DFB0220DA
S11324501A490022FFF778FB012018490022FFF7F0
S113246073FB00204FF020410022FFF76DFB072093
S113247007210022FFF726FC062007210022FFF790
S113248021FC052007210022FFF71CFC0420072162
S11324900022FFF717FC032007210022FFF712FC9C
S11324A0022007210022FFF70DFC01200721002252
S11324B0FFF708FC00BF80BD00E00F5000E00FF004
S11324C080B582B000AF0346FB7125480121FEF7B9
S11324D07FFC24480321FEF77DFE23484021FEF7BC
S11324E061FB0120FFF734F820480121FEF770FC5E
S11324F04FF0FF30FFF728FF1D48FFF7B5F908201C
S11325000121FFF70FFA10200121FFF70BFA8020B9
S11325100121FFF707FA4FF480700121FFF702FA57
S11325204FF400700121FFF7FDF9FB79002B0DD06A
S11325304FF44020FFF784FC4FF48030FFF7D0F9CC
S11325400C4A0C4BDB6F43F00803D367FFF70EFF15
S11325504FF0FF30FFF7E6FE0837BD4680BD00BFF1
S11325600043020002001A00600026000036280022
S1132570CC28000000800C4080B586B000AF7860A5
S11325804FF0FF30FFF7CEFE0120FFF7B5FEFFF757
S113259043FF0023BB7536E00023FB752DE0BA7DB5
S11325A0F97D1D481346DB009B1A9B0003440B4432
S11325B008339B793B61BA7DF97D17481346DB00EC
S11325C09B1A9B000B4403441B78FB60BB7D5B00A0
S11325D07A6813441B881A46FB7D42FA03F303F01E
S11325E00103002B06D0FA683B6910461946012204
S11325F0FFF7B8F9FB7D0133FB75FB7D0D2BCED9BD
S1132600BB7D0133BB75BB7D062BC5D90020FFF70D
S113261073FE1837BD4680BDCC26000008B5074BB5
S1132620044613B10021AFF30080054B1868836A98
S113263003B19847204600F033F800BF00000000C3
S1132640E42800000E4B70B51E460E4C0025E41A1B
S1132650A410A54204D056F8253098470135F8E770
S113266000F020F8084B094C1E46E41AA41000257B
S1132670A54204D056F8253098470135F8E770BDD7
S11326806C0000206C0000206C0000207000002012
S113269003460244934202D003F8011BFAE7704751
S11326A0FEE700BFF8B500BFF8BC08BC9E46704703
S11326B0F8B500BFF8BC08BC9E4670470400000093
S11326C002000000040000000300000001010507EF
S11326D0070304020302040605060D0E0E0E0D0D7B
S11326E00D0D0E0E0E0E0D0D01010507070304025C
S11326F00302040605060F1010100F0F0F0F101021
S113270010100F0F0101050707030402030204065A
S113271005061112121211111111121212121111B5
S11327200101050707030402030204060506131C3E
S11327301C1C131313131C1C1C1C1313000105076E
S1132740060203010302040604051D1E1E1E1D1DB0
S11327501D1D1E1E1E1E1D1D000105070602030170
S11327600302040604051F2020201F1F1F1F202012
S113277020201F1F010105070703040203020406AA
S11327800506212222222121212122222222212165
S11327900705020103060423232323232323070518
S11327A0020103060424242424242424070502010A
S11327B003060425252525252525070502010306ED
S11327C00426262626262626000107020627272772
S11327D027270000000000000000131211100F0E44
S11327E00D0C00000000212524260101030404022D
S11327F003020D0E0D0D0E0D0E0E01010304040255
S113280003020F100F0F100F101001010304040234
S11328100302111211111211121201010304040214
S11328200302131C13131C131C1C000102030401D8
S113283003021D1E1D1D1E1D1E1E00010203040198
S113284003021F201F1F201F202001010304040274
S11328500302212221212221222205070704040642
S113286005060E0E0D0D0E0E0D0D050707040406CC
S1132870050610100F0F10100F0F050707040406AC
S1132880050612121111121211110507070404068C
S113289005061C1C13131C1C13130507060304064E
S11328A004051E1E1D1D1E1E1D1D05070603040610
S11328B0040520201F1F20201F1F050707040406EE
S11328C005062222212122222121000001000000EC
S11328D0030040000C0000000000000000000000A5
S10F28E0430000000C0000200000000079
S10B28EC4CD8FF7F010000003D
S11328F4006CDC0200800000809FD5000000000012
S113290400000000000000000000000000000000BF
S1132914000000000000000000000000E0280000A7
S1132924000000000000000000000000000000009F
S1132934000000000000000000000000000000008F
S1132944000000000000000000000000000000007F
S1132954000000000000000000000000010100006D
S10B2964DD000000000000008A
S90304AD4B
