:1000000000000220C9010000F5010000F501000018
:10001000F5010000F5010000F5010000F501000008
:10002000F5010000F5010000F5010000F5010000F8
:10003000F5010000F5010000F50100005910000075
:10004000F5010000BD100000F5010000F501000001
:10005000F5010000F5010000F5010000F5010000C8
:10006000F5010000F5010000F5010000E5100000B9
:10007000F5010000F5010000F5010000F5010000A8
:10008000F5010000F5010000F5010000F501000098
:10009000F5010000F5010000F5010000F501000088
:1000A000F5010000F5010000F5010000F501000078
:1000B000F5010000F5010000F5010000F501000068
:1000C000F5010000F5010000F5010000F501000058
:1000D000F5010000F5010000F501000010B5054C28
:1000E000237833B9044B13B10448AFF300800123E4
:1000F000237010BD7800002000000000802900005F
:1001000008B5034B1BB103490348AFF3008008BD9A
:10011000000000007C00002080290000154B002B0F
:1001200008BF134B9D46A3F5803A00218B460F462E
:100130001348144A121A01F0A4FD0F4B002B00D0F3
:1001400098470E4B002B00D0984700200021040058
:100150000D000D48002802D00C48AFF3008001F0DC
:1001600061FD2000290001F0F7F901F047FD00BF13
:100170000000080000000220000000000000000055
:100180007800002034010020000000000000000082
:1001900008B501210A4800F0D7FB0121094800F009
:1001A000D3FB042200231046022100F0AFFD0422FD
:1001B00000231046032100F0A9FD002008BD00BF68
:1001C0004081040000D20400064880470649074ADF
:1001D000074B9A42BEBF51F8040B42F8040BF8E7F4
:1001E000FFF79CFFF90200008C29000000000020AE
:1001F00078000020FEE700BF00487047006CDC027A
:10020000264AD36A03F47053B3F5805F24D0B3F564
:10021000005F1ED0B3F5006F11D0D36803F4E06324
:10022000B3F5007F37D01AD9B3F5806F31D0B3F56D
:10023000A06F2CD0B3F5407F1ED0002001E0184BFA
:100240001868164B1B68C3F382330133B0FBF3F01D
:100250007047144B1868F4E74FF40040F1E76BB1B6
:10026000B3F5807FE9D1104B1048DA6C104BB2F136
:10027000985F38BF1846E4E70E48E2E70A4B0E489D
:10028000DA6C0E4BB2F1985F38BF1846D9E70C48CC
:10029000D7E70C48D5E70C48D3E700BF00800C40F7
:1002A0000400002008000020B081E00F40B5640089
:1002B000C0CF6A00809FD500804F120040420F00DF
:1002C000003FAB01406F4001C0D8A70008B5FFF761
:1002D00097FF044B044A5B6803F00F03D84010609B
:1002E00008BD00BF00800C4000000020014B1868D2
:1002F000704700BF04000020704700BF4FF400406B
:10030000704700BF4FF47A70704700BF014B186808
:10031000704700BF08000020104BDB6CC3F307439D
:100320004A2B06D0792B04D0482B0D4818BF00204B
:1003300070470C490C480B698A69C9691B02C1F3F3
:10034000031103F47C530B4302F0F00204491343FE
:10035000B3F5017F38BF0846704700BFB081E00F9A
:100360000048E801D0FF0FE000366E0110B50446EA
:10037000FFF7D2FFA0420AD300210846094B0A4AE0
:100380001860536823F480730B43536010BDFFF76C
:10039000C3FFB4EB400F8CBF4FF400714FF480717A
:1003A0000120EBE77800904300800C40184B5B691C
:1003B00003F4E063B3F5007F20D00AD9B3F5C06F32
:1003C0000DD0B3F5E06F17D0B3F5407F09D0002012
:1003D00070477BB1B3F5807FF9D10E4870470E4866
:1003E00070470E4B0E48DA6C0E4BB2F1985F38BF77
:1003F000184670470C4870470C487047074B0C482C
:10040000DA6C0C4BB2F1985F38BF1846704700BFEA
:1004100000800C40C0D8A700003FAB01B081E00FC6
:10042000804F120040420F00809FD500406F400176
:1004300040B56400C0CF6A0041F67132194B10B468
:10044000DC6BDA635B6803F00703042B05D8012239
:1004500002FA03F313F0130F16D1134B984211D87D
:10046000124B134A034493428CBF022203220D49CC
:100470004B6823F0070313434B600CB10023CB639D
:1004800010BC70470522F2E7074B984201D90422BD
:10049000EDE7064B064A034493428CBF002201223B
:1004A000E5E700BF00000C400048E801FFDB0BFF60
:1004B000FF23F400C0F30313013B10B50C46082BD7
:1004C0001AD8DFE803F0311919761919435D1A00BB
:1004D000A3F5822398420FD1624B5A6DD00740F1A9
:1004E0009080B4FA84F45F4AC4F11F04936E23F041
:1004F000F00343EA0413936610BD5B4B98426AD045
:1005000003F504339842F7D1564B5A6DD1075BD5AA
:10051000B4FA84F4534AC4F11F04136F23F0300378
:1005200043EA0414146710BDFFF766FEFFF784FF6B
:100530004C4A013C136823F4E03343EA84341460EA
:10054000FFF7C4FEBDE81040FFF776BFFFF754FE8B
:10055000FFF772FFFFF754FEB0FBF4F0B4FA84F437
:10056000FFF704FF3F4BC4F11F015C6824F00F0448
:100570000C435C60FFF7AAFEBDE81040FFF75CBFCC
:100580003A4B984259D0A3D9394B984241D0394B74
:100590009842B1D1334B5A6DD00736D5B4FA84F4B2
:1005A000304AC4F11F04936E23F003032343936680
:1005B00010BDB1FA81F42B4BC4F11F019C6824F0EB
:1005C0000F040C439C6010BD1A6D5206A0D51A6D25
:1005D0005206F9D49CE7234B5A6DD2070AD5B4FAD8
:1005E00084F4204AC4F11F04136F23F00303234350
:1005F000136710BD1A6D5006F1D51A6D5006F9D467
:10060000EDE71A6D5107FCD46BE71A6D5107FCD466
:10061000C4E7144B5A6DD1070BD5B4FA84F4114AD0
:10062000C4F11B04936E23F4405343EA04339366EE
:1006300010BD1A6D5207FCD4EFE70A4B5A6DD20772
:100640000BD5B4FA84F4074AC4F11F04936E23F463
:10065000706343EA0423936610BD1A6D5007FCD4FF
:10066000EFE700BF00800C409007180080261600BE
:100670008000280080062C0000F00F0001380628BA
:1006800052D8DFE800F014243551514604002B4BBA
:10069000DB6A03F46033B3F5803F49D0B3F5003F24
:1006A00044D0B3F5004F0CBF092001207047234B05
:1006B000DB6A03F47053B3F5805F37D0B3F5005FA6
:1006C00036D0B3F5006F0CBF0420052070471B4BDC
:1006D000986A00F00300022829D003282AD00128B4
:1006E00024D09B6A13F4803F0CBF01200A2070477E
:1006F000124A936A03F00C03082B19D00C2B19D063
:10070000042B13D0936A13F4801F0CBF01200A201E
:1007100070470A4B1B6813F080530DD0B3F1805F14
:100720000CBF09200120704700207047032070474C
:1007300002207047062070470720704700800C4059
:1007400008B50146FFF798FF1D4B994217D01D4B86
:10075000994207D0022825D0032818D001281DD09F
:10076000002008BD184A936AC3F38103022B19D0F5
:10077000032B0CD0012B11D0906A14231AE0124ADB
:10078000936A03F00303022B0CD0032B0ED1FFF767
:100790009DFD0E4B1B680133D84008BDBDE80840E5
:1007A000FFF7ACBDBDE80840FFF7B0BD012BF5D0A9
:1007B0001023906AD840D4D0BDE80840FFF7A2BD0E
:1007C00002001C0003001E0000800C4078009043D3
:1007D00000F47810B0F5C01F08B576D00ED8B0F58B
:1007E000602F62D020D8B0F5003F5AD0B0F5802FEE
:1007F00000F0948000285FD0002008BDB0F5101FE5
:100800007ED01ED8B0F5E01F46D0B0F5F01F57D00F
:10081000B0F5D01FF0D14748FFF792FF464B1B6F52
:10082000C3F30113D84008BDB0F5901F1CD0B0F53C
:10083000B01F53D0B0F5801FDED1BDE80840FFF7F0
:10084000B5BDB0F5281F18D0B0F5301F4FD0B0F5AA
:10085000201FD1D13948FFF773FF374B9B6EC3F38D
:1008600001330433D84008BD3448FFF769FF324BE9
:100870009B6EC3F30313D84008BD3048FFF760FFF9
:100880002D4A936ED26FC3F3013302F00702D840B2
:100890000132B0FBF2F008BD2848BDE80840FFF780
:1008A0004FBFBDE80840FFF711BD2548FFF7E4FE44
:1008B0000728C2D009289FD1BDE80840FFF7A0BC97
:1008C0001C48BDE80840FFF73BBF1A48FFF738FF58
:1008D000194B1B6F03F00303D84008BD1748FFF7FF
:1008E0002FFF154B9B6EC3F30323D84008BD13485D
:1008F000FFF726FF104B9B6E03F00303D84008BDA3
:100900001048FFF7B9FE032810D00928D4D00228D8
:100910007FF472AFBDE80840FFF7F8BCFFF770FC4A
:10092000054B9B6803F00F03D84008BDBDE80840A5
:10093000FFF7E4BC03001E0000800C4002001C0016
:1009400006000E000723240030B5C0F30323013B4B
:1009500083B00446092B11D8DFE803F031241910C5
:1009600010052810102D0125C0F304341648174B2C
:100970005A6DD20704D50444A400216003B030BDF1
:100980001A6D2A42F7D01A6D2A42F9D1F3E71048BE
:100990000191FFF71DFFFFF7E9FCC4F304340D4894
:1009A0000199E8E7C0F304340B48E4E7C0F30434EA
:1009B00010250A48DBE7C0F304340948DBE7C0F33D
:1009C00004340848D7E700BFC002E41000800C40A0
:1009D000004302000002E4102002E4100003E410CF
:1009E000C003E4104000E41010B500F00F04631ED3
:1009F000062B15D8DFE803F050353514142B1500FD
:100A000001230021022C6B4800F0CA80826A1B057A
:100A100022F4801243EA810322F00C021343836222
:100A200010BD032945D009296CD00229F8D14FF413
:100A30008071604B604A19621368002BFCD05D4BDB
:100A400040211A465962D36AD803FCD510BD072944
:100A500029D00929E4D1574A136843F08053136021
:100A600010BD01390929DBD801A353F821F000BFDB
:100A70005D0B0000630B0000790B0000210A0000F1
:100A8000210A00008D0B0000210A0000210A00004D
:100A9000210A0000010A000002390329C0D8DFE85A
:100AA00001F017593950434A136823F080531360FB
:100AB00010BD40213F4B414A19621368002BFCD006
:100AC0003C4B60211A465962D36A9903FCD510BD8C
:100AD00004244FF48073384A36490B621368002BA4
:100AE000FCD0FFF789FBFFF7A7FC324B34485C6270
:100AF000FFF76EFEFFF73AFCFFF7E8FBBDE810409A
:100B0000FFF79ABC2B4B20211A465962D36A1B046B
:100B1000FCD510BDFFF700FC0130FFF727FCFFF705
:100B2000E5FB284B234998420B68274A96BF23F0E0
:100B3000600343F0600343F020030B6002240423AE
:100B4000CAE7FFF7E9FB01242044FFF70FFC234627
:100B50001E4AC1E7194A03244023BDE70023194672
:100B600050E74FF48071134B134A19621368002B3E
:100B7000FCD00023022145E740210E4B0F4A1962A9
:100B80001368002BFCD0002301213BE7FFF79EFBFD
:100B9000FFF7ECFB01210E4A00231160032131E72E
:100BA000826A22F4803222F003020A4342EA0343BB
:100BB000836210BD00800C40A40590439C059043C7
:100BC000004302000048E8018C05904384059043EF
:100BD0001008904338B505284ED8DFE800F01F23F1
:100BE000282D3103254B1D6BC5F307250446112025
:100BF000FFF742FD05284FEA042425D0204B214869
:100C0000D96821F4FF6121F0070121432943D9600C
:100C1000FFF7DEFDBDE83840FFF7A8BB174BDD6AE4
:100C2000EDB2E3E7154BDD6AC5F30725DEE7134BAD
:100C3000DD6AC5F30745D9E7104BDD6A2D0ED5E710
:100C40000E4B1D6BEDB2D1E7FFF7D6FAFFF7F4FBC1
:100C50000B4BD96821F4FF6121F00701214329439F
:100C6000D960FFF733FBFFF7E7FB0648FFF7B0FD5E
:100C7000BDE83840FFF77ABB38BD00BFB081E00F58
:100C800000800C4000430200054A936D1B0706D408
:100C9000D36F00F0070123F007000843D0677047C7
:100CA00000800C40F0B4072A9DF810609DF81450A5
:100CB0004FF007071DD9A2F10804DFF848C0A400CF
:100CC000DCF80010A74000FA04F421EA07002043F2
:100CD000CCF8000001200949094C114490408A00D9
:100CE0001360C2F88060C4F81C01C2F80051F0BC67
:100CF0007047DFF814C09400E2E700BF400883109B
:100D0000006000400461004000610040F0B492BB0C
:100D1000C4002518AD0007294FF00F0C05F18045E0
:100D200019D805F5C0456E688F000CFA07FC26EA55
:100D30000C0602FA07F73E436E6052B901220444E2
:100D4000A40004F1804402FA01F104F5C04403BB9D
:100D50006161F0BC704701F1804605F5C045083E71
:100D6000AF68B6000CFA06FC27EA0C0702FA06F692
:100D70003E43AE60E1E70126C4002518AD0005F151
:100D800080458E4005F5C0450BB12E61C1E76E610F
:100D9000BFE72161F0BC70470E4970B44A68C4686F
:100DA000436822F48302067A22F01F022343457A25
:100DB00013430C68028A33432B43057824F0010463
:100DC00013430C604B601DB10B6843F001030B60D3
:100DD00070BC704700A00840054BB0F5803F5B68D1
:100DE000034A23F4803308BF43F4803353607047D1
:100DF00000A00840044A936819B923EA00009060F3
:100E0000704718439060704700A0084007280BD82F
:100E1000DFE800F00B121A22293139041F293FDDC7
:100E2000224B0B449B001A6070471F2933DC204B78
:100E30000B449B001A6070471F29D4BF1D4B1E4BEB
:100E40000B449B001A6070471F29D4BF1B4B1C4BDF
:100E50000B449B001A6070471F291CDD194B0B4483
:100E60009B001A6070471F29D4BF174B174B0B44C8
:100E70009B001A6070471F29D4BF154B154B0B44BC
:100E80009B001A6070471F29D4BF134B134B0B44B0
:100E90009B001A607047124B0B449B001A6070470E
:100EA000104B0B449B001A60704700BFE005C51053
:100EB0000002C5102002C5108002C5104002C510F6
:100EC000A002C510C002C5106006C5108005C5107F
:100ED0008006C510A005C510A006C510C005C51028
:100EE0006002C510C006C51007280DD8DFE800F065
:100EF0000D141B2229323B041F4BD3F8D80042406B
:100F00000A404240C3F8D82070471B4B186C42403F
:100F10000A4042401A647047174B586C42400A40DE
:100F200042405A647047144B986C42400A40424019
:100F30009A647047104BD86C42400A404240DA64D1
:100F400070470D4BD3F8CC0042400A404240C3F8F2
:100F5000CC207047084BD3F8D00042400A404240B2
:100F6000C3F8D0207047044BD3F8D40042400A4065
:100F70004240C3F8D420704700A0084007280DD88D
:100F8000DFE800F00D141B2229323B041F4BD3F87D
:100F9000C00042400A404240C3F8C02070471B4B8B
:100FA000186D42400A4042401A657047174B586D11
:100FB00042400A4042405A657047144B986D424087
:100FC0000A4042409A657047104BD86D42400A4033
:100FD0004240DA6570470D4BD3F8B40042400A40F6
:100FE0004240C3F8B4207047084BD3F8B8004240E1
:100FF0000A404240C3F8B8207047044BD3F8BC0005
:1010000042400A404240C3F8BC20704700A008405C
:10101000034A536823F4E01318435060704700BF3D
:1010200000A008400B4A536911699B0003F03C0380
:10103000C1F381110B438370136903F03F034370C5
:101040009369D26903F0F003C2F3031213430370F0
:10105000704700BFD0FF0FE0024A136801331360EE
:10106000704700BF1C010020F0B40224104B82B076
:10107000C3F88040BFF34F8FBFF36F8F4FF4006111
:10108000C3F88010BFF34F8FBFF36F8F002210465D
:10109000084E094D96F800C02F786CF3070067F3EF
:1010A0000F2032702A701C60196002B0F0BC7047CB
:1010B00000E100E02E0100201201002030B40121E7
:1010C0000024054B0548D3F81451054AC3F81C51B8
:1010D0000470117030BC7047006000402E01002089
:1010E0001201002030B400210124054B0548D3F83B
:1010F0001451054AC3F81C510470117030BC70477C
:10110000006000402E010020120100202DE9F04F68
:101110008DB000F0BFFD614D012685FB0023A3EBE0
:10112000E07303EB4303A0EB43035C1C00F0B2FD50
:1011300000235B4FC21787FB00C1C2EB6102DFF8DF
:10114000648102EB82020CA901EB8401821ACDE9D1
:101150000533CDE90733CDE909330B9388F8004017
:1011600041F81C6C88F8012000F094FD85FB0023F9
:10117000A3EBE07303EB4303A0EB430303F101098B
:1011800000F088FD87FB00344FEA890B0CABC117D8
:101190005B44C1EB640153F81C3C01EB8101411A33
:1011A000032B4FFA89F94CB215D100F073FD85FB82
:1011B0000023A3EBE07303EB4303A0EB430303F132
:1011C00001094FEA890B0CAB5B4453F81C3C4FFA06
:1011D00089F9032BE9D07BB901210CAB03EB0B029E
:1011E00008EB460308F8169042F81C1C5C70022EAF
:1011F00030D10DB0BDE8F08F012B2DD0022BF6D1F0
:101200000023184618F9131008EB430C494503F165
:10121000010307D19CF901200CA901EB800141F8E1
:10122000242C0130B342EDD1DDE903A301930AE0A0
:1012300000F030FD87FB0034C317C3EB640303EBFE
:101240008303C31A5CB2A245F2D0019B9C42EFD04B
:101250000321C2E7022687E798F9001049451BD011
:1012600098F90210494518BF022308EB430A9AF97E
:101270000130A3420ED100F00DFD87FB0034C317EF
:10128000C3EB640303EB8303C31A9AF901105CB246
:10129000A142F0D00221A0E70023E6E7ABAAAA2AE8
:1012A000676666661401002040F3072382B040B2EF
:1012B000042B0BD8DFE803F00C15242D0300194A8A
:1012C00012F8103043F0100302F8103002B07047EB
:1012D000144A12F8103043F0010302F8103002B043
:1012E0007047104B13F8102003EB400142F040020E
:1012F00003F810204B7843F004034B7002B07047A2
:10130000084A12F8103043F0080302F8103002B017
:101310007047044A12F8103043F0200302F81030EE
:1013200002B070472001002038B50023114A124C4A
:10133000124D108823806380A380E3802381638122
:10134000A381FFF7B1FF2B78687843EA0020FFF70D
:10135000ABFFAB78E87843EA0020FFF7A5FF2B79D5
:10136000687943EA0020FFF79FFF2046BDE8384038
:1013700000F00EBC0C010020200100201401002010
:1013800048B1012806D1074B9A7842B1022A08BF1A
:10139000987070477047034B9A78012AF6D1022261
:1013A0009A7070470C010020264B9A78012A18D0B9
:1013B0000ED3022A08D193F90120042A07D8DFE8C6
:1013C00002F02525251F1900704702225A70704728
:1013D00093F90120042AFAD8DFE802F02822281F16
:1013E0001C0093F90120042AF1D8DFE802F0191F4C
:1013F0001916130001281FD0E7D302280AD070471E
:1014000001281CD018D3022807D070471A7801325F
:101410001A70704703225A70704704225A7070473E
:1014200003211A78597001321A70704704211A7812
:10143000597001321A70704701225A7070470022A9
:101440005A7070470C0100202DE9F04F83B08A4696
:10145000044600F087FC00F103084FEA480301331B
:10146000642B02D903B0BDE8F08F2346254A6421DE
:101470000094254800F042FC0023244A24491370BC
:101480000B701378002BEDD10B7803F0FF07002BC6
:10149000E8D156461F4DDFF88090B7FBF8F208FB05
:1014A0001272194B08211A44484600F027FC48469E
:1014B00000F02AFB06BBB3460C240B20DFF85CA02F
:1014C00002E020465AF8044BC0B2594600F004FB33
:1014D000002CF6D12A682B689B1AB3F57A7FFAD3D1
:1014E0000A4B01371B78002BBCD1094B1B78002B12
:1014F000D3D003B0BDE8F08F6FEA070B0BF0010B00
:10150000DAE700BFC42500009C0000202E01002067
:10151000120100201C0100209400002090250000F2
:1015200038B50024012120460C4400F0DBF9082CDA
:10153000F8D10725074C226823689B1AB3F5C87FAA
:10154000FAD328460021013D00F0CCF96B1CF2D102
:1015500038BD00BF1C01002001212DE9F04F7D4A5C
:101560007D4B116485B0DC6C03A8FFF75BFDB4F123
:10157000805F0AD39DF80C30022B06D9774A136896
:1015800023F0500343F010031360002000F0BAF979
:101590007348FFF71DF9734AA2FB00239B09013B27
:1015A000B3F1807F00D3FEE700240721E0266E4AD6
:1015B0006E4D5360052085F8236094601160FFF73D
:1015C00009FB01216A48FFF7BFF9012223461046B3
:1015D0000921FFF79BFB012223460A211046012522
:1015E000FFF794FBFEF7D4FD0922CDE90045114633
:1015F0002B462846FFF756FB0A22CDE90045114647
:101600002B462846FFF74EFB02204FF40062594B51
:101610002146186058481A60FFF716FFA046DFF809
:1016200064B1564CDFF860A1DFF860910020A4F8A7
:1016300004804FF4807700F0E1F90226FF220523B1
:1016400027808BF800208BF802208BF804208BF881
:1016500001308BF803308BF80530A6706FF0090568
:10166000FFF702FDFFF752FDFFF75EFEFFF758FFA1
:10167000A288DAF8001005FB02F202F5FA62B2F570
:101680007A7F38BF4FF47A72DAF800305B1A9342EF
:10169000FAD3FFF7E9FC10F0FF0FADF80C00C0F330
:1016A00007234CD1002B0CBF022101210846FFF774
:1016B00067FEFFF779FEFFF737FE94F90010072960
:1016C0003FD000231BF913200BEB43008A4294F90F
:1016D00001C003F1010309D0032BC9D01BF913206A
:1016E0000BEB43008A4203F10103F5D190F901208D
:1016F0006245F1D14FF48076FF220523022548464A
:1017000026800121A5708BF800208BF802208BF831
:1017100004208BF801308BF803308BF80530184E1D
:10172000FFF792FE0C250B2002E0284656F8045BDA
:10173000C0B2002100F0D0F9002DF6D176E70021EB
:10174000B4E7A38801339BB21846A38000F056F992
:1017500074E700BF00000C40B081E00FC0800C4077
:1017600070000200D34D621010E000E000ED00E0D8
:1017700000D2040000E100E0A02500000C010020E0
:1017800090250000140100201C010020B825000055
:10179000002210B5284C10462146FFF7A5FB214634
:1017A00000220120FFF7A0FB214600220220FFF7C4
:1017B0009BFB214600220320FFF796FB21460022D7
:1017C0000420FFF791FB214600220520FFF78CFB48
:1017D000214600220620FFF787FB21460022072032
:1017E000FFF782FB0022FF211046FFF7C7FB002214
:1017F000FF210120FFF7C2FB0022FF210220FFF79B
:10180000BDFB0022FF210320FFF7B8FB0022FF21D0
:101810000420FFF7B3FB0022FF210520FFF7AEFBFA
:101820000022FF210620FFF7A9FBBDE8104000229F
:10183000FF210720FFF7A2BB00F00FF010B5274CE7
:10184000002227490720FFF74FFB214600220620F0
:10185000FFF74AFB214600220520FFF745FB214602
:1018600000220420FFF740FB214600220320FFF75F
:101870003BFB214600220220FFF736FB21460022D7
:101880000120FFF731FB00224FF020411046FFF707
:101890002BFB072100220846FFF770FB00220721DF
:1018A0000620FFF76BFB002207210520FFF766FBF0
:1018B000002207210420FFF761FB002207210320FB
:1018C000FFF75CFB002207210220FFF757FBBDE872
:1018D0001040002207210120FFF750BB00E00FF06D
:1018E00000E00F500A46064B034493F8060193F8B4
:1018F0000E110AB9FFF78ABA0122FFF787BA00BFB3
:101900001027000010B5012104462248FFF71CF8FB
:1019100003212148FFF768F840212048FEF7CAFD5F
:101920000120FFF7B1F901211D48FFF70DF8002252
:101930001C4B1D48996A9A62FFF72EFA0121082074
:10194000FFF758FA01211020FFF754FA01218020F7
:10195000FFF750FA01214FF48070FFF74BFA012195
:101960004FF40070FFF746FA34B9FFF711FF0D4A44
:10197000536E002BFCD110BD4FF44020FFF748FB05
:101980004FF48030FFF728FA084AD36F43F008037A
:10199000D367EAE70043020002001C008000280031
:1019A00000362A0000A008403429000000800C40C6
:1019B00008B5002278210120FFF7E0FA0022782103
:1019C0000220FFF7DBFA002278210320FFF7D6FA86
:1019D000002278210420FFF7D1FA00227821052087
:1019E000FFF7CCFA002278210620FFF7C7FABDE8FE
:1019F0000840002278210720FFF7C0BA42F20E7398
:101A00002DE9F04F984283B008DC10F57A7F8146CB
:101A100051DC40F2E7390123019303E0002342F255
:101A20000F790193284B5E6E002EFCD101271F66B3
:101A3000FFF7BEFF07202321DFF89480DFF894B082
:101A400099FBF7F28BFB0234D317C3EBA40303EB30
:101A50008303A2EB4303019A12BB1C4A9BB232F8E8
:101A600013A04546002404E0072C0ED0297A15F86F
:101A7000010F4AFA04F313F0010F04F10104F3D04B
:101A80000122FFF7C3F9072CF0D10136042E0CD048
:101A900007EB870798F815107F0018F80E0FCFE7AF
:101AA000032EDAD14FF0400ADBE70022064B1A661C
:101AB00003B0BDE8F08F002802DAC0F10009AAE700
:101AC00000230193AEE700BF00A0084010290000EA
:101AD000D427000067666666102803460A4608D8C1
:101AE0000748084950F8230051F823102AB9FFF796
:101AF0008DB900210846002AF9D00122FFF786B9E6
:101B0000D0250000142600002DE9F84F824600F091
:101B100029F980461B4B5E6E002EFCD101241C6609
:101B2000FFF78CFE20460D21174FDFF86090B0457F
:101B3000C9BF1AF806304FF0000B203B39F813B03C
:101B40003D46002404E00E2C0ED0E97B15F8010F71
:101B50004BFA04F313F0010F04F10104F3D0012256
:101B6000FFF754F90E2CF0D10136072E04D097F868
:101B70002A1017F81C0FDAE70022024B1A66BDE89C
:101B8000F88F00BF00A00840102700005826000072
:101B90002DE9F041174A536E002BFCD10124064673
:101BA0001466FFF74BFE20460D21DFF84C8006F14E
:101BB0000E074546002404E00E2C0ED0E97B15F8F4
:101BC000010F3388234113F0010F04F10104F3D016
:101BD0000122FFF71BF90E2CF0D10236B74204D0D8
:101BE00098F82A1018F81C0FE3E70022014B1A6638
:101BF000BDE8F08100A008401027000008B5074BA1
:101C0000044613B10021AFF30080054B1868836AC6
:101C100003B19847204600F0A9FC00BF0000000077
:101C20004829000070B500250C4E0D4CA41BA410D3
:101C3000A54209D100F09CFC00250A4E0A4CA41BC9
:101C4000A410A54205D170BD56F82530984701353E
:101C5000EEE756F8253098470135F2E7700000208E
:101C600070000020700000207400002010B5431E9A
:101C70000A44914200D110BD11F8014B03F8014F05
:101C8000F7E703460244934200D1704703F8011B73
:101C9000F9E7000038B5134B1C68A36B7BB918201B
:101CA00000F068F8104A114BA063C0E90023104B04
:101CB000012283600B2383810023C0E90423A16BED
:101CC0000C480A694B6950430B4C04FB0300A2FB10
:101CD00004230344541C43F10005C1E9044525F0E5
:101CE000004038BD0C0000200E33CDAB34126DE641
:101CF000ECDE05002DF451582D7F954C0CB430B519
:101D0000174B0C1E9DB01D6808DA8B234FF0FF3077
:101D10002B601DB0BDE8304002B070474FF4027335
:101D2000ADF814300CBF234604F1FF33049307933E
:101D30004FF6FF7302900690ADF81630209A21AB53
:101D400002A92846019300F01DF9431CBCBF8B2358
:101D50002B60002CDDD00022029B1A70D9E700BF57
:101D60000C000020034613F8012B002AFBD1181A9F
:101D700001387047024B0146186800F04FB800BFA9
:101D80000C00002038B50546002943D051F8043C2A
:101D90000C1F002BB8BFE41800F0A9FB1E4A136803
:101DA000104633B9636014602846BDE8384000F03F
:101DB0009FBBA3420BD921686218934201BF1A68E6
:101DC0005B685218226063600460EDE713465A684E
:101DD0000AB1A242FAD919685818A0420BD120685A
:101DE0000144581882421960DED1106852680144DB
:101DF00019605A60D8E702D90C232B60D4E7206819
:101E000021188A4201BF1168526809182160626076
:101E10005C60C9E738BD00BF0001002070B5CD1C73
:101E200025F0030508350C2D38BF0C25002D06467E
:101E300001DBA94203D90C233360002070BD00F000
:101E400056FB214A1468214691B9204C23681BB9DE
:101E5000304600F015FB20602946304600F010FBAC
:101E6000431C24D10C233046336000F041FBE4E7EF
:101E70000B685B1B18D40B2B0FD90B60CC18CD5003
:101E8000304600F035FB04F10B00231D20F0070065
:101E9000C31AD3D05A42E250D0E74B688C4216BFE7
:101EA000636013600C46EBE70C464968CCE7C41C42
:101EB00024F00304A04205D0211A304600F0E0FAD5
:101EC0000130CFD02560DBE70001002004010020B5
:101ED0002DE9F0478E6882469E420C469046994610
:101EE00037D88A8912F4906F31D0022325680969A6
:101EF0006F1A656905EB450595FBF3F509F10103DB
:101F00003B449D4238BF1D46530530D52946FFF757
:101F100085FF064650B90C234FF0FF30CAF8003059
:101F2000A38943F04003A381BDE8F0873A462169C5
:101F3000FFF79CFEA38923F4906343F08003A38101
:101F400026613E4426604E466561ED1BA5604E4508
:101F500000D94E4632464146206800F0AFFAA368E9
:101F600000209B1BA36023681E442660DCE72A46F2
:101F700000F0BFFA06460028E2D121695046FFF77B
:101F800001FFC8E72DE9F04F9DB003938B89804690
:101F90001D060C4616460FD50B696BB94021FFF79D
:101FA0003DFF2060206128B90C23C8F800304FF0B5
:101FB000FF30C7E0402363610023099320238DF89D
:101FC000293030234FF0010B8DF82A3037463D463B
:101FD00015F8013B0BB1252B3ED1B7EB060A0BD010
:101FE0005346324621464046FFF772FF013000F06B
:101FF000A480099B534409933B78002B00F09D80FB
:1020000000234FF0FF32CDE90523049307938DF8A9
:1020100053301A932F46052217F8011B4F4800F042
:102020003FFA049BD0B9D90644BF20228DF8532033
:102030001A0744BF2B228DF853202A782A2A15D05C
:102040002F4600200A25079A394611F8013B303BFC
:10205000092B4DD9B8B10FE02F46B8E73F4A3D46AE
:10206000801A0BFA00F018430490D3E7039A111D6D
:1020700012680391002A01DB079204E0524243F008
:102080000203079204933B782E2B0CD17B782A2BEA
:1020900033D1039B02371A1D1B680392002BB8BF74
:1020A0004FF0FF3305932E4D03223978284600F078
:1020B000F7F938B14023401B03FA00F0049B0137C5
:1020C000034304933978062226487E1C8DF8281095
:1020D00000F0E6F9002838D0234B13BB039B0733ED
:1020E00023F0070308330393099B4B4409936DE7DF
:1020F00005FB023201200F46A6E700230A251946F8
:1021000001370593384610F8012B303A092A03D9D4
:10211000002BC8D00591C6E705FB01210123074626
:10212000F0E703AB00932246104B04A94046AFF3FF
:102130000080B0F1FF3F8146D6D1A3895B063FF511
:1021400036AF09981DB0BDE8F08F03AB009322466F
:10215000064B04A9404600F081F8EAE74C2900004C
:10216000522900005629000000000000D11E000086
:102170002DE9F04791461F468A680B69064693424F
:10218000B8BF1346C9F8003091F843200C46DDF87B
:10219000208012B10133C9F800302368990642BF8C
:1021A000D9F800300233C9F80030256815F006056B
:1021B00007D104F1190AE368D9F800209B1AAB4251
:1021C00029DC94F843302268003318BF01239206BB
:1021D0002ED404F1430239463046C047013021D0A5
:1021E0002368E56803F00603042B18BF0025D9F81F
:1021F00000204FF0000908BFAD1AA368226908BF8C
:1022000025EAE5759342C4BF9B1AED181A344D4573
:102210001AD1002008E00123524639463046C04713
:10222000013003D14FF0FF30BDE8F0870135C2E740
:102230003020E11881F843005A1C94F845102244DC
:10224000023382F84310C4E7012322463946304660
:10225000C0470130E6D009F10109D8E72DE9F04384
:1022600001F1430C0C46097E85B06E2917460646DF
:1022700098460C9A00F0B38022D8632936D00AD849
:10228000002900F0B980582900F0838004F142054C
:1022900084F8421032E0642901D06929F6D120681F
:1022A0001368050603F104012AD51B681160002B91
:1022B00003DA2D225B4284F843206F480A2239E07A
:1022C000732900F09D8008D86F2920D07029DDD1B6
:1022D000236843F02003236003E0752917D0782991
:1022E000D4D17823654884F8453055E0136804F16B
:1022F0004205191D1B68116084F8423001238CE0EF
:102300001B6810F0400F116018BF1BB2CFE71368B5
:102310002568181D1060280601D51B6802E06806B4
:10232000FBD51B886F2914BF0A22082252480021BE
:1023300084F843106568002DA560C0F2958021687F
:1023400021F004012160002B3DD1002D40F08E8052
:102350006546082A0BD12368DB0708D52369626824
:102360009A42DEBF302305F8013C05F1FF35ACEBA6
:1023700005032361CDF800803B4603AA2146304681
:10238000FFF7F6FE01304DD14FF0FF3005B0BDE84C
:10239000F083394884F84510136821681D1D1B68B7
:1023A00015600A060BD5CA0744BF41F02001216021
:1023B0001BB9226822F0200222601022B7E74D06E6
:1023C00048BF9BB2EFE76546B3FBF2F102FB113366
:1023D000C35C05F8013D0B460029F5D1B9E7136848
:1023E0002568181D6169106028061B6801D51960F1
:1023F00002E06A06FBD51980002365462361B9E730
:102400001368191D11601D6862680021284600F0DC
:1024100047F808B1401B606063682361002384F8BB
:102420004330A7E723692A4639463046C047013082
:10243000AAD023689B0713D4E068039B9842B8BFD7
:102440001846A3E701234A4639463046C0470130C3
:102450009AD00135E368039A9B1AAB42F2DCEBE7B2
:10246000002504F11909F5E7002BACD1037804F13C
:10247000420584F842306CE75D2900006E290000B7
:1024800038B50023054C05460846236000F060F887
:10249000431C02D1236803B12B6038BD30010020FA
:1024A00010B5C9B202449042034601D1002303E0B3
:1024B0001C7801308C42F6D1184610BD884210B508
:1024C00001EB020307D8421E99420AD011F8014BD2
:1024D00002F8014FF8E78342F5D98118D21AD342A6
:1024E00000D110BD13F8014D01F8014DF7E7704719
:1024F0007047F8B5074614460E4621B9BDE8F840C6
:102500001146FFF78BBC22B9FFF73CFC2546284655
:10251000F8BD00F014F8A0420FD221463846FFF76C
:102520007DFC05460028F2D031462246FFF79EFB8F
:1025300031463846FFF726FCE9E73546E7E751F82C
:10254000043C181F002BBCBF0B58C018704700007C
:10255000044A05491368002B08BF0B461844106055
:10256000184670470801002038010020FEE700BF30
:10257000F8B500BFF8BC08BC9E467047F8B500BF70
:10258000F8BC08BC9E4670470B0000000C00000021
:102590000D0000000E0000000F0000000000000011
:1025A00057454C434F4D45202050524553532041F1
:1025B0004E59204B4559000047414D45204F564547
:1025C00052000000202020257320202025730000C9
:1025D00001000000000000000300000002000000F5
:1025E00000000000030000000400000000000000E4
:1025F00005000000000000000000000007000000CF
:1026000005000000060000000700000007000000B1
:10261000040000000C000000200000002700000063
:102620000C0000001C0000000C0000000C0000006A
:102630001E00000027000000220000002300000010
:102640000C0000000C0000000C0000001D00000049
:102650001F000000270000000000001180020000A1
:10266000000002060000200039000F0000004015A5
:1026700000204004001000223F0006005B044F04CD
:1026800066046D047D0407007F046F0400000000F1
:10269000000A000080200000FFFF7704790A39005B
:1026A000B020790071007D04760406000E00700AE7
:1026B0003800B602B6083F0073043F08730C6D047F
:1026C00001113E0030223628802A6E04092239008A
:1026D00080080F0001000800000158107C04580019
:1026E0005E04582071040C0C740404000E00700C7D
:1026F0003800541454045C04730467045004080C38
:1027000078001C0010201428802A0C0848200000A3
:1027100001010507070304020302040605060D0E66
:102720000E0E0D0D0D0D0E0E0E0E0D0D01010507F9
:10273000070304020302040605060F1010100F0F12
:102740000F0F101010100F0F0101050707030402EF
:1027500003020406050611121212111111111212B0
:1027600012121111010105070703040203020406F6
:102770000506131C1C1C131313131C1C1C1C131305
:1027800000010507060203010302040604051D1EDD
:102790001E1E1D1D1D1D1E1E1E1E1D1D00010507CA
:1027A000060203010302040604051F2020201F1F48
:1027B0001F1F202020201F1F0101050707030402FF
:1027C00003020406050621222222212121212222A0
:1027D00022222121070502010306042323232323A8
:1027E000232307050201030604242424242424248B
:1027F00007050201030604252525252525250705AE
:1028000002010306042626262626262600010702A4
:1028100006272727272700000000000000001312CA
:1028200011100F0E0D0C00000000212524260101BF
:102830000304040203020D0E0D0D0E0D0E0E010118
:102840000304040203020F100F0F100F10100101F8
:1028500003040402030211121111121112120101D8
:10286000030404020302131C13131C131C1C000199
:102870000203040103021D1E1D1D1E1D1E1E00015C
:102880000203040103021F201F1F201F202001013B
:10289000030404020302212221212221222205070E
:1028A0000704040605060E0E0D0D0E0E0D0D050790
:1028B00007040406050610100F0F10100F0F050770
:1028C0000704040605061212111112121111050750
:1028D0000704040605061C1C13131C1C1313050710
:1028E0000603040604051E1E1D1D1E1E1D1D0507D4
:1028F00006030406040520201F1F20201F1F0507B4
:10290000070404060506222221212222212100009B
:102910003F0006005B004F0066006D007D00070071
:102920007F006F0077007C0039005E007900710045
:102930004000000001000000030040000C00000007
:10294000000000000000000010000020232D302BAC
:102950002000686C4C0065666745464700303132A0
:1029600033343536373839414243444546003031F7
:102970003233343536373839616263646566000056
:042980000000000053
:0829840098D7FF7F010000005D
:10298C00809FD500006CDC0200800000100000204D
:10299C00000000000000000000000000000000002B
:1029AC00000000000000000000000000000000001B
:1029BC00000000000000000000000000000000000B
:1029CC0000000000000000000000000000000000FB
:1029DC0000000000000000000000000000000000EB
:1029EC0000000000000000000000000000000000DB
:0829FC0001010000DD000000F4
:04000003000001C92F
:00000001FF
