S015000062616D62695F68665F66696E616C2E7333374E
S11300000000022091010000BD010000BD010000BC
S1130010BD010000BD010000BD010000BD010000E4
S1130020BD010000BD010000BD010000BD010000D4
S1130030BD010000BD010000BD0100004D31000004
S1130040BD010000592D0000BD010000BD010000EC
S1130050BD010000BD010000BD010000BD010000A4
S1130060BD010000BD010000BD010000892D00009C
S1130070BD010000BD010000BD010000BD01000084
S1130080BD010000BD010000BD010000BD01000074
S1130090BD010000BD010000BD010000BD01000064
S11300A0BD010000BD010000BD010000BD01000054
S11300B0BD010000BD010000BD010000BD01000044
S11300C0BD010000BD010000BD010000BD01000034
S11300D0BD010000BD010000BD01000010B5054CCC
S11300E0237833B9044B13B10448AFF300800123E0
S11300F0237010BD5401002000000000803E000069
S113010008B5034B1BB103490348AFF3008008BD96
S11301100000000058010020803E0000154B002B19
S113012008BF134B9D46A3F5803A00218B460F462A
S11301301348144A121A03F069F80F4B002B00D02D
S113014098470E4B002B00D0984700200021040054
S11301500D000D48002802D00C48AFF3008003F0D6
S113016031F82000290002F0BFFE03F017F800BFA9
S11301700000080000000220000000000000000051
S113018054010020100200200000000000000000C4
S1130190064880470649074A074B9A42BEBF51F8B2
S11301A0040B42F8040BF8E7FFF7B8FF350300002F
S11301B08C3E00000000002054010020FEE700BF38
S11301C080B400AF034BDB6C1B0EDBB21846BD469C
S11301D080BC7047B081E00F80B582B000AF00F002
S11301E01FF87860074B5B6803F00F037A6822FA04
S11301F003F37B60044A7B6813607B681846083706
S1130200BD4680BD00800C400800002080B400AFD3
S1130210024B1846BD4680BC704700BF006CDC0230
S113022080B582B000AF334BDB6A03F47053B3F58F
S1130230805F0AD0B3F5005F03D0B3F5006F08D038
S11302400BE02D4B1B687B6047E04FF400437B6061
S113025043E02A4B1B687B603FE0264BDB6803F4DA
S1130260E063B3F5007F1BD0B3F5007F05D8002B06
S113027024D0B3F5807F16D02BE0B3F5806F09D07E
S1130280B3F5A06F03D0B3F5407F06D021E01C4B3B
S11302907B6021E01B4B7B601EE01B4B7B601BE003
S11302A01A4B7B6018E0FFF78BFF0346122B02D931
S11302B0174B7B6010E0174B7B600DE0FFF780FF6E
S11302C00346122B02D9144B7B6005E0134B7B6071
S11302D002E000237B6000BF00BF064B1B689B0B42
S11302E003F0070301337A68B2FBF3F318460837C7
S11302F0BD4680BD00800C400400002000000020AA
S1130300003FAB01406F4001809FD500C0D8A700DB
S113031040B56400C0CF6A00804F120040420F0015
S113032080B400AF024B1B681846BD4680BC7047C2
S11303300000002080B400AF034B044A9A6000BF61
S1130340BD4680BC704700BF00ED00E00000000027
S113035080B400AF4FF400431846BD4680BC7047DC
S113036080B400AF4FF47A731846BD4680BC704722
S113037080B400AF024B1B681846BD4680BC704772
S11303800400002080B483B000AF0346FB71FB7906
S1130390002B03D0054B01221A6602E0034B002216
S11303A01A6600BF0C37BD4680BC704700A00840E9
S11303B080B483B000AF786000BF054B5A6E7B6891
S11303C01340002BF9D100BF0C37BD4680BC7047E9
S11303D000A0084080B483B000AF7860054B9A6AEF
S11303E07B68DB43034913408B6200BF0C37BD4677
S11303F080BC704700A0084080B500AF00222849A7
S1130400002001F0EFFD00222549012001F0EAFD62
S113041000222349022001F0E5FD002220490320A7
S113042001F0E0FD00221E49042001F0DBFD002262
S11304301B49052001F0D6FD00221949062001F0D0
S1130440D1FD00221649072001F0CCFD0022FF2136
S1130450002001F085FE0022FF21012001F080FE32
S11304600022FF21022001F07BFE0022FF21032055
S113047001F076FE0022FF21042001F071FE00222B
S1130480FF21052001F06CFE0022FF21062001F06F
S113049067FE0022FF21072001F062FE00BF80BD3D
S11304A000F00FF080B500AF00222649072001F0CC
S11304B099FD00222449062001F094FD00222249DE
S11304C0052001F08FFD00221F49042001F08AFD60
S11304D000221D49032001F085FD00221A49022053
S11304E001F080FD00221849012001F07BFD00226B
S11304F04FF02041002001F075FD00220721072064
S113050001F02EFE00220721062001F029FE002220
S11305100721052001F024FE00220721042001F018
S11305201FFE00220721032001F01AFE00220721EA
S1130530022001F015FE00220721012001F010FE27
S113054000BF80BD00E00F5000E00FF080B582B026
S113055000AF0346FB710121244800F0E9FD0321AB
S1130560234800F0E7FF4021224800F0CBFC0120A3
S113057001F0A0F90121204800F0DAFD4FF0FF302E
S1130580FFF728FF1D4801F0CBFB0121082001F0F3
S113059025FC0121102001F021FC0121802001F023
S11305A01DFC01214FF4807001F018FC01214FF46F
S11305B0007001F013FCFB79002B0DD04FF44020A8
S11305C001F08CFE4FF4803001F0E6FB0C4BDB6F46
S11305D00B4A43F00803D367FFF70EFF4FF0FF30D9
S11305E0FFF7E6FE00BF0837BD4680BD00430200AA
S11305F002001C008000280000362A00003E000093
S113060000800C4080B58AB000AF78607B6842F20D
S11306100E72934202DD42F20F737B607B6813F526
S11306207A7F01DC3D4B7B607B68002B06DA7868BF
S113063002F0B0FD78600123BB6101E00023BB61DF
S11306404FF0FF30FFF7B4FE0120FFF79BFE00F0F0
S11306506DF80123FB6100233B6254E07A68FB6977
S113066092FBF3F22E4B83FB02139910D317C91A92
S11306700B469B000B445B00D11A0B46FB82BB6903
S1130680012B04D13B6A032B01D11023FB82FB8A8B
S1130690244A32F81330BB8200237B6227E02249CC
S11306A03A6A1346DB009B1A5B00CA187B6A134440
S11306B0CB331B783B611C493A6A1346DB009B1A17
S11306C05B00CA187B6A1344C4331B78FB60BA8A84
S11306D07B6A42FA03F303F00103002B04D00122E6
S11306E03969F86801F09AFB7B6A01337B627B6AA3
S11306F0062BD4DDFA6913469B0013445B00FB61AF
S11307003B6A01333B623B6A032BA7DD0020FFF702
S113071039FE00BF2837BD4680BD00BF19FCFFFF6E
S113072067666666DC3D0000243B000080B500AFD0
S113073000227821012001F013FD002278210220FB
S113074001F00EFD00227821032001F009FD0022B2
S11307507821042001F004FD00227821052001F015
S1130760FFFC00227821062001F0FAFC0022782107
S1130770072001F0F5FC00BF80BD000080B584B007
S113078000AF03463960FB710023FB600023BB60AC
S1130790FB790E2B6BD801A252F823F0D907000085
S11307A0E3070000ED070000F70700000108000060
S11307B00B080000150800001F08000029080000AD
S11307C0330800003D0800004708000051080000FD
S11307D05B080000650800000123FB600C23BB607C
S11307E046E00023FB602023BB6041E00323FB6061
S11307F02723BB603CE00223FB600C23BB6037E093
S11308000023FB601C23BB6032E00323FB600C234A
S1130810BB602DE00423FB600C23BB6028E00023B5
S1130820FB601E23BB6023E00523FB602723BB6022
S11308301EE00023FB602223BB6019E00023FB6061
S11308402323BB6014E00723FB600C23BB600FE091
S11308500523FB600C23BB600AE00623FB600C232A
S1130860BB6005E00723FB601D23BB6000E000BF05
S11308703B68002B05D00122B968F86801F0CEFA74
S113088004E00022B968F86801F0C8FA00BF103724
S1130890BD4680BD80B58AB000AF7860786802F04C
S11308A025FD0346BB6100233B624FF0FF30FFF799
S11308B07FFD0120FFF766FDFFF7F4FD00233B6297
S11308C045E03A6ABB699A4203DA7B681B787B622B
S11308D001E020237B627B6A203B7B62214A7B6AA6
S11308E032F81330FB820023FB6127E01E493A6A89
S11308F01346DB009B1A9B00CA18FB6913440E3392
S11309001B783B6118493A6A1346DB009B1A9B002B
S1130910CA18FB6913441B78FB60FA8AFB6942FA24
S113092003F303F00103002B05D0FB6839690122AE
S1130930184601F073FAFB690133FB61FB690D2B67
S1130940D4DD7B6801337B603B6A01333B623B6AE5
S1130950062BB6DD0020FFF715FD00BF2837BD4686
S113096080BD00BF243D0000243B000080B584B05E
S113097000AF78603960114A7B68134403F58373D0
S11309801B78FB600D4A7B68134403F587731B785F
S1130990BB603B68002B06D0FB68B968012218468F
S11309A001F03CFA05E0FB68B9680022184601F042
S11309B035FA00BF1037BD4680BD00BF243B0000A0
S11309C080B487B000AFF860B9607A60FB6803F167
S11309D00473DA00BB6813449B007B617B697A680B
S11309E01A6000BF1C37BD4680BC704780B485B018
S11309F000AF786039607B6803F10473DA003B6808
S1130A0013449B00FB60FB681B6818461437BD4603
S1130A1080BC704780B485B000AF78607B68002BE1
S1130A2003D07B68B3F5004F00BF7B68B3FA83F350
S1130A30DBB2C3F11F03FB60FB6818461437BD46E5
S1130A4080BC704780B400AF034BDB6C1B0EDBB281
S1130A501846BD4680BC7047B081E00F80B400AF3B
S1130A60034BDB6C1B0CDBB21846BD4680BC7047E5
S1130A70B081E00F80B582B000AFFFF7EFFF03460F
S1130A804A2B04D0792B02D0482B23D024E0154BD9
S1130A901B699BB21B029BB203F47C53FB80114B7A
S1130AA09B691B091B0103F0F0039AB2FB881343F3
S1130AB0FB800C4BDB691B0903F00F039AB2FB8824
S1130AC01343FB80FB88B3F5017F01D3064B04E09D
S1130AD0064B02E0054B00E0002318460837BD46EC
S1130AE080BD00BFD0FF0FE000366E010048E80172
S1130AF080B584B000AF78600123FB60FFF7BAFFD4
S1130B0002467B68934204D80023FB600023BB6049
S1130B100BE0FFF7AFFF03465B007A689A4202D806
S1130B200123BB6001E00223BB60FA681E21084870
S1130B30FFF746FF064B5B6823F48072BB681B0219
S1130B40034913434B6000BF1037BD4680BD00BF4F
S1130B5000800C4080B582B000AF1E210448FFF72E
S1130B6045FF78607B6818460837BD4680BD00BFE6
S1130B7000800C4080B582B000AF214B5B6903F468
S1130B80E063B3F5007F1CD0B3F5007F05D8002BDC
S1130B9025D0B3F5807F1FD02AE0B3F5C06F24D0F1
S1130BA0B3F5E06F1ED0B3F5407F21D1FFF74AFFC4
S1130BB00346122B02D9134B7B601CE0124B7B6063
S1130BC019E0FFF73FFF0346122B02D90F4B7B605E
S1130BD011E00F4B7B600EE00E4B7B600BE00E4B85
S1130BE07B6008E00D4B7B6005E00D4B7B6002E011
S1130BF000237B6000BF7B6818460837BD4680BD74
S1130C0000800C40804F120040420F0040B5640049
S1130C10C0CF6A00C0D8A700809FD500406F4001B4
S1130C20003FAB0180B582B000AF0D4800F0D4FBAB
S1130C300346FB70FB78072B05D0092B07D1FFF780
S1130C40EFFA786006E0FFF795FF786002E0002392
S1130C507B6000BF7B6818460837BD4680BD00BF77
S1130C6006000E0080B485B000AF78603960204B78
S1130C705B6803F00703FB60FB68012B01D9042BBD
S1130C8002D10023FB7202E00123FB7200BF7B68E8
S1130C90184A934207D9FB7A002B01D0052300E0C0
S1130CA00423FB6016E07B68124A93420BD87B68EE
S1130CB0114A934207D9FB7A002B01D0032300E0A9
S1130CC00123FB6006E0FB7A002B01D0022300E045
S1130CD00023FB60064B5B6823F007020449FB68B2
S1130CE013434B6000BF1437BD4680BC704700BF40
S1130CF000000C400048E8010024F40080B582B0F4
S1130D0000AF0E4BDB6B002B14BF01230023FB71E0
S1130D100A4B41F67132DA63FFF778FA0346002191
S1130D201846FFF79FFFFB79002B02D0034B0022EC
S1130D30DA6300BF0837BD4680BD00BF00000C4029
S1130D4080B584B000AF786039600C4BDB6B002B4E
S1130D5014BF01230023FB73084B41F67132DA639D
S1130D6039687868FFF77EFFFB7B002B02D0034BCA
S1130D700022DA6300BF1037BD4680BD00000C407E
S1130D8090B585B000AF78600023BB607B68344ABF
S1130D90934203D0334A934200D000E000BF786806
S1130DA000F01AFB0346FB607B682D4A934203D094
S1130DB02C4A934206D00CE02B4B9B6A03F00303AE
S1130DC0FB6006E0284B9B6A9B0803F00303FB606F
S1130DD000BFFB68032B39D801A252F823F000BFEF
S1130DE0170E0000F10D0000F90D0000010E0000C7
S1130DF0FFF7AEFAB8602DE0FFF7BAFAB86029E061
S1130E00FFF7EAF90446FFF7A5FE0346013324FA87
S1130E1003F3BB601EE00023BB607B68104A93426F
S1130E2003D07B680F4A934213D10F4B9A6A7B68B5
S1130E300B498B4201D1102300E0142322FA03F35F
S1130E40002B06D0FFF78CFAB86002E00023BB60E9
S1130E5000E000BFBB6818461437BD4690BD00BF14
S1130E6002001C0003001E0000800C4080B483B00C
S1130E7000AF7860094B5B6D03F00103002B07D1D1
S1130E8000BF064B1A6D7B681340002BF9D100E0BC
S1130E9000BF0C37BD4680BC704700BF00800C40CB
S1130EA080B582B000AF104800F096FA0346FB709C
S1130EB0FB78032B07D0092B09D0022B0BD1FFF7AA
S1130EC057FA78600AE0FFF743FA786006E0FFF724
S1130ED0A7F9786002E000237B6000BF7B681846B6
S1130EE00837BD4680BD00BF0723240080B400AF8F
S1130EF000BFBD4680BC704780B400AF00BFBD4694
S1130F0080BC704790B585B000AF786039607B686D
S1130F101B0903F00F03FB60FB68013B082B00F285
S1130F20F48001A252F823F04D0F00000B110000D1
S1130F300B110000810F00000B1100000B110000C9
S1130F40A90F0000F50F0000B71000003B68002B4C
S1130F5002D03B68082B00BFFFF7D0FE6D4B1B6827
S1130F6023F4E0323B68013B9B036A4913430B6063
S1130F70FFF732F9B8600021B868FFF7E1FEC5E079
S1130F803B68002B03D03B68B3F5007F00BF386893
S1130F90FFF740FD38605F4B9B6823F00F025D490B
S1130FA03B6813438B60B1E03B68002B03D03B6884
S1130FB0B3F5007F00BFFFF7A1FEFFF731F902464A
S1130FC03B68B2FBF3F31846FFF792FD3868FFF76E
S1130FD021FD38604F4B5B6823F00F024D493B689D
S1130FE013434B60FFF7F8F8B8600021B868FFF7C7
S1130FF0A7FE8BE07B68484A93421ED0464A934240
S113100003D8464A934207D054E0454A934225D038
S1131010444A93423ED04DE00420FFF727FF38684E
S1131020FFF7F8FC38603B4B9B6E23F0F0023B6803
S11310301B01384913438B663CE00420FFF716FF7D
S11310403868FFF7E7FC3860324B9B6E23F470621C
S11310503B681B022F4913438B662BE03B680F2B25
S113106002D93B68802B00BF0420FFF7FFFE3868DD
S1131070FFF7D0FC3860274B9B6E23F440541020BC
S1131080FFF7C8FC02463B689B1A1B03214A234313
S113109093660FE00420FFF7E9FE3868FFF7BAFC17
S11310A038601C4B9B6E23F003021A493B681343C0
S11310B08B6600BF2AE07B681B4A934203D01B4A1D
S11310C0934210D020E04020FFF7D0FE3868FFF7AD
S11310D0A1FC38600F4B1B6F23F003020D493B68E2
S11310E013430B6710E04020FFF7C0FE3868FFF79A
S11310F091FC3860074B1B6F23F030023B681B01E7
S1131100044913430B6700BF00E000BF00BF14375E
S1131110BD4690BD00800C4080261600801612004B
S11311208000280080062C009007180090171A00F1
S113113080B586B000AF78600B46FB7000233B613E
S11311407B681B0A03F00F03013B092B45D801A25E
S113115052F823F091110000971100007D11000056
S1131160DB110000DB1100009D110000A71100003D
S1131170DB110000DB110000B1110000194B7B6191
S1131180194800F03DF803461846FFF7B1FC12E099
S1131190164B7B610FE0164B7B610CE0154B7B61BA
S11311A001233B6107E0144B7B6110233B6102E0A8
S11311B0124B7B6100BF7B681B0B03F01F03FB60BA
S11311C03B69002B02D03869FFF750FEFB781A46C2
S11311D0F9687869FFF7F4FB00E000BF1837BD46F3
S11311E080BD00BF40800C400043020008800C40DA
S11311F044800C4058800C4060800C4078800C4047
S113120090B585B000AF78607B6803F47813B3F5CC
S1131210C01F00F0AB80B3F5C01F1AD8B3F5602F20
S113122000F0BF80B3F5602F08D8B3F5003F3CD081
S1131230B3F5802F2DD0002B27D0BEE0B3F5901F3F
S11312403CD0B3F5B01F47D0B3F5801F00F0AD809C
S1131250B3E0B3F5101F00F0AC80B3F5101F0AD84B
S1131260B3F5E01F25D0B3F5F01F7AD0B3F5D01F46
S113127000F08980A1E0B3F5281F4ED0B3F5301FEC
S113128062D0B3F5201F35D097E0FEF7C9FFF860B0
S113129096E0FEF7C5FFF8604C4B9B6803F00F0324
S11312A0FA6822FA03F3FB608AE0FEF795FFF86020
S11312B086E04748FFF764FDF86081E04448FFF7A3
S11312C05FFDF860414B9B6E1B0903F00F03FA6846
S11312D022FA03F3FB6073E03D48FFF751FDF86029
S11312E03A4B9B6E1B0A03F00F03FA6822FA03F3CE
S11312F0FB6065E03648FFF743FDF860334B9B6EB7
S11313001B0B03F003041020FFF784FB0346234464
S1131310FA6822FA03F3FB6052E02D48FFF730FD30
S1131320F8602A4B9B6E1B0B03F00303FA6822FA46
S113133003F3FB60254BDB6F03F007030133FA680B
S1131340B2FBF3F3FB603BE02148FFF719FDF860C3
S11313501E4B9B6E03F00303FA6822FA03F3FB604F
S11313602EE01C48FFF70CFDF86029E01948FFF750
S113137007FDF860154B1B6F03F00303FA6822FAAC
S113138003F3FB601CE01348FFF7FAFCF8600F4B13
S11313901B6F1B0903F00303FA6822FA03F3FB60D3
S11313A00EE0FFF73FFCF8600AE0FFF7E3FBF860AC
S11313B006E0FFF775FDF86002E00023FB6000BF64
S11313C0FB6818461437BD4690BD00BF00800C4032
S11313D002001C0003001E0080B485B000AF7860DA
S11313E00123FB737B6803F00F03BB60BB68013B05
S11313F0062B00F2938001A252F823F01914000086
S11314004F1400008B1400001D1500001D15000072
S1131410C7140000E9140000454BDB6A03F4705361
S1131420B3F5805F09D0B3F5005F03D0B3F5006F67
S113143006D008E00223FB7308E00323FB7305E0F6
S11314400423FB7302E00523FB7300BF69E0384B00
S11314509B6A03F00303022B06D0032B07D0012B56
S113146008D10323FB730FE00223FB730CE0062374
S1131470FB7309E02E4B9B6A03F48033002B02D0EC
S11314800A23FB7300E000BF4BE0294B9B6A03F087
S11314900C03082B06D00C2B07D0042B08D10323F4
S11314A0FB730FE00223FB730CE00623FB7309E0DC
S11314B01F4B9B6A03F48013002B02D00A23FB7397
S11314C000E000BF2DE01A4B1B6803F08053002B93
S11314D003D0B3F1805F03D023E00723FB7302E062
S11314E00923FB7300BF1CE0114BDB6A03F4603378
S11314F0B3F5803F08D0B3F5003F08D0B3F5004FF3
S113150008D10923FB7308E00223FB7305E00323DE
S1131510FB7302E00123FB7300BF02E00023FB73B3
S113152000BFFB7B18461437BD4680BC704700BF24
S113153000800C4080B588B000AF78600B46FB702B
S11315400323FB610323FB7600233B617B6803F0E9
S11315500F03FB60FB68013B062B00F22C8101A208
S113156052F823F0811500005F1600005F1600009A
S1131570B7170000B7170000251700004F17000029
S1131580FB78023B082B00F2188101A252F823F0E9
S1131590B5150000BF150000C91500000B160000AA
S11315A0BB170000BB170000BB170000BB170000EF
S11315B0BB1700000423FB610023FB7631E0032307
S11315C0FB610123FB762CE00223FB610223FB7603
S11315D0FFF750FA034601331846FFF789FAFEF77E
S11315E09FFE0246784B9A4206D9784B1B68774A8D
S11315F043F06003136014E0744B1B6823F0600332
S1131600724A43F0200313600BE00123FB610323C0
S1131610FB76FFF72FFA034601331846FFF768FA03
S113162000BFFB7E01220121184600F061F9FFF79B
S113163065FBFFF75BFC654AFB6953626448FFF78F
S1131640DFFD03461846FFF753FAFEF7C5FDB86001
S11316500021B868FFF774FBFFF74EFCB0E0FB789D
S1131660013B092B00F2AB8001A252F823F000BF2A
S1131670991600009F160000AF160000BF17000067
S1131680BF170000BF160000BF170000BF170000FF
S1131690BF170000DB16000000237B6122E001225B
S11316A00121002000F024F902237B611AE00122C9
S11316B00121012000F01CF901237B6112E0FEF7F7
S11316C08BFDB860B868FFF713FA01220421414882
S11316D0FFF776F903237B6104E000237B61012398
S11316E03B6100BFFB68022B0DD1384B9B6A23F48E
S11316F0803323F003037A691A433B691B0433499B
S113170013438B625CE0314B9B6A23F4801323F018
S11317100C037A6992001A433B691B052B49134356
S11317208B624DE0FB78072B02D0092B07D047E0F2
S1131730264B1B68254A23F08053136006E0234B95
S11317401B68224A43F08053136000BF38E0FB78E3
S1131750032B14D0092B22D0022B00D030E001221D
S11317600121002000F0C4F8184B40225A6200BF47
S1131770164BDB6A03F48033002BF9D01AE0012204
S11317800121012000F0B4F8104B60225A6200BF1E
S11317900E4BDB6A03F40033002BF9D00AE00B4B49
S11317A020225A6200BF094BDB6A03F40043002B7A
S11317B0F9D000BF04E000BF02E000BF00E000BFBA
S11317C02037BD4680BD00BF0048E80100800C40C2
S11317D00043020040800C4080B586B000AF034651
S11317E0FB71FB79052B5AD801A252F823F000BFF4
S11317F009180000131800001F1800002B1800001F
S11318003718000041180000274BDB6ADBB27B610C
S11318101CE0254BDB6A1B0ADBB27B6116E0224B22
S1131820DB6A1B0CDBB27B6110E01F4BDB6A1B0E17
S1131830DBB27B610AE01C4B1B6BDBB27B6105E016
S1131840194B1B6B1B0ADBB27B6100BF1120FFF736
S1131850C3FD0346FB74FB7C052B01D1FFF74EFA55
S1131860124BDB6823F4FF6323F00703FA791202B7
S11318701A430E497B691343CB60FB7C052B06D1CD
S1131880FEF7AAFCF8600021F868FFF759FA084847
S1131890FFF7B6FC03461846FFF72AF900E000BF3D
S11318A01837BD4680BD00BFB081E00F00800C40FA
S11318B00043020080B483B000AF78600B4B9B6D93
S11318C003F00803002B0CD17B6803F007037B6053
S11318D0064BDB6F23F0070204497B681343CB6795
S11318E000E000BF0C37BD4680BC704700800C4050
S11318F080B586B000AF0346FB710B46BB7113463F
S11319007B71FB79042B48D801A252F823F000BF65
S11319105D1900004F19000033190000251900005B
S11319204119000001233B610223FB6001237B6119
S11319301DE004233B610823FB6003237B6116E065
S113194010233B612023FB6005237B610FE04023D0
S11319503B618023FB6007237B6108E04FF48073C5
S11319603B614FF40073FB6009237B6100BFBB79CB
S1131970002B0ED00B4A3B6913627B79002B0DD0F0
S113198000BF79690848FFF731F80346002BF8D007
S113199004E0044AFB68136200E000BF1837BD4648
S11319A080BD00BF00800C402C800C4080B487B008
S11319B000AFF860B9607A60FB6803F10473DA0081
S11319C0BB6813449B007B617B697A681A6000BF23
S11319D01C37BD4680BC704780B485B000AFF8604A
S11319E0B9607A60FB681A68BB68DB431A407B689D
S11319F01A43FB681A6000BF1437BD4680BC7047A9
S1131A0080B483B000AF7860044A7B68C2F81C31AC
S1131A1000BF0C37BD4680BC704700BF006000406B
S1131A2080B483B000AF03463960FB71FB79002BAF
S1131A300DD0FB79012B0AD0FB79022B07D0FB795F
S1131A40032B04D0FB79042B01D0FB79052B012255
S1131A503B6802FA03F30749FA7918461346DB0098
S1131A6013449B000B441433186000BF0C37BD466D
S1131A7080BC70470060004080B483B000AF034670
S1131A803960FB71FB79002B0DD0FB79012B0AD057
S1131A90FB79022B07D0FB79032B04D0FB79042BB1
S1131AA001D0FB79052B01223B6802FA03F30749B5
S1131AB0FA7918461346DB0013449B000B44103399
S1131AC0186000BF0C37BD4680BC70470060004002
S1131AD080B586B000AFB9607A601A460346FB73DE
S1131AE01346BB7300237B61FB7B002B0DD0FB7B78
S1131AF0012B0AD0FB7B022B07D0FB7B032B04D0EA
S1131B00FB7B042B01D0FB7B052B7B68072B0ED8BA
S1131B107B689B00072202FA03F1FA7B7B689B0037
S1131B2002FA03F31A461A48FFF756FF10E07B68DF
S1131B30083B7B617B699B00072202FA03F1FA7B75
S1131B407B699B0002FA03F31A461248FFF744FF2D
S1131B50BB7B1A4679681048FFF728FF97F82030B6
S1131B601A4679680D48FFF721FF01227B6802FAC3
S1131B7003F31846FFF744FF97F824301A467968B0
S1131B800748FFF713FF00BF1837BD4680BD00BFED
S1131B900061004004610040086100400C610040A5
S1131BA01061004080B584B000AFB9607B6003462B
S1131BB0FB731346BB73FB7B002B0DD0FB7B012B0C
S1131BC00AD0FB7B022B07D0FB7B032B04D0FB7BCF
S1131BD0042B01D0FB7B052BBB7B002B0DD07B683A
S1131BE0002B05D0FB7BB9681846FFF745FF04E0DE
S1131BF0FB7BB9681846FFF713FFBB68072B20D897
S1131C002D49FA7B1346DB0013449B000B44043339
S1131C101A68BB689B000F2101FA03F3DB431340EE
S1131C20B97BBA68920001FA02F211462248FA7BA3
S1131C3019431346DB0013449B0003440433196027
S1131C4025E01D49FA7B1346DB0013449B000B443B
S1131C5008331A68BB6803F18043083B9B000F21DB
S1131C6001FA03F3DB4302EA0301BA7BBB6803F125
S1131C708043083B9B0002FA03F30F48FA7B1943A5
S1131C801346DB0013449B00034408331960BB7BF9
S1131C90002B0DD17B68002B05D0FB7BB96818465F
S1131CA0FFF7EAFE04E0FB7BB9681846FFF7B8FECD
S1131CB000BF1037BD4680BD0060004080B483B0D3
S1131CC000AF0346FB71FB79002B06D0084B1B6861
S1131CD0074A43F00103136005E0054B1B68044AFF
S1131CE023F00103136000BF0C37BD4680BC70476E
S1131CF000A0084080B487B000AFF860B9607A6093
S1131D00FB6803F10473DA00BB6813449B007B6136
S1131D107B697A681A6000BF1C37BD4680BC704777
S1131D2080B584B000AF78601A4B5B68FB6000201C
S1131D30FFF7C4FFFB6823F4830323F01F03FB6056
S1131D407B685B68FA681343FB607B681B7A1A46FE
S1131D50FB681343FB607B685B7A1A46FB6813439A
S1131D60FB607B68DB68FA681343FB607B681B8A53
S1131D701A46FB681343FB60064AFB6853607B68A2
S1131D801B78002B02D00120FFF798FF00BF10370B
S1131D90BD4680BD00A0084080B485B000AF786027
S1131DA00D4B5B68FB60FB6823F48033FB607B684E
S1131DB0002B08D0B3F5803F00D005E0FB6843F466
S1131DC08033FB6000E000BF034AFB68536000BF40
S1131DD01437BD4680BC704700A0084080B483B06F
S1131DE000AF03460A46FB8013467B717B79002BC8
S1131DF006D0094B9A68FB88074913438B6006E0B9
S1131E00054B9A68FB88DB43034913408B6000BF92
S1131E100C37BD4680BC704700A0084080B584B034
S1131E2000AFF860B9601346FB71FB68072B00F242
S1131E30B38001A252F823F0591E0000811E000055
S1131E40A91E0000D11E0000F91E0000211F000081
S1131E50491F0000711F0000BB681F2B06DCBB6814
S1131E60FA7919464F48FFF745FF96E0BB68203BD7
S1131E70BB60BB68FA7919464B48FFF73BFF8CE01F
S1131E80BB681F2B06DCBB68FA7919464748FFF785
S1131E9031FF82E0BB68203BBB60BB68FA7919461E
S1131EA04348FFF727FF78E0BB681F2B06DCBB68BD
S1131EB0FA7919463F48FFF71DFF6EE0BB68203BE7
S1131EC0BB60BB68FA7919463B48FFF713FF64E02F
S1131ED0BB681F2B06DCBB68FA7919463748FFF745
S1131EE009FF5AE0BB68203BBB60BB68FA7919461E
S1131EF03348FFF7FFFE50E0BB681F2B06DCBB68CE
S1131F00FA7919462F48FFF7F5FE46E0BB68203BF7
S1131F10BB60BB68FA7919462B48FFF7EBFE3CE03F
S1131F20BB681F2B06DCBB68FA7919462748FFF704
S1131F30E1FE32E0BB68203BBB60BB68FA7919461E
S1131F402348FFF7D7FE28E0BB681F2B06DCBB68DD
S1131F50FA7919461F48FFF7CDFE1EE0BB68203B07
S1131F60BB60BB68FA7919461B48FFF7C3FE14E04F
S1131F70BB681F2B06DCBB68FA7919461748FFF7C4
S1131F80B9FE0AE0BB68203BBB60BB68FA7919461E
S1131F901348FFF7AFFE00E000BF00BF1037BD4697
S1131FA080BD00BF40A0084050A0084044A00840A5
S1131FB054A0084048A0084058A008404CA008403D
S1131FC05CA00840CCA00840B4A00840D0A00840C1
S1131FD0B8A00840D4A00840BCA00840D8A008403D
S1131FE0C0A0084080B487B000AFF860B9607A60E0
S1131FF0FB68072B00F2AC8001A252F823F000BF6B
S11320002120000045200000692000008D200000F0
S1132010B1200000D9200000012100002921000086
S11320204E4B1B6C7B61BB68DB437A6913407B615D
S1132030BA687B6813407A6913437B61474A7B69BA
S1132040136486E0454B5B6C7B61BB68DB437A6958
S113205013407B61BA687B6813407A6913437B61E0
S11320603E4A7B69536474E03C4B9B6C7B61BB6868
S1132070DB437A6913407B61BA687B6813407A69F1
S113208013437B61354A7B69936462E0334BDB6CB9
S11320907B61BB68DB437A6913407B61BA687B6808
S11320A013407A6913437B612C4A7B69D36450E003
S11320B02A4BD3F8CC307B61BB68DB437A6913408D
S11320C07B61BA687B6813407A6913437B61234A56
S11320D07B69C2F8CC303CE0204BD3F8D0307B6134
S11320E0BB68DB437A6913407B61BA687B68134041
S11320F07A6913437B61194A7B69C2F8D03028E0BE
S1132100164BD3F8D4307B61BB68DB437A69134048
S11321107B61BA687B6813407A6913437B610F4A19
S11321207B69C2F8D43014E00C4BD3F8D8307B610F
S1132130BB68DB437A6913407B61BA687B681340F0
S11321407A6913437B61054A7B69C2F8D83000E0A1
S113215000BF00BF1C37BD4680BC704700A00840CC
S113216080B487B000AFF860B9607A60FB68072B71
S113217000F2AC8001A252F823F000BF9D210000C0
S1132180C1210000E5210000092200002D220000E9
S1132190552200007D220000A52200004E4B1B6D3D
S11321A07B61BB68DB437A6913407B61BA687B68F7
S11321B013407A6913437B61474A7B69136586E060
S11321C0454B5B6D7B61BB68DB437A6913407B6184
S11321D0BA687B6813407A6913437B613E4A7B6922
S11321E0536574E03C4B9B6D7B61BB68DB437A6950
S11321F013407B61BA687B6813407A6913437B613F
S1132200354A7B69936562E0334BDB6D7B61BB6868
S1132210DB437A6913407B61BA687B6813407A694F
S113222013437B612C4A7B69D36550E02A4BD3F876
S1132230B4307B61BB68DB437A6913407B61BA6865
S11322407B6813407A6913437B61234A7B69C2F834
S1132250B4303CE0204BD3F8B8307B61BB68DB433F
S11322607A6913407B61BA687B6813407A691343C7
S11322707B61194A7B69C2F8B83028E0164BD3F861
S1132280BC307B61BB68DB437A6913407B61BA680D
S11322907B6813407A6913437B610F4A7B69C2F8F8
S11322A0BC3014E00C4BD3F8C0307B61BB68DB431B
S11322B07A6913407B61BA687B6813407A69134377
S11322C07B61054A7B69C2F8C03000E000BF00BFF3
S11322D01C37BD4680BC704700A0084080B483B062
S11322E000AF7860064B5B6823F4E01204497B6816
S11322F013434B6000BF0C37BD4680BC704700BF22
S113230000A0084080B485B000AF78601A4B5B69C8
S1132310DBB29B00DBB203F03C03FB73164B1B697F
S11323209B09DBB203F00303DAB2FB7B1343FB73B9
S11323307B68FA7B9A70104B1B69DBB203F03F0396
S1132340DAB27B685A700C4B9B691B09DBB21B0128
S1132350FB73094BDB691B09DBB203F00F03DAB231
S1132360FB7B1343FB737B68FA7B1A7000BF143743
S1132370BD4680BC704700BFD0FF0FE080B582B07F
S113238000AF0023FB7107E0FB79194A002122F812
S11323901310FB790133FB71FB79062BF4D9154B30
S11323A01A88002362F30F03184600F027F800236D
S11323B0BB7112E0BB79104A12F813105B0013448E
S11323C05B781B0243EA0102002362F30F03184601
S11323D000F014F8BB790133BB71BB79022BE9D946
S11323E0034800F041FE00BF0837BD4680BD00BF72
S11323F0FC010020E8010020F001002080B485B039
S113240000AFB88097F90430FB6097F90530BB60E2
S1132410BB68042B41D801A252F823F031240000F8
S11324204324000065240000772400008924000070
S11324301C49FA6811F8123043F0010301F8123014
S11324402BE01849FA6811F8123043F0400301F800
S11324501230144AFB685B0013445A7842F00402B9
S11324605A701AE00F49FA6811F8123043F0080361
S113247001F8123011E00B49FA6811F8123043F0F8
S1132480200301F8123008E00649FA6811F8123006
S113249043F0100301F8123000BF00BF1437BD46EB
S11324A080BC7047FC01002080B584B000AF0346B7
S11324B0FB710023FB600CE00B4AFB6852F82330ED
S11324C0DBB2FA7911461846FEF758F9FB68013376
S11324D0FB60054AFB6852F82330002BECD100BFA7
S11324E01037BD4680BD00BF0C00002080B588B009
S11324F002AF78600B46FB70786800F0F7FE386135
S11325007B6800937B68234A6421234800F0BAFE69
S1132510224800F0EBFE02463B691344FB6000F0E6
S1132520CDFB00237B6129E07B69FA68B3FBF2F2FF
S1132530F96801FB02F29B1A174A13441A46082150
S1132540174800F09FFE1648FEF7A4F9FB78002B0D
S113255006D07B6903F00103002B01D1012300E0C5
S1132560002303F00103DBB21846FFF79DFF4FF48D
S11325707A7000F0F9FD7B6901337B6100F084FB24
S1132580034683F00103DBB2002BCDD100BF183723
S1132590BD4680BD143E000070010020203E0000B6
S11325A0D401002080B582B000AF00237B6006E038
S11325B001217868FEF7DAF97B6801337B607B6878
S11325C0072BF5DD07233B600AE04FF4C87000F0E9
S11325D0CBFD00213868FEF7C9F93B68013B3B603D
S11325E03B68002BF1DA00BF0837BD4680BD80B5DB
S11325F086B000AF786039600023FB6000237B6104
S113260000233B617A683B689A4205DA7B687B6108
S11326103B6801333B6104E03B6801337B617B68C9
S11326203B6100F0FBFD024639697B69CB1A92FBE2
S1132630F3F103FB01F3D31A7A691344FB60FB68DB
S113264018461837BD4680BD80B483B000AF114B27
S113265000221A700F4B01225A700E4B02229A70FC
S113266000237B600DE00C4A7B68FF2102F8131005
S1132670094A7B685B00134405225A707B68013366
S11326807B607B68022BEEDD00BF0C37BD4680BC4F
S1132690704700BFE8010020F001002080B483B03F
S11326A000AF0E4B00221A7000237B600DE00C4A31
S11326B07B68FF2102F81310094A7B685B0013440E
S11326C005225A707B6801337B607B68022BEEDD48
S11326D000BF0C37BD4680BC704700BFE801002036
S11326E0F001002080B500AF044B00229A80034B18
S11326F09B881846FDF786FF00BF80BDE8010020D7
S113270080B58EB000AF06210120FFF770FF0346AD
S113271087F8373004210020FFF769FF034687F864
S113272036308D4A97F8373013708B4A97F8363025
S1132730537007F1080300221A605A609A60DA6045
S11327401A615A619A6197F93720930007F13801A9
S11327500B4453F8303C591C930007F138021344DE
S113276043F8301C01233B63EDE006210120FFF711
S11327703EFF034687F8373004210020FFF737FF78
S1132780034687F8363006E006210120FFF72FFFC5
S1132790034687F8373097F937309B0007F1380242
S11327A0134453F8303C032BEED097F937309B0099
S11327B007F13802134453F8303C002B1CD166490E
S11327C03B6B97F8372001F81320634A3B6B5B009F
S11327D0134497F836205A7097F93720930007F17D
S11327E038010B4453F8303C591C930007F138026C
S11327F0134443F8301CA3E097F937309B0007F1EA
S11328003802134453F8303C012B3CD10023FB62C3
S113281002E0FB6A0133FB624F4AFB6A12F9133090
S113282097F937209A42F4D106E004210020FFF7FB
S1132830DEFE034687F83630474AFB6A5B001344E2
S113284093F9013097F936209A42EED042493B6B16
S113285097F8372001F813203F4A3B6B5B00134481
S113286097F836205A7097F93720930007F138010A
S11328700B4453F8303C591C930007F138021344BD
S113288043F8301C5CE097F937309B0007F13802BD
S1132890134453F8303C022B52D10023BB62002373
S11328A07B621BE02C4A7B6A12F9133097F93720BC
S11328B09A4210D1284A7B6A5B00134493F9013091
S11328C01A46BB6A9B0007F138010B4443F8382CC5
S11328D0BB6A0133BB627B6A01337B627A6A3B6BFE
S11328E09A42DFDB06E004210020FFF780FE034666
S11328F087F8363097F936203B689A42F3D097F937
S113290036207B689A42EED013493B6B97F8372008
S113291001F81320104A3B6B5B00134497F83620F0
S11329205A7097F93720930007F138010B4453F894
S1132930303C591C930007F13802134443F8301C0F
S11329403B6B01333B633B6B022B7FF70EAF00BF46
S11329503837BD4680BD00BFF001002080B483B08D
S113296000AF0346FB71FB79012B15D0022B26D057
S1132970002B00D024E0154B9B78012B07D0022BB1
S113298001D0002B07E0114B00229A7003E00F4B9B
S113299002229A7000BF13E00C4B9B78012B0CD0E1
S11329A0022B06D0002B00D00AE0084B02229A70BA
S11329B004E0064B01229A7000E000BF00E000BF73
S11329C000BF0C37BD4680BC704700BFE801002043
S11329D080B483B000AF0346FB71644B9B78012B3A
S11329E03BD0022B6FD0002B00D0B9E05F4B93F9A2
S11329F00130042B00F2AF8001A252F823F000BF93
S1132A00152A00002F2A0000152A0000492A000078
S1132A10512A0000554B04225A70544B93F900304C
S1132A20DBB20133DBB25AB2504B1A7014E04F4B95
S1132A3003225A704D4B93F90030DBB20133DBB201
S1132A405AB24A4B1A7007E0484B04225A7003E00A
S1132A50464B03225A7000BF7DE0444B93F901308A
S1132A60042B7AD801A252F823F000BF812A000077
S1132A709B2A0000812A0000B52A0000BD2A00001C
S1132A803A4B03225A70394B93F90030DBB20133CD
S1132A90DBB25AB2354B1A7014E0344B04225A702C
S1132AA0324B93F90030DBB20133DBB25AB22F4B15
S1132AB01A7007E02D4B04225A7003E02B4B0322BB
S1132AC05A7000BF49E0294B93F90130042B46D8D2
S1132AD001A252F823F000BFED2A0000ED2A000005
S1132AE0ED2A0000012B00002B2B00001F4B93F953
S1132AF00030DBB20133DBB25AB21C4B1A7029E04E
S1132B00FB79012B08D0022B0AD0002B00D021E046
S1132B10164B01225A7007E0144B00225A7003E04E
S1132B20124B04225A7000BF14E0FB79012B08D029
S1132B30022B0AD0002B00D00BE00C4B02225A705F
S1132B4007E00A4B01225A7003E0084B03225A7033
S1132B5000BF00BF03E000BF02E000BF00E000BF11
S1132B6000BF0C37BD4680BC704700BFE8010020A1
S1132B7080B483B000AF00237B6018E0104B93F95E
S1132B80002010497B6811F913309A420CD10C4B88
S1132B9093F901200B497B685B000B4493F90130E6
S1132BA09A4201D1012306E07B6801337B607B6894
S1132BB0022BE3DD002318460C37BD4680BC70476A
S1132BC0E8010020F001002080B400AF054B93F928
S1132BD00030072B0CBF01230023DBB21846BD468F
S1132BE080BC7047E801002080B500AF064B9B888D
S1132BF001339AB2044B9A80034B9B881846FDF725
S1132C0001FD00BF80BD00BFE801002080B483B097
S1132C1000AF0346FB7197F90730002B0BDBFB7900
S1132C2003F01F02064997F907305B09012000FAF7
S1132C3002F241F8232000BF0C37BD4680BC704728
S1132C4000E100E080B483B000AF0346FB7197F964
S1132C500730002B10DBFB7903F01F02094997F9B9
S1132C6007305B09012000FA02F2203341F82320E7
S1132C70BFF34F8FBFF36F8F00BF0C37BD4680BCCF
S1132C80704700BF00E100E080B400AF094B1B783F
S1132C90DBB2002B04D1084B1B78DBB2002B01D034
S1132CA0012300E0002303F00103DBB21846BD4614
S1132CB080BC70470A020020EE01002080B400AFFF
S1132CC0044B00221A70044B00221A7000BFBD4648
S1132CD080BC70470A020020EE01002080B582B05B
S1132CE000AF0120FFF7AEFF0B20FFF7ABFF0E4B49
S1132CF01B78DBB23B700D4B1B78DBB27B70FFF7AC
S1132D00DDFF0120FFF782FF0B20FFF77FFF3B88E9
S1132D10BB8000233A7962F307037A7962F30F23C5
S1132D2018460837BD4680BD0A020020EE01002087
S1132D3080B483B000AFB8803B79002B01D000236E
S1132D4005E07B79002B01D0012300E00223184623
S1132D500C37BD4680BC704780B400AF074B074AB0
S1132D60D3F81431C2F81C31054B00221A70054BFC
S1132D7001221A7000BFBD4680BC7047006000404D
S1132D800A020020EE01002080B400AF074B074A7E
S1132D90D3F81431C2F81C31054B01221A70054BCB
S1132DA000221A7000BFBD4680BC7047006000401E
S1132DB00A020020EE01002080B483B000AF034675
S1132DC0FB7197F90730002B0BDBFB7903F01F0233
S1132DD0064997F907305B09012000FA02F241F82D
S1132DE0232000BF0C37BD4680BC704700E100E0E3
S1132DF080B483B000AF03463960FB7197F90730A4
S1132E00002B0ADB3B68DAB20C4997F90730520110
S1132E10D2B20B4483F800230AE03B68DAB20849D3
S1132E20FB7903F00F03043B5201D2B20B441A7630
S1132E3000BF0C37BD4680BC704700BF00E100E016
S1132E4000ED00E080B582B000AF78607B68013BA4
S1132E50B3F1807F01D301230FE00A4A7B68013B71
S1132E60536007214FF0FF30FFF7C2FF054B0022EC
S1132E709A60044B07221A60002318460837BD469F
S1132E8080BD00BF10E000E080B400AF034BDB6CFA
S1132E901B0EDBB21846BD4680BC7047B081E00F04
S1132EA080B582B000AF0E4B01221A64FFF7ECFF2D
S1132EB00346FB713B1D1846FFF724FAFB790F2BE1
S1132EC00AD93B79022B07D9064B1B6823F0500320
S1132ED0044A43F01003136000BF0837BD4680BDA9
S1132EE000000C40C0800C4080B584B002AFFFF7F6
S1132EF0D7FF0020FDF72AFB4148FEF781F902467F
S1132F00404BA3FB02239B091846FFF79BFF034694
S1132F10002B00D0FEE70520FEF75EFC01213A48B5
S1132F20FEF706F90023012209210120FEF73AFEEB
S1132F30002301220A210120FEF734FE012301931C
S1132F40002300930123092209210120FEF7C0FD7B
S1132F50012301930023009301230A220A21012063
S1132F60FEF7B6FD0120FFF727FF0B20FFF724FF34
S1132F7000212648FFF7BAFAFFF7B4FBFFF764FB1A
S1132F80FFF78CFBFFF7AAFEFFF7BAFBFFF7F6F992
S1132F90FFF708FB1E4B9B88184600F0BDF803465C
S1132FA0184600F0E1F8FFF799FE0346BB80786805
S1132FB0FFF7BEFE0346FB71FB791846FFF7CEFC14
S1132FC0FB791846FFF704FDFFF7D8F9FFF7FCFD7E
S1132FD00346002B02D0FFF707FED1E7FFF7C8FD39
S1132FE0034683F00103DBB2002BD3D1FFF72CFBA4
S1132FF001210848FFF77AFA0020FFF755FABBE7EA
S113300070000200D34D621000D20400243E000080
S1133010E80100203C3E000080B483B000AF0346CA
S1133020FB71FB79002B03D0054B01221A6602E0E9
S1133030034B00221A6600BF0C37BD4680BC7047A4
S113304000A0084080B483B000AF786000BF054B97
S11330505A6E7B681340002BF9D100BF0C37BD4674
S113306080BC704700A0084080B586B000AF78608F
S11330704FF0FF30FFF7E6FF0120FFF7CDFF0023FD
S1133080BB753CE00023FB7533E0BA7DF97D214834
S11330901346DB009B1A9B0003440B440E331B783E
S11330A03B61BA7DF97D1B481346DB009B1A9B00EC
S11330B003440B441B78FB60BB7D5B007A681344BC
S11330C01B881A46FB7D42FA03F303F00103002B2D
S11330D006D0FB68396901221846FEF79FFE05E019
S11330E0FB68396900221846FEF798FEFB7D013320
S11330F0FB75FB7D0D2BC8D9BB7D0133BB75BB7D37
S1133100062BBFD90020FFF787FF00BF1837BD4645
S113311080BD00BF2400002080B485B000AF03460A
S1133120FB80FB886FF0130202FB03F303F5FA63E1
S1133130FB60FB68B3F57A7F02D24FF47A73FB60CD
S1133140FB6818461437BD4680BC704780B400AF96
S1133150044B1B680133034A136000BFBD4680BCA7
S1133160704700BFF801002080B485B000AF7860DC
S1133170074B1B68FB6000BF054B1A68FB68D31A3A
S11331807A689A42F8D800BF1437BD4680BC7047AD
S1133190F80100200028B8BF4042704708B5074B2B
S11331A0044613B10021AFF30080054B1868836A0D
S11331B003B19847204600F0A7FC00BF00000000C0
S11331C0483E000070B500250C4E0D4CA41BA41005
S11331D0A54209D100F09AFC00250A4E0A4CA41B12
S11331E0A410A54205D170BD56F825309847013585
S11331F0EEE756F8253098470135F2E74C010020F8
S11332004C0100204C0100205001002003460244E0
S1133210934200D1704703F8011BF9E738B5134B0B
S11332201C68A36B7BB9182000F068F8104A114B96
S1133230A063C0E90023104B012283600B23838128
S11332400023C0E90423A16B0C480A694B6950436D
S11332500B4C04FB0300A2FB04230344541C43F162
S11332600005C1E9044525F0004038BDE800002010
S11332700E33CDAB34126DE6ECDE05002DF451585F
S11332802D7F954C0CB430B5174B0C1E9DB01D68AA
S113329008DA8B234FF0FF302B601DB0BDE83040BF
S11332A002B070474FF40273ADF814300CBF2346DC
S11332B004F1FF33049307934FF6FF7302900690D3
S11332C0ADF81630209A21AB02A92846019300F0EC
S11332D01DF9431CBCBF8B232B60002CDDD00022C6
S11332E0029B1A70D9E700BFE8000020034613F8D8
S11332F0012B002AFBD1181A01387047024B0146F2
S1133300186800F04FB800BFE800002038B5054643
S1133310002943D051F8043C0C1F002BB8BFE4181B
S113332000F0B4FB1E4A1368104633B9636014609E
S11333302846BDE8384000F0AABBA3420BD9216857
S11333406218934201BF1A685B6852182260636076
S11333500460EDE713465A680AB1A242FAD9196823
S11333605818A0420BD120680144581882421960B1
S1133370DED110685268014419605A60D8E702D956
S11333800C232B60D4E7206821188A4201BF1168FE
S113339052680918216062605C60C9E738BD00BFEB
S11333A0DC01002070B5CD1C25F0030508350C2D7B
S11333B038BF0C25002D064601DBA94203D90C2396
S11333C03360002070BD00F061FB214A146821467F
S11333D091B9204C23681BB9304600F015FB2060DE
S11333E02946304600F010FB431C24D10C23304600
S11333F0336000F04CFBE4E70B685B1B18D40B2B29
S11334000FD90B60CC18CD50304600F040FB04F1CE
S11334100B00231D20F00700C31AD3D05A42E250F8
S1133420D0E74B688C4216BF636013600C46EBE731
S11334300C464968CCE7C41C24F00304A04205D020
S1133440211A304600F0E0FA0130CFD02560DBE7E6
S1133450DC010020E00100202DE9F0478E6882465F
S11334609E420C469046994637D88A8912F4906F4A
S113347031D00223256809696F1A656905EB450592
S113348095FBF3F509F101033B449D4238BF1D460A
S1133490530530D52946FFF785FF064650B90C235E
S11334A04FF0FF30CAF80030A38943F04003A381F2
S11334B0BDE8F0873A46216900F0C4FAA38923F4F1
S11334C0906343F08003A38126613E4426604E4608
S11334D06561ED1BA5604E4500D94E463246414616
S11334E0206800F0BAFAA36800209B1BA36023683D
S11334F01E442660DCE72A4600F0CAFA0646002885
S1133500E2D121695046FFF701FFC8E72DE9F04FEA
S11335109DB003938B8980461D060C4616460FD535
S11335200B696BB94021FFF73DFF2060206128B98A
S11335300C23C8F800304FF0FF30C7E0402363612C
S11335400023099320238DF8293030234FF0010BF9
S11335508DF82A3037463D4615F8013B0BB1252B33
S11335603ED1B7EB060A0BD05346324621464046BD
S1133570FFF772FF013000F0A480099B53440993C4
S11335803B78002B00F09D8000234FF0FF32CDE903
S11335900523049307938DF853301A932F4605227D
S11335A017F8011B4F4800F03FFA049BD0B9D90625
S11335B044BF20228DF853201A0744BF2B228DF8D4
S11335C053202A782A2A15D02F4600200A25079A44
S11335D0394611F8013B303B092B4DD9B8B10FE006
S11335E02F46B8E73F4A3D46801A0BFA00F01843CD
S11335F00490D3E7039A111D12680391002A01DB9A
S1133600079204E0524243F00203079204933B788A
S11336102E2B0CD17B782A2B33D1039B02371A1D16
S11336201B680392002BB8BF4FF0FF3305932E4D58
S113363003223978284600F0F7F938B14023401BBB
S113364003FA00F0049B01370343049339780622FC
S113365026487E1C8DF8281000F0E6F9002838D0A2
S1133660234B13BB039B073323F007030833039354
S1133670099B4B4409936DE705FB023201200F4679
S1133680A6E700230A25194601370593384610F8A2
S1133690012B303A092A03D9002BC8D00591C6E77B
S11336A005FB012101230746F0E703AB0093224603
S11336B0104B04A94046AFF30080B0F1FF3F8146B0
S11336C0D6D1A3895B063FF536AF09981DB0BDE896
S11336D0F08F03AB00932246064B04A9404600F04A
S11336E081F8EAE74C3E0000523E0000563E0000DE
S11336F000000000593400002DE9F04791461F46B0
S11337008A680B6906469342B8BF1346C9F800306D
S113371091F843200C46DDF8208012B10133C9F83A
S113372000302368990642BFD9F800300233C9F843
S11337300030256815F0060507D104F1190AE3687D
S1133740D9F800209B1AAB4229DC94F84330226854
S1133750003318BF012392062ED404F143023946E4
S11337603046C047013021D02368E56803F00603E2
S1133770042B18BF0025D9F800204FF0000908BF1A
S1133780AD1AA368226908BF25EAE5759342C4BF50
S11337909B1AED181A344D451AD1002008E0012374
S11337A0524639463046C047013003D14FF0FF300E
S11337B0BDE8F0870135C2E73020E11881F8430005
S11337C05A1C94F845102244023382F84310C4E78B
S11337D00123224639463046C0470130E6D009F17C
S11337E00109D8E72DE9F04301F1430C0C46097EA9
S11337F085B06E291746064698460C9A00F0B380A9
S113380022D8632936D00AD8002900F0B980582973
S113381000F0838004F1420584F8421032E0642908
S113382001D06929F6D120681368050603F1040163
S11338302AD51B681160002B03DA2D225B4284F821
S113384043206F480A2239E0732900F09D8008D88C
S11338506F2920D07029DDD1236843F02003236031
S113386003E0752917D07829D4D17823654884F8E2
S1133870453055E0136804F14205191D1B681160B9
S113388084F8423001238CE01B6810F0400F116073
S113389018BF1BB2CFE713682568181D10602806EF
S11338A001D51B6802E06806FBD51B886F2914BF8D
S11338B00A2208225248002184F843106568002D2A
S11338C0A560C0F29580216821F004012160002BDD
S11338D03DD1002D40F08E806546082A0BD1236827
S11338E0DB0708D5236962689A42DEBF302305F8F6
S11338F0013C05F1FF35ACEB05032361CDF80080F5
S11339003B4603AA21463046FFF7F6FE01304DD16F
S11339104FF0FF3005B0BDE8F083394884F8451016
S1133920136821681D1D1B6815600A060BD5CA079C
S113393044BF41F0200121601BB9226822F020021B
S113394022601022B7E74D0648BF9BB2EFE76546F9
S1133950B3FBF2F102FB1133C35C05F8013D0B46E6
S11339600029F5D1B9E713682568181D616910604D
S113397028061B6801D5196002E06A06FBD5198088
S1133980002365462361B9E71368191D11601D689A
S113399062680021284600F047F808B1401B6060C7
S11339A063682361002384F84330A7E723692A4628
S11339B039463046C0470130AAD023689B0713D448
S11339C0E068039B9842B8BF1846A3E701234A4620
S11339D039463046C04701309AD00135E368039A2E
S11339E09B1AAB42F2DCEBE7002504F11909F5E779
S11339F0002BACD1037804F1420584F842306CE723
S1133A005D3E00006E3E000038B50023054C0546BF
S1133A100846236000F06AF8431C02D1236803B10E
S1133A202B6038BD0C02002010B5C9B2024490428C
S1133A30034601D1002303E01C7801308C42F6D107
S1133A40184610BD10B5431E0A44914200D110BD62
S1133A5011F8014B03F8014FF7E7884210B501EB69
S1133A60020307D8421E99420AD011F8014B02F80A
S1133A70014FF8E78342F5D98118D21AD34200D115
S1133A8010BD13F8014D01F8014DF7E77047704779
S1133A90F8B5074614460E4621B9BDE8F84011466C
S1133AA0FFF780BC22B9FFF731FC25462846F8BD54
S1133AB000F014F8A0420FD221463846FFF772FCFA
S1133AC005460028F2D031462246FFF7BBFF3146B7
S1133AD03846FFF71BFCE9E73546E7E751F8043CB5
S1133AE0181F002BBCBF0B58C0187047044A054967
S1133AF01368002B08BF0B46184410601846704723
S1133B00E401002010020020FEE700BFF8B500BF6A
S1133B10F8BC08BC9E467047F8B500BFF8BC08BCAA
S1133B209E467047010105070703040203020406C9
S1133B3005060D0E0E0E0D0D0D0D0E0E0E0E0D0DB9
S1133B4001010507070304020302040605060F101A
S1133B5010100F0F0F0F101010100F0F0101050799
S1133B6007030402030204060506111212121111BE
S1133B701111121212121111010105070703040297
S1133B80030204060506131C1C1C131313131C1C2C
S1133B901C1C13130001050706020301030204069B
S1133BA004051D1E1E1E1D1D1D1D1E1E1E1E1D1D6B
S1133BB000010507060203010302040604051F2091
S1133BC020201F1F1F1F202020201F1F0101050769
S1133BD007030402030204060506212222222121EE
S1133BE02121222222222121070502010306042386
S1133BF02323232323230705020103060424242467
S1133C00242424240705020103060425252525254B
S1133C102525070502010306042626262626262630
S1133C2000010702062727272727000000000000BD
S1133C300000131211100F0E0D0C000000002125BE
S1133C40242601010304040203020D0E0D0D0E0DC2
S1133C500E0E01010304040203020F100F0F100FD4
S1133C6010100101030404020302111211111211B4
S1133C7012120101030404020302131C13131C1384
S1133C801C1C00010203040103021D1E1D1D1E1D38
S1133C901E1E00010203040103021F201F1F201F18
S1133CA020200101030404020302212221212221F4
S1133CB0222205070704040605060E0E0D0D0E0E3E
S1133CC00D0D050707040406050610100F0F10104C
S1133CD00F0F05070704040605061212111112122C
S1133CE0111105070704040605061C1C13131C1CEC
S1133CF0131305070603040604051E1E1D1D1E1EC0
S1133D001D1D050706030406040520201F1F20208F
S1133D101F1F05070704040605062222212122226B
S1133D2021210000000000118002000000000206B2
S1133D300000200039000F0000004015002040045E
S1133D40001000223F0006005B044F0466046D046B
S1133D507D0407007F046F0400000000000A0000D7
S1133D6080200000FFFF7704790A3900B020790031
S1133D7071007D04760406000E00700A3800B60255
S1133D80B6083F0073043F08730C6D0401113E0034
S1133D9030223628802A6E040922390080080F0058
S1133DA001000800000158107C0458005E045820EB
S1133DB071040C0C740404000E00700C38005414CC
S1133DC054045C04730467045004080C78001C0059
S1133DD010201428802A0C08482000003F00060008
S1133DE05B004F0066006D007D0007007F006F00E0
S1133DF077007C0039005E0079007100400000000B
S1133E0001000000030040000C000000000000005E
S1133E1000000000202020257320202025730000AE
S1133E202020200057454C434F4D452020505245FB
S1133E30535320414E59204B4559000047414D45AD
S1133E40204F564552000000EC000020232D302B5B
S1133E502000686C4C006566674546470030313287
S1133E6033343536373839414243444546003031DE
S1133E70323334353637383961626364656600003D
S1073E80000000003A
S10B3E8498C2FF7F0100000059
S1133E8C006CDC0200800000809FD5000B00000059
S1133E9C0C0000000D0000000E0000000F000000DC
S1133EAC00000000010105070703040203020406D5
S1133EBC05060D0E0E0E0D0D0D0D0E0E0E0E0D0D2A
S1133ECC01010507070304020302040605060F108B
S1133EDC10100F0F0F0F101010100F0F010105070A
S1133EEC070304020302040605061112121211112F
S1133EFC1111121212121111010105070703040208
S1133F0C030204060506131C1C1C131313131C1C9C
S1133F1C1C1C13130001050706020301030204060B
S1133F2C04051D1E1E1E1D1D1D1D1E1E1E1E1D1DDB
S1133F3C00010507060203010302040604051F2001
S1133F4C20201F1F1F1F202020201F1F01010507D9
S1133F5C070304020302040605062122222221215E
S1133F6C2121222222222121EC0000200000000029
S1133F7C0000000000000000000000000000000031
S1133F8C0000000000000000000000000000000021
S1133F9C0000000000000000000000000000000011
S1133FAC0000000000000000000000000000000001
S1133FBC00000000000000000000000000000000F1
S1133FCC00000000000000000000000001010000DF
S1073FDCDD00000000
S90301916A
